{
  "contractName": "Auction",
  "abi": [
    {
      "inputs": [],
      "stateMutability": "nonpayable",
      "type": "constructor"
    },
    {
      "anonymous": false,
      "inputs": [
        {
          "indexed": false,
          "internalType": "uint256",
          "name": "id",
          "type": "uint256"
        },
        {
          "components": [
            {
              "internalType": "uint256",
              "name": "id",
              "type": "uint256"
            },
            {
              "internalType": "string",
              "name": "productName",
              "type": "string"
            },
            {
              "internalType": "string",
              "name": "category",
              "type": "string"
            },
            {
              "internalType": "string",
              "name": "imageLink",
              "type": "string"
            },
            {
              "internalType": "uint256",
              "name": "startTime",
              "type": "uint256"
            },
            {
              "internalType": "uint256",
              "name": "endTime",
              "type": "uint256"
            },
            {
              "internalType": "uint256",
              "name": "price",
              "type": "uint256"
            },
            {
              "internalType": "address",
              "name": "buyer",
              "type": "address"
            },
            {
              "internalType": "address",
              "name": "sellerAddress",
              "type": "address"
            },
            {
              "internalType": "enum Auction.ProductCondition",
              "name": "productCondition",
              "type": "uint8"
            },
            {
              "internalType": "enum Auction.ProductState",
              "name": "productState",
              "type": "uint8"
            },
            {
              "internalType": "bool",
              "name": "exists",
              "type": "bool"
            }
          ],
          "indexed": false,
          "internalType": "struct Auction.Product",
          "name": "product",
          "type": "tuple"
        },
        {
          "indexed": false,
          "internalType": "uint256",
          "name": "bidAmount",
          "type": "uint256"
        },
        {
          "components": [
            {
              "internalType": "address",
              "name": "userAddress",
              "type": "address"
            },
            {
              "internalType": "string",
              "name": "firstName",
              "type": "string"
            },
            {
              "internalType": "string",
              "name": "lastName",
              "type": "string"
            },
            {
              "internalType": "string",
              "name": "email",
              "type": "string"
            },
            {
              "internalType": "string",
              "name": "phoneNumber",
              "type": "string"
            }
          ],
          "indexed": false,
          "internalType": "struct Auction.User",
          "name": "bidder",
          "type": "tuple"
        }
      ],
      "name": "NewBid",
      "type": "event"
    },
    {
      "anonymous": false,
      "inputs": [
        {
          "indexed": false,
          "internalType": "address",
          "name": "storeAddress",
          "type": "address"
        },
        {
          "indexed": false,
          "internalType": "address",
          "name": "productAddress",
          "type": "address"
        }
      ],
      "name": "NewProductAdded",
      "type": "event"
    },
    {
      "anonymous": false,
      "inputs": [
        {
          "indexed": false,
          "internalType": "address",
          "name": "storeAddress",
          "type": "address"
        },
        {
          "indexed": false,
          "internalType": "string",
          "name": "storeName",
          "type": "string"
        },
        {
          "indexed": false,
          "internalType": "string",
          "name": "email",
          "type": "string"
        },
        {
          "indexed": false,
          "internalType": "string",
          "name": "storeFrontImage",
          "type": "string"
        }
      ],
      "name": "NewStoreAdded",
      "type": "event"
    },
    {
      "inputs": [],
      "name": "bidCount",
      "outputs": [
        {
          "internalType": "uint256",
          "name": "",
          "type": "uint256"
        }
      ],
      "stateMutability": "view",
      "type": "function",
      "constant": true
    },
    {
      "inputs": [
        {
          "internalType": "uint256",
          "name": "",
          "type": "uint256"
        }
      ],
      "name": "bidCountByProduct",
      "outputs": [
        {
          "internalType": "uint256",
          "name": "",
          "type": "uint256"
        }
      ],
      "stateMutability": "view",
      "type": "function",
      "constant": true
    },
    {
      "inputs": [
        {
          "internalType": "uint256",
          "name": "",
          "type": "uint256"
        },
        {
          "internalType": "uint256",
          "name": "",
          "type": "uint256"
        }
      ],
      "name": "bidsByProduct",
      "outputs": [
        {
          "internalType": "uint256",
          "name": "id",
          "type": "uint256"
        },
        {
          "internalType": "uint256",
          "name": "productId",
          "type": "uint256"
        },
        {
          "internalType": "uint256",
          "name": "bidAmount",
          "type": "uint256"
        },
        {
          "internalType": "address",
          "name": "bidderAddress",
          "type": "address"
        }
      ],
      "stateMutability": "view",
      "type": "function",
      "constant": true
    },
    {
      "inputs": [],
      "name": "name",
      "outputs": [
        {
          "internalType": "string",
          "name": "",
          "type": "string"
        }
      ],
      "stateMutability": "view",
      "type": "function",
      "constant": true
    },
    {
      "inputs": [
        {
          "internalType": "uint256",
          "name": "",
          "type": "uint256"
        }
      ],
      "name": "productById",
      "outputs": [
        {
          "internalType": "uint256",
          "name": "id",
          "type": "uint256"
        },
        {
          "internalType": "string",
          "name": "productName",
          "type": "string"
        },
        {
          "internalType": "string",
          "name": "category",
          "type": "string"
        },
        {
          "internalType": "string",
          "name": "imageLink",
          "type": "string"
        },
        {
          "internalType": "uint256",
          "name": "startTime",
          "type": "uint256"
        },
        {
          "internalType": "uint256",
          "name": "endTime",
          "type": "uint256"
        },
        {
          "internalType": "uint256",
          "name": "price",
          "type": "uint256"
        },
        {
          "internalType": "address",
          "name": "buyer",
          "type": "address"
        },
        {
          "internalType": "address",
          "name": "sellerAddress",
          "type": "address"
        },
        {
          "internalType": "enum Auction.ProductCondition",
          "name": "productCondition",
          "type": "uint8"
        },
        {
          "internalType": "enum Auction.ProductState",
          "name": "productState",
          "type": "uint8"
        },
        {
          "internalType": "bool",
          "name": "exists",
          "type": "bool"
        }
      ],
      "stateMutability": "view",
      "type": "function",
      "constant": true
    },
    {
      "inputs": [],
      "name": "productCount",
      "outputs": [
        {
          "internalType": "uint256",
          "name": "",
          "type": "uint256"
        }
      ],
      "stateMutability": "view",
      "type": "function",
      "constant": true
    },
    {
      "inputs": [
        {
          "internalType": "address",
          "name": "",
          "type": "address"
        }
      ],
      "name": "productCountByStore",
      "outputs": [
        {
          "internalType": "uint256",
          "name": "",
          "type": "uint256"
        }
      ],
      "stateMutability": "view",
      "type": "function",
      "constant": true
    },
    {
      "inputs": [
        {
          "internalType": "address",
          "name": "",
          "type": "address"
        },
        {
          "internalType": "uint256",
          "name": "",
          "type": "uint256"
        }
      ],
      "name": "stores",
      "outputs": [
        {
          "internalType": "uint256",
          "name": "id",
          "type": "uint256"
        },
        {
          "internalType": "string",
          "name": "productName",
          "type": "string"
        },
        {
          "internalType": "string",
          "name": "category",
          "type": "string"
        },
        {
          "internalType": "string",
          "name": "imageLink",
          "type": "string"
        },
        {
          "internalType": "uint256",
          "name": "startTime",
          "type": "uint256"
        },
        {
          "internalType": "uint256",
          "name": "endTime",
          "type": "uint256"
        },
        {
          "internalType": "uint256",
          "name": "price",
          "type": "uint256"
        },
        {
          "internalType": "address",
          "name": "buyer",
          "type": "address"
        },
        {
          "internalType": "address",
          "name": "sellerAddress",
          "type": "address"
        },
        {
          "internalType": "enum Auction.ProductCondition",
          "name": "productCondition",
          "type": "uint8"
        },
        {
          "internalType": "enum Auction.ProductState",
          "name": "productState",
          "type": "uint8"
        },
        {
          "internalType": "bool",
          "name": "exists",
          "type": "bool"
        }
      ],
      "stateMutability": "view",
      "type": "function",
      "constant": true
    },
    {
      "inputs": [
        {
          "internalType": "address",
          "name": "",
          "type": "address"
        }
      ],
      "name": "storesByAddress",
      "outputs": [
        {
          "internalType": "uint256",
          "name": "storeId",
          "type": "uint256"
        },
        {
          "internalType": "address",
          "name": "userAddress",
          "type": "address"
        },
        {
          "internalType": "string",
          "name": "storeName",
          "type": "string"
        },
        {
          "internalType": "string",
          "name": "storeFrontImage",
          "type": "string"
        },
        {
          "internalType": "uint256",
          "name": "balance",
          "type": "uint256"
        },
        {
          "internalType": "uint256",
          "name": "productCount",
          "type": "uint256"
        }
      ],
      "stateMutability": "view",
      "type": "function",
      "constant": true
    },
    {
      "inputs": [
        {
          "internalType": "uint256",
          "name": "",
          "type": "uint256"
        }
      ],
      "name": "storesById",
      "outputs": [
        {
          "internalType": "uint256",
          "name": "storeId",
          "type": "uint256"
        },
        {
          "internalType": "address",
          "name": "userAddress",
          "type": "address"
        },
        {
          "internalType": "string",
          "name": "storeName",
          "type": "string"
        },
        {
          "internalType": "string",
          "name": "storeFrontImage",
          "type": "string"
        },
        {
          "internalType": "uint256",
          "name": "balance",
          "type": "uint256"
        },
        {
          "internalType": "uint256",
          "name": "productCount",
          "type": "uint256"
        }
      ],
      "stateMutability": "view",
      "type": "function",
      "constant": true
    },
    {
      "inputs": [
        {
          "internalType": "uint256",
          "name": "",
          "type": "uint256"
        }
      ],
      "name": "storesByProductId",
      "outputs": [
        {
          "internalType": "address",
          "name": "",
          "type": "address"
        }
      ],
      "stateMutability": "view",
      "type": "function",
      "constant": true
    },
    {
      "inputs": [
        {
          "internalType": "address",
          "name": "",
          "type": "address"
        }
      ],
      "name": "storesBySellers",
      "outputs": [
        {
          "internalType": "uint256",
          "name": "",
          "type": "uint256"
        }
      ],
      "stateMutability": "view",
      "type": "function",
      "constant": true
    },
    {
      "inputs": [],
      "name": "storesCount",
      "outputs": [
        {
          "internalType": "uint256",
          "name": "",
          "type": "uint256"
        }
      ],
      "stateMutability": "view",
      "type": "function",
      "constant": true
    },
    {
      "inputs": [
        {
          "internalType": "address",
          "name": "",
          "type": "address"
        }
      ],
      "name": "usersByAddress",
      "outputs": [
        {
          "internalType": "address",
          "name": "userAddress",
          "type": "address"
        },
        {
          "internalType": "string",
          "name": "firstName",
          "type": "string"
        },
        {
          "internalType": "string",
          "name": "lastName",
          "type": "string"
        },
        {
          "internalType": "string",
          "name": "email",
          "type": "string"
        },
        {
          "internalType": "string",
          "name": "phoneNumber",
          "type": "string"
        }
      ],
      "stateMutability": "view",
      "type": "function",
      "constant": true
    },
    {
      "inputs": [
        {
          "internalType": "address",
          "name": "userAddress",
          "type": "address"
        },
        {
          "internalType": "string",
          "name": "firstName",
          "type": "string"
        },
        {
          "internalType": "string",
          "name": "lastName",
          "type": "string"
        },
        {
          "internalType": "string",
          "name": "email",
          "type": "string"
        },
        {
          "internalType": "string",
          "name": "phoneNumber",
          "type": "string"
        }
      ],
      "name": "addUser",
      "outputs": [
        {
          "internalType": "address",
          "name": "_userAddress",
          "type": "address"
        },
        {
          "internalType": "string",
          "name": "_firstName",
          "type": "string"
        },
        {
          "internalType": "string",
          "name": "_lastName",
          "type": "string"
        },
        {
          "internalType": "string",
          "name": "_email",
          "type": "string"
        },
        {
          "internalType": "string",
          "name": "_phoneNumber",
          "type": "string"
        }
      ],
      "stateMutability": "nonpayable",
      "type": "function"
    },
    {
      "inputs": [
        {
          "internalType": "address",
          "name": "userAddress",
          "type": "address"
        }
      ],
      "name": "getUser",
      "outputs": [
        {
          "internalType": "address",
          "name": "_userAddress",
          "type": "address"
        },
        {
          "internalType": "string",
          "name": "_firstName",
          "type": "string"
        },
        {
          "internalType": "string",
          "name": "_lastName",
          "type": "string"
        },
        {
          "internalType": "string",
          "name": "_email",
          "type": "string"
        },
        {
          "internalType": "string",
          "name": "_phoneNumber",
          "type": "string"
        }
      ],
      "stateMutability": "view",
      "type": "function",
      "constant": true
    },
    {
      "inputs": [
        {
          "internalType": "uint256",
          "name": "productId",
          "type": "uint256"
        },
        {
          "internalType": "uint256",
          "name": "bidAmount",
          "type": "uint256"
        }
      ],
      "name": "placeBid",
      "outputs": [
        {
          "internalType": "bool",
          "name": "success",
          "type": "bool"
        }
      ],
      "stateMutability": "nonpayable",
      "type": "function"
    },
    {
      "inputs": [
        {
          "internalType": "uint256",
          "name": "productId",
          "type": "uint256"
        },
        {
          "internalType": "uint256",
          "name": "bidId",
          "type": "uint256"
        }
      ],
      "name": "getProductBids",
      "outputs": [
        {
          "components": [
            {
              "internalType": "uint256",
              "name": "id",
              "type": "uint256"
            },
            {
              "internalType": "uint256",
              "name": "productId",
              "type": "uint256"
            },
            {
              "internalType": "uint256",
              "name": "bidAmount",
              "type": "uint256"
            },
            {
              "internalType": "address",
              "name": "bidderAddress",
              "type": "address"
            }
          ],
          "internalType": "struct Auction.Bid",
          "name": "bids",
          "type": "tuple"
        }
      ],
      "stateMutability": "nonpayable",
      "type": "function"
    },
    {
      "inputs": [
        {
          "internalType": "string",
          "name": "_name",
          "type": "string"
        },
        {
          "internalType": "string",
          "name": "_email",
          "type": "string"
        },
        {
          "internalType": "string",
          "name": "_storeFrontImage",
          "type": "string"
        }
      ],
      "name": "addStore",
      "outputs": [
        {
          "internalType": "bool",
          "name": "",
          "type": "bool"
        }
      ],
      "stateMutability": "nonpayable",
      "type": "function"
    },
    {
      "inputs": [
        {
          "internalType": "string",
          "name": "_name",
          "type": "string"
        },
        {
          "internalType": "string",
          "name": "_category",
          "type": "string"
        },
        {
          "internalType": "uint256",
          "name": "_startTime",
          "type": "uint256"
        },
        {
          "internalType": "uint256",
          "name": "_endTime",
          "type": "uint256"
        },
        {
          "internalType": "uint256",
          "name": "_price",
          "type": "uint256"
        },
        {
          "internalType": "uint256",
          "name": "_productCondition",
          "type": "uint256"
        }
      ],
      "name": "addProduct",
      "outputs": [],
      "stateMutability": "nonpayable",
      "type": "function"
    },
    {
      "inputs": [
        {
          "internalType": "uint256",
          "name": "_id",
          "type": "uint256"
        }
      ],
      "name": "getProduct",
      "outputs": [
        {
          "internalType": "uint256",
          "name": "id",
          "type": "uint256"
        },
        {
          "internalType": "string",
          "name": "productName",
          "type": "string"
        },
        {
          "internalType": "string",
          "name": "category",
          "type": "string"
        },
        {
          "internalType": "uint256",
          "name": "startTime",
          "type": "uint256"
        },
        {
          "internalType": "uint256",
          "name": "endTime",
          "type": "uint256"
        },
        {
          "internalType": "uint256",
          "name": "price",
          "type": "uint256"
        },
        {
          "internalType": "address",
          "name": "buyer",
          "type": "address"
        },
        {
          "internalType": "address",
          "name": "sellerAddress",
          "type": "address"
        },
        {
          "internalType": "enum Auction.ProductCondition",
          "name": "condition",
          "type": "uint8"
        },
        {
          "internalType": "enum Auction.ProductState",
          "name": "productState",
          "type": "uint8"
        }
      ],
      "stateMutability": "view",
      "type": "function",
      "constant": true
    }
  ],
  "bytecode": "0x60806040526040518060400160405280600781526020017f41756374696f6e00000000000000000000000000000000000000000000000000815250600090805190602001906200005192919062000075565b506000600c556000600d556000600e553480156200006e57600080fd5b506200018a565b828054620000839062000154565b90600052602060002090601f016020900481019282620000a75760008555620000f3565b82601f10620000c257805160ff1916838001178555620000f3565b82800160010185558215620000f3579182015b82811115620000f2578251825591602001919060010190620000d5565b5b50905062000102919062000106565b5090565b5b808211156200012157600081600090555060010162000107565b5090565b7f4e487b7100000000000000000000000000000000000000000000000000000000600052602260045260246000fd5b600060028204905060018216806200016d57607f821691505b6020821081141562000184576200018362000125565b5b50919050565b613bfa806200019a6000396000f3fe608060405234801561001057600080fd5b50600436106101375760003560e01c80636bf693c4116100b8578063b40a56271161007c578063b40a5627146103ff578063b9db15b41461041d578063cd274a4014610456578063e0f6ef871461048a578063eea720c0146104a8578063f95a279f146104d857610137565b80636bf693c4146103095780636f77926b1461033d578063a30b475f14610371578063aa0cd2b8146103ac578063abbfccab146103ca57610137565b80631b486233116100ff5780631b486233146102225780632d2bb2471461025257806354121c741461028257806357c90de5146102bd5780635c8d189d146102ed57610137565b80630281ff3a1461013c5780630674ca3c1461016c57806306fdde03146101a15780630ba582fb146101bf578063167d21fc146101f2575b600080fd5b61015660048036038101906101519190612d7b565b610508565b6040516101639190612dc1565b60405180910390f35b61018660048036038101906101819190612e08565b610520565b60405161019896959493929190612edd565b60405180910390f35b6101a961068c565b6040516101b69190612f4c565b60405180910390f35b6101d960048036038101906101d49190612f6e565b61071a565b6040516101e99493929190612fae565b60405180910390f35b61020c60048036038101906102079190612d7b565b610777565b6040516102199190612dc1565b60405180910390f35b61023c60048036038101906102379190613128565b61078f565b60405161024991906131ea565b60405180910390f35b61026c60048036038101906102679190612f6e565b610b45565b6040516102799190613278565b60405180910390f35b61029c60048036038101906102979190613293565b610bf8565b6040516102b49c9b9a99989796959493929190613392565b60405180910390f35b6102d760048036038101906102d29190612f6e565b610e64565b6040516102e491906131ea565b60405180910390f35b61030760048036038101906103029190613461565b61165f565b005b610323600480360381019061031e9190612d7b565b611bf3565b604051610334959493929190613526565b60405180910390f35b61035760048036038101906103529190612d7b565b611e69565b604051610368959493929190613526565b60405180910390f35b61038b60048036038101906103869190612e08565b61218a565b6040516103a39c9b9a99989796959493929190613392565b60405180910390f35b6103b46123e9565b6040516103c19190612dc1565b60405180910390f35b6103e460048036038101906103df9190612d7b565b6123ef565b6040516103f696959493929190612edd565b60405180910390f35b61040761255b565b6040516104149190612dc1565b60405180910390f35b61043760048036038101906104329190612e08565b612561565b60405161044d9a99989796959493929190613595565b60405180910390f35b610470600480360381019061046b919061363f565b612a51565b604051610481959493929190613526565b60405180910390f35b610492612baf565b60405161049f9190612dc1565b60405180910390f35b6104c260048036038101906104bd9190612e08565b612bb5565b6040516104cf9190612dc1565b60405180910390f35b6104f260048036038101906104ed9190612e08565b612bcd565b6040516104ff919061372a565b60405180910390f35b60066020528060005260406000206000915090505481565b60016020528060005260406000206000915090508060000154908060010160009054906101000a900473ffffffffffffffffffffffffffffffffffffffff169080600201805461056f90613774565b80601f016020809104026020016040519081016040528092919081815260200182805461059b90613774565b80156105e85780601f106105bd576101008083540402835291602001916105e8565b820191906000526020600020905b8154815290600101906020018083116105cb57829003601f168201915b5050505050908060030180546105fd90613774565b80601f016020809104026020016040519081016040528092919081815260200182805461062990613774565b80156106765780601f1061064b57610100808354040283529160200191610676565b820191906000526020600020905b81548152906001019060200180831161065957829003601f168201915b5050505050908060040154908060050154905086565b6000805461069990613774565b80601f01602080910402602001604051908101604052809291908181526020018280546106c590613774565b80156107125780601f106106e757610100808354040283529160200191610712565b820191906000526020600020905b8154815290600101906020018083116106f557829003601f168201915b505050505081565b6007602052816000526040600020602052806000526040600020600091509150508060000154908060010154908060020154908060030160009054906101000a900473ffffffffffffffffffffffffffffffffffffffff16905084565b60056020528060005260406000206000915090505481565b60003360016000600560008473ffffffffffffffffffffffffffffffffffffffff1673ffffffffffffffffffffffffffffffffffffffff16815260200190815260200160002054815260200190815260200160002060010160009054906101000a900473ffffffffffffffffffffffffffffffffffffffff1673ffffffffffffffffffffffffffffffffffffffff168173ffffffffffffffffffffffffffffffffffffffff161415610876576040517f08c379a000000000000000000000000000000000000000000000000000000000815260040161086d906137f2565b60405180910390fd5b6001600c60008282546108899190613841565b925050819055506040518060c00160405280600c5481526020013373ffffffffffffffffffffffffffffffffffffffff16815260200186815260200184815260200160008152602001600081525060016000600c5481526020019081526020016000206000820151816000015560208201518160010160006101000a81548173ffffffffffffffffffffffffffffffffffffffff021916908373ffffffffffffffffffffffffffffffffffffffff1602179055506040820151816002019080519060200190610959929190612c28565b506060820151816003019080519060200190610976929190612c28565b506080820151816004015560a082015181600501559050506040518060c00160405280600c5481526020013373ffffffffffffffffffffffffffffffffffffffff168152602001868152602001848152602001600081526020016000815250600260003373ffffffffffffffffffffffffffffffffffffffff1673ffffffffffffffffffffffffffffffffffffffff1681526020019081526020016000206000820151816000015560208201518160010160006101000a81548173ffffffffffffffffffffffffffffffffffffffff021916908373ffffffffffffffffffffffffffffffffffffffff1602179055506040820151816002019080519060200190610a81929190612c28565b506060820151816003019080519060200190610a9e929190612c28565b506080820151816004015560a08201518160050155905050600c54600560003373ffffffffffffffffffffffffffffffffffffffff1673ffffffffffffffffffffffffffffffffffffffff168152602001908152602001600020819055507fe8253acf656dc8347730e5bac58063299c552725b3a12635eed3d481d55bac1f33868686604051610b319493929190613897565b60405180910390a160019150509392505050565b610b4d612cae565b6007600084815260200190815260200160002060008381526020019081526020016000206040518060800160405290816000820154815260200160018201548152602001600282015481526020016003820160009054906101000a900473ffffffffffffffffffffffffffffffffffffffff1673ffffffffffffffffffffffffffffffffffffffff1673ffffffffffffffffffffffffffffffffffffffff1681525050905092915050565b600360205281600052604060002060205280600052604060002060009150915050806000015490806001018054610c2e90613774565b80601f0160208091040260200160405190810160405280929190818152602001828054610c5a90613774565b8015610ca75780601f10610c7c57610100808354040283529160200191610ca7565b820191906000526020600020905b815481529060010190602001808311610c8a57829003601f168201915b505050505090806002018054610cbc90613774565b80601f0160208091040260200160405190810160405280929190818152602001828054610ce890613774565b8015610d355780601f10610d0a57610100808354040283529160200191610d35565b820191906000526020600020905b815481529060010190602001808311610d1857829003601f168201915b505050505090806003018054610d4a90613774565b80601f0160208091040260200160405190810160405280929190818152602001828054610d7690613774565b8015610dc35780601f10610d9857610100808354040283529160200191610dc3565b820191906000526020600020905b815481529060010190602001808311610da657829003601f168201915b5050505050908060040154908060050154908060060154908060070160009054906101000a900473ffffffffffffffffffffffffffffffffffffffff16908060080160009054906101000a900473ffffffffffffffffffffffffffffffffffffffff16908060080160149054906101000a900460ff16908060080160159054906101000a900460ff16908060080160169054906101000a900460ff1690508c565b6000610e7c6001600e54612c0090919063ffffffff16565b600e819055506040518060800160405280600e5481526020018481526020018381526020013373ffffffffffffffffffffffffffffffffffffffff16815250600760008581526020019081526020016000206000600e54815260200190815260200160002060008201518160000155602082015181600101556040820151816002015560608201518160030160006101000a81548173ffffffffffffffffffffffffffffffffffffffff021916908373ffffffffffffffffffffffffffffffffffffffff1602179055509050506001600860008581526020019081526020016000206000828254610f6d9190613841565b925050819055506000600960003373ffffffffffffffffffffffffffffffffffffffff1673ffffffffffffffffffffffffffffffffffffffff1681526020019081526020016000206040518060a00160405290816000820160009054906101000a900473ffffffffffffffffffffffffffffffffffffffff1673ffffffffffffffffffffffffffffffffffffffff1673ffffffffffffffffffffffffffffffffffffffff16815260200160018201805461102690613774565b80601f016020809104026020016040519081016040528092919081815260200182805461105290613774565b801561109f5780601f106110745761010080835404028352916020019161109f565b820191906000526020600020905b81548152906001019060200180831161108257829003601f168201915b505050505081526020016002820180546110b890613774565b80601f01602080910402602001604051908101604052809291908181526020018280546110e490613774565b80156111315780601f1061110657610100808354040283529160200191611131565b820191906000526020600020905b81548152906001019060200180831161111457829003601f168201915b5050505050815260200160038201805461114a90613774565b80601f016020809104026020016040519081016040528092919081815260200182805461117690613774565b80156111c35780601f10611198576101008083540402835291602001916111c3565b820191906000526020600020905b8154815290600101906020018083116111a657829003601f168201915b505050505081526020016004820180546111dc90613774565b80601f016020809104026020016040519081016040528092919081815260200182805461120890613774565b80156112555780601f1061122a57610100808354040283529160200191611255565b820191906000526020600020905b81548152906001019060200180831161123857829003601f168201915b505050505081525050905060006004600086815260200190815260200160002060009054906101000a900473ffffffffffffffffffffffffffffffffffffffff1690506000600360008373ffffffffffffffffffffffffffffffffffffffff1673ffffffffffffffffffffffffffffffffffffffff1681526020019081526020016000206000878152602001908152602001600020604051806101800160405290816000820154815260200160018201805461131090613774565b80601f016020809104026020016040519081016040528092919081815260200182805461133c90613774565b80156113895780601f1061135e57610100808354040283529160200191611389565b820191906000526020600020905b81548152906001019060200180831161136c57829003601f168201915b505050505081526020016002820180546113a290613774565b80601f01602080910402602001604051908101604052809291908181526020018280546113ce90613774565b801561141b5780601f106113f05761010080835404028352916020019161141b565b820191906000526020600020905b8154815290600101906020018083116113fe57829003601f168201915b5050505050815260200160038201805461143490613774565b80601f016020809104026020016040519081016040528092919081815260200182805461146090613774565b80156114ad5780601f10611482576101008083540402835291602001916114ad565b820191906000526020600020905b81548152906001019060200180831161149057829003601f168201915b505050505081526020016004820154815260200160058201548152602001600682015481526020016007820160009054906101000a900473ffffffffffffffffffffffffffffffffffffffff1673ffffffffffffffffffffffffffffffffffffffff1673ffffffffffffffffffffffffffffffffffffffff1681526020016008820160009054906101000a900473ffffffffffffffffffffffffffffffffffffffff1673ffffffffffffffffffffffffffffffffffffffff1673ffffffffffffffffffffffffffffffffffffffff1681526020016008820160149054906101000a900460ff1660018111156115a5576115a46132d3565b5b60018111156115b7576115b66132d3565b5b81526020016008820160159054906101000a900460ff1660048111156115e0576115df6132d3565b5b60048111156115f2576115f16132d3565b5b81526020016008820160169054906101000a900460ff16151515158152505090507f2cda2879f47b1beb6143213ed4f8f5dff974f8f4a072f0264e23a5e3afce8a76600e5482878660405161164a9493929190613b05565b60405180910390a16001935050505092915050565b6116756001600d54612c0090919063ffffffff16565b600d819055506000604051806101800160405280600d5481526020018881526020018781526020016040518060400160405280600581526020017f656d7074790000000000000000000000000000000000000000000000000000008152508152602001868152602001858152602001848152602001600073ffffffffffffffffffffffffffffffffffffffff1681526020013373ffffffffffffffffffffffffffffffffffffffff168152602001836001811115611736576117356132d3565b5b6001811115611748576117476132d3565b5b815260200160006004811115611761576117606132d3565b5b815260200160011515815250905080600360003373ffffffffffffffffffffffffffffffffffffffff1673ffffffffffffffffffffffffffffffffffffffff1681526020019081526020016000206000600d5481526020019081526020016000206000820151816000015560208201518160010190805190602001906117e8929190612c28565b506040820151816002019080519060200190611805929190612c28565b506060820151816003019080519060200190611822929190612c28565b506080820151816004015560a0820151816005015560c0820151816006015560e08201518160070160006101000a81548173ffffffffffffffffffffffffffffffffffffffff021916908373ffffffffffffffffffffffffffffffffffffffff1602179055506101008201518160080160006101000a81548173ffffffffffffffffffffffffffffffffffffffff021916908373ffffffffffffffffffffffffffffffffffffffff1602179055506101208201518160080160146101000a81548160ff021916908360018111156118fc576118fb6132d3565b5b02179055506101408201518160080160156101000a81548160ff0219169083600481111561192d5761192c6132d3565b5b02179055506101608201518160080160166101000a81548160ff0219169083151502179055509050503360046000600d54815260200190815260200160002060006101000a81548173ffffffffffffffffffffffffffffffffffffffff021916908373ffffffffffffffffffffffffffffffffffffffff16021790555080600a6000600d5481526020019081526020016000206000820151816000015560208201518160010190805190602001906119e6929190612c28565b506040820151816002019080519060200190611a03929190612c28565b506060820151816003019080519060200190611a20929190612c28565b506080820151816004015560a0820151816005015560c0820151816006015560e08201518160070160006101000a81548173ffffffffffffffffffffffffffffffffffffffff021916908373ffffffffffffffffffffffffffffffffffffffff1602179055506101008201518160080160006101000a81548173ffffffffffffffffffffffffffffffffffffffff021916908373ffffffffffffffffffffffffffffffffffffffff1602179055506101208201518160080160146101000a81548160ff02191690836001811115611afa57611af96132d3565b5b02179055506101408201518160080160156101000a81548160ff02191690836004811115611b2b57611b2a6132d3565b5b02179055506101608201518160080160166101000a81548160ff021916908315150217905550905050611ba76001600660003373ffffffffffffffffffffffffffffffffffffffff1673ffffffffffffffffffffffffffffffffffffffff16815260200190815260200160002054612c0090919063ffffffff16565b600660003373ffffffffffffffffffffffffffffffffffffffff1673ffffffffffffffffffffffffffffffffffffffff1681526020019081526020016000208190555050505050505050565b60096020528060005260406000206000915090508060000160009054906101000a900473ffffffffffffffffffffffffffffffffffffffff1690806001018054611c3c90613774565b80601f0160208091040260200160405190810160405280929190818152602001828054611c6890613774565b8015611cb55780601f10611c8a57610100808354040283529160200191611cb5565b820191906000526020600020905b815481529060010190602001808311611c9857829003601f168201915b505050505090806002018054611cca90613774565b80601f0160208091040260200160405190810160405280929190818152602001828054611cf690613774565b8015611d435780601f10611d1857610100808354040283529160200191611d43565b820191906000526020600020905b815481529060010190602001808311611d2657829003601f168201915b505050505090806003018054611d5890613774565b80601f0160208091040260200160405190810160405280929190818152602001828054611d8490613774565b8015611dd15780601f10611da657610100808354040283529160200191611dd1565b820191906000526020600020905b815481529060010190602001808311611db457829003601f168201915b505050505090806004018054611de690613774565b80601f0160208091040260200160405190810160405280929190818152602001828054611e1290613774565b8015611e5f5780601f10611e3457610100808354040283529160200191611e5f565b820191906000526020600020905b815481529060010190602001808311611e4257829003601f168201915b5050505050905085565b60006060806060806000600960008873ffffffffffffffffffffffffffffffffffffffff1673ffffffffffffffffffffffffffffffffffffffff1681526020019081526020016000206040518060a00160405290816000820160009054906101000a900473ffffffffffffffffffffffffffffffffffffffff1673ffffffffffffffffffffffffffffffffffffffff1673ffffffffffffffffffffffffffffffffffffffff168152602001600182018054611f2390613774565b80601f0160208091040260200160405190810160405280929190818152602001828054611f4f90613774565b8015611f9c5780601f10611f7157610100808354040283529160200191611f9c565b820191906000526020600020905b815481529060010190602001808311611f7f57829003601f168201915b50505050508152602001600282018054611fb590613774565b80601f0160208091040260200160405190810160405280929190818152602001828054611fe190613774565b801561202e5780601f106120035761010080835404028352916020019161202e565b820191906000526020600020905b81548152906001019060200180831161201157829003601f168201915b5050505050815260200160038201805461204790613774565b80601f016020809104026020016040519081016040528092919081815260200182805461207390613774565b80156120c05780601f10612095576101008083540402835291602001916120c0565b820191906000526020600020905b8154815290600101906020018083116120a357829003601f168201915b505050505081526020016004820180546120d990613774565b80601f016020809104026020016040519081016040528092919081815260200182805461210590613774565b80156121525780601f1061212757610100808354040283529160200191612152565b820191906000526020600020905b81548152906001019060200180831161213557829003601f168201915b505050505081525050905080600001518160200151826040015183606001518460800151955095509550955095505091939590929450565b600a6020528060005260406000206000915090508060000154908060010180546121b390613774565b80601f01602080910402602001604051908101604052809291908181526020018280546121df90613774565b801561222c5780601f106122015761010080835404028352916020019161222c565b820191906000526020600020905b81548152906001019060200180831161220f57829003601f168201915b50505050509080600201805461224190613774565b80601f016020809104026020016040519081016040528092919081815260200182805461226d90613774565b80156122ba5780601f1061228f576101008083540402835291602001916122ba565b820191906000526020600020905b81548152906001019060200180831161229d57829003601f168201915b5050505050908060030180546122cf90613774565b80601f01602080910402602001604051908101604052809291908181526020018280546122fb90613774565b80156123485780601f1061231d57610100808354040283529160200191612348565b820191906000526020600020905b81548152906001019060200180831161232b57829003601f168201915b5050505050908060040154908060050154908060060154908060070160009054906101000a900473ffffffffffffffffffffffffffffffffffffffff16908060080160009054906101000a900473ffffffffffffffffffffffffffffffffffffffff16908060080160149054906101000a900460ff16908060080160159054906101000a900460ff16908060080160169054906101000a900460ff1690508c565b600c5481565b60026020528060005260406000206000915090508060000154908060010160009054906101000a900473ffffffffffffffffffffffffffffffffffffffff169080600201805461243e90613774565b80601f016020809104026020016040519081016040528092919081815260200182805461246a90613774565b80156124b75780601f1061248c576101008083540402835291602001916124b7565b820191906000526020600020905b81548152906001019060200180831161249a57829003601f168201915b5050505050908060030180546124cc90613774565b80601f01602080910402602001604051908101604052809291908181526020018280546124f890613774565b80156125455780601f1061251a57610100808354040283529160200191612545565b820191906000526020600020905b81548152906001019060200180831161252857829003601f168201915b5050505050908060040154908060050154905086565b600e5481565b600060608060008060008060008060008a600360006004600084815260200190815260200160002060009054906101000a900473ffffffffffffffffffffffffffffffffffffffff1673ffffffffffffffffffffffffffffffffffffffff1673ffffffffffffffffffffffffffffffffffffffff168152602001908152602001600020600082815260200190815260200160002060080160169054906101000a900460ff16612645576040517f08c379a000000000000000000000000000000000000000000000000000000000815260040161263c90613ba4565b60405180910390fd5b6000600460008e815260200190815260200160002060009054906101000a900473ffffffffffffffffffffffffffffffffffffffff1690506000600360008373ffffffffffffffffffffffffffffffffffffffff1673ffffffffffffffffffffffffffffffffffffffff16815260200190815260200160002060008f815260200190815260200160002060405180610180016040529081600082015481526020016001820180546126f590613774565b80601f016020809104026020016040519081016040528092919081815260200182805461272190613774565b801561276e5780601f106127435761010080835404028352916020019161276e565b820191906000526020600020905b81548152906001019060200180831161275157829003601f168201915b5050505050815260200160028201805461278790613774565b80601f01602080910402602001604051908101604052809291908181526020018280546127b390613774565b80156128005780601f106127d557610100808354040283529160200191612800565b820191906000526020600020905b8154815290600101906020018083116127e357829003601f168201915b5050505050815260200160038201805461281990613774565b80601f016020809104026020016040519081016040528092919081815260200182805461284590613774565b80156128925780601f1061286757610100808354040283529160200191612892565b820191906000526020600020905b81548152906001019060200180831161287557829003601f168201915b505050505081526020016004820154815260200160058201548152602001600682015481526020016007820160009054906101000a900473ffffffffffffffffffffffffffffffffffffffff1673ffffffffffffffffffffffffffffffffffffffff1673ffffffffffffffffffffffffffffffffffffffff1681526020016008820160009054906101000a900473ffffffffffffffffffffffffffffffffffffffff1673ffffffffffffffffffffffffffffffffffffffff1673ffffffffffffffffffffffffffffffffffffffff1681526020016008820160149054906101000a900460ff16600181111561298a576129896132d3565b5b600181111561299c5761299b6132d3565b5b81526020016008820160159054906101000a900460ff1660048111156129c5576129c46132d3565b5b60048111156129d7576129d66132d3565b5b81526020016008820160169054906101000a900460ff161515151581525050905080600001518160200151826040015183608001518460a001518560c001518660e001518761010001518861012001518961014001519c509c509c509c509c509c509c509c509c509c505050509193959799509193959799565b60006060806060806040518060a001604052808b73ffffffffffffffffffffffffffffffffffffffff1681526020018a815260200189815260200188815260200187815250600960008c73ffffffffffffffffffffffffffffffffffffffff1673ffffffffffffffffffffffffffffffffffffffff16815260200190815260200160002060008201518160000160006101000a81548173ffffffffffffffffffffffffffffffffffffffff021916908373ffffffffffffffffffffffffffffffffffffffff1602179055506020820151816001019080519060200190612b38929190612c28565b506040820151816002019080519060200190612b55929190612c28565b506060820151816003019080519060200190612b72929190612c28565b506080820151816004019080519060200190612b8f929190612c28565b509050508989898989945094509450945094509550955095509550959050565b600d5481565b60086020528060005260406000206000915090505481565b60046020528060005260406000206000915054906101000a900473ffffffffffffffffffffffffffffffffffffffff1681565b6000808284612c0f9190613841565b905083811015612c1e57600080fd5b8091505092915050565b828054612c3490613774565b90600052602060002090601f016020900481019282612c565760008555612c9d565b82601f10612c6f57805160ff1916838001178555612c9d565b82800160010185558215612c9d579182015b82811115612c9c578251825591602001919060010190612c81565b5b509050612caa9190612cec565b5090565b6040518060800160405280600081526020016000815260200160008152602001600073ffffffffffffffffffffffffffffffffffffffff1681525090565b5b80821115612d05576000816000905550600101612ced565b5090565b6000604051905090565b600080fd5b600080fd5b600073ffffffffffffffffffffffffffffffffffffffff82169050919050565b6000612d4882612d1d565b9050919050565b612d5881612d3d565b8114612d6357600080fd5b50565b600081359050612d7581612d4f565b92915050565b600060208284031215612d9157612d90612d13565b5b6000612d9f84828501612d66565b91505092915050565b6000819050919050565b612dbb81612da8565b82525050565b6000602082019050612dd66000830184612db2565b92915050565b612de581612da8565b8114612df057600080fd5b50565b600081359050612e0281612ddc565b92915050565b600060208284031215612e1e57612e1d612d13565b5b6000612e2c84828501612df3565b91505092915050565b612e3e81612d3d565b82525050565b600081519050919050565b600082825260208201905092915050565b60005b83811015612e7e578082015181840152602081019050612e63565b83811115612e8d576000848401525b50505050565b6000601f19601f8301169050919050565b6000612eaf82612e44565b612eb98185612e4f565b9350612ec9818560208601612e60565b612ed281612e93565b840191505092915050565b600060c082019050612ef26000830189612db2565b612eff6020830188612e35565b8181036040830152612f118187612ea4565b90508181036060830152612f258186612ea4565b9050612f346080830185612db2565b612f4160a0830184612db2565b979650505050505050565b60006020820190508181036000830152612f668184612ea4565b905092915050565b60008060408385031215612f8557612f84612d13565b5b6000612f9385828601612df3565b9250506020612fa485828601612df3565b9150509250929050565b6000608082019050612fc36000830187612db2565b612fd06020830186612db2565b612fdd6040830185612db2565b612fea6060830184612e35565b95945050505050565b600080fd5b600080fd5b7f4e487b7100000000000000000000000000000000000000000000000000000000600052604160045260246000fd5b61303582612e93565b810181811067ffffffffffffffff8211171561305457613053612ffd565b5b80604052505050565b6000613067612d09565b9050613073828261302c565b919050565b600067ffffffffffffffff82111561309357613092612ffd565b5b61309c82612e93565b9050602081019050919050565b82818337600083830152505050565b60006130cb6130c684613078565b61305d565b9050828152602081018484840111156130e7576130e6612ff8565b5b6130f28482856130a9565b509392505050565b600082601f83011261310f5761310e612ff3565b5b813561311f8482602086016130b8565b91505092915050565b60008060006060848603121561314157613140612d13565b5b600084013567ffffffffffffffff81111561315f5761315e612d18565b5b61316b868287016130fa565b935050602084013567ffffffffffffffff81111561318c5761318b612d18565b5b613198868287016130fa565b925050604084013567ffffffffffffffff8111156131b9576131b8612d18565b5b6131c5868287016130fa565b9150509250925092565b60008115159050919050565b6131e4816131cf565b82525050565b60006020820190506131ff60008301846131db565b92915050565b61320e81612da8565b82525050565b61321d81612d3d565b82525050565b6080820160008201516132396000850182613205565b50602082015161324c6020850182613205565b50604082015161325f6040850182613205565b5060608201516132726060850182613214565b50505050565b600060808201905061328d6000830184613223565b92915050565b600080604083850312156132aa576132a9612d13565b5b60006132b885828601612d66565b92505060206132c985828601612df3565b9150509250929050565b7f4e487b7100000000000000000000000000000000000000000000000000000000600052602160045260246000fd5b60028110613313576133126132d3565b5b50565b600081905061332482613302565b919050565b600061333482613316565b9050919050565b61334481613329565b82525050565b6005811061335b5761335a6132d3565b5b50565b600081905061336c8261334a565b919050565b600061337c8261335e565b9050919050565b61338c81613371565b82525050565b6000610180820190506133a8600083018f612db2565b81810360208301526133ba818e612ea4565b905081810360408301526133ce818d612ea4565b905081810360608301526133e2818c612ea4565b90506133f1608083018b612db2565b6133fe60a083018a612db2565b61340b60c0830189612db2565b61341860e0830188612e35565b613426610100830187612e35565b61343461012083018661333b565b613442610140830185613383565b6134506101608301846131db565b9d9c50505050505050505050505050565b60008060008060008060c0878903121561347e5761347d612d13565b5b600087013567ffffffffffffffff81111561349c5761349b612d18565b5b6134a889828a016130fa565b965050602087013567ffffffffffffffff8111156134c9576134c8612d18565b5b6134d589828a016130fa565b95505060406134e689828a01612df3565b94505060606134f789828a01612df3565b935050608061350889828a01612df3565b92505060a061351989828a01612df3565b9150509295509295509295565b600060a08201905061353b6000830188612e35565b818103602083015261354d8187612ea4565b905081810360408301526135618186612ea4565b905081810360608301526135758185612ea4565b905081810360808301526135898184612ea4565b90509695505050505050565b6000610140820190506135ab600083018d612db2565b81810360208301526135bd818c612ea4565b905081810360408301526135d1818b612ea4565b90506135e0606083018a612db2565b6135ed6080830189612db2565b6135fa60a0830188612db2565b61360760c0830187612e35565b61361460e0830186612e35565b61362261010083018561333b565b613630610120830184613383565b9b9a5050505050505050505050565b600080600080600060a0868803121561365b5761365a612d13565b5b600061366988828901612d66565b955050602086013567ffffffffffffffff81111561368a57613689612d18565b5b613696888289016130fa565b945050604086013567ffffffffffffffff8111156136b7576136b6612d18565b5b6136c3888289016130fa565b935050606086013567ffffffffffffffff8111156136e4576136e3612d18565b5b6136f0888289016130fa565b925050608086013567ffffffffffffffff81111561371157613710612d18565b5b61371d888289016130fa565b9150509295509295909350565b600060208201905061373f6000830184612e35565b92915050565b7f4e487b7100000000000000000000000000000000000000000000000000000000600052602260045260246000fd5b6000600282049050600182168061378c57607f821691505b602082108114156137a05761379f613745565b5b50919050565b7f5573657220616c72656164792068617320612073746f72650000000000000000600082015250565b60006137dc601883612e4f565b91506137e7826137a6565b602082019050919050565b6000602082019050818103600083015261380b816137cf565b9050919050565b7f4e487b7100000000000000000000000000000000000000000000000000000000600052601160045260246000fd5b600061384c82612da8565b915061385783612da8565b9250827fffffffffffffffffffffffffffffffffffffffffffffffffffffffffffffffff0382111561388c5761388b613812565b5b828201905092915050565b60006080820190506138ac6000830187612e35565b81810360208301526138be8186612ea4565b905081810360408301526138d28185612ea4565b905081810360608301526138e68184612ea4565b905095945050505050565b600082825260208201905092915050565b600061390d82612e44565b61391781856138f1565b9350613927818560208601612e60565b61393081612e93565b840191505092915050565b61394481613329565b82525050565b61395381613371565b82525050565b613962816131cf565b82525050565b6000610180830160008301516139816000860182613205565b50602083015184820360208601526139998282613902565b915050604083015184820360408601526139b38282613902565b915050606083015184820360608601526139cd8282613902565b91505060808301516139e26080860182613205565b5060a08301516139f560a0860182613205565b5060c0830151613a0860c0860182613205565b5060e0830151613a1b60e0860182613214565b50610100830151613a30610100860182613214565b50610120830151613a4561012086018261393b565b50610140830151613a5a61014086018261394a565b50610160830151613a6f610160860182613959565b508091505092915050565b600060a083016000830151613a926000860182613214565b5060208301518482036020860152613aaa8282613902565b91505060408301518482036040860152613ac48282613902565b91505060608301518482036060860152613ade8282613902565b91505060808301518482036080860152613af88282613902565b9150508091505092915050565b6000608082019050613b1a6000830187612db2565b8181036020830152613b2c8186613968565b9050613b3b6040830185612db2565b8181036060830152613b4d8184613a7a565b905095945050505050565b7f50726f64756374206e6f7420666f756e642e0000000000000000000000000000600082015250565b6000613b8e601283612e4f565b9150613b9982613b58565b602082019050919050565b60006020820190508181036000830152613bbd81613b81565b905091905056fea2646970667358221220293af88e8c3b7860ffb82206aad288873bf1f83ad3b060e8d65fdd005792e80064736f6c634300080a0033",
  "immutableReferences": {},
  "source": "pragma solidity >=0.4.22 <0.9.0;\npragma experimental ABIEncoderV2;\n\nimport \"./SafeMath.sol\";\n\ncontract Auction {\n    using SafeMath for uint256;\n\n    string public name = \"Auction\";\n\n    mapping (uint => Store) public storesById;                   // Stores by id\n    mapping (address => Store) public storesByAddress;                   // Stores by id\n    mapping (address => mapping(uint => Product)) public stores; // products by stores\n    mapping (uint => address) public storesByProductId;          // seller address by product id\n    mapping (address => uint) public storesBySellers;            // store by seller address, used to prevent more than one store per user\n    mapping (address => uint) public productCountByStore;        // product count by store\n    mapping (uint => mapping(uint => Bid)) public bidsByProduct;\n    mapping (uint => uint) public bidCountByProduct;\n    mapping (address => User) public usersByAddress;\n    mapping (uint => Product) public productById;\n\n    // events\n    event NewProductAdded(address storeAddress, address productAddress);\n    event NewStoreAdded(\n        address storeAddress,\n        string storeName,\n        string email,\n        string storeFrontImage\n    );\n    event NewBid(uint256 id, Product product, uint256 bidAmount, User bidder);\n\n    modifier OnlyOwner() {\n        require(msg.sender == owner, \"ONLY ADMIN IS ALLOWED\");\n        _;\n    }\n\n    modifier onlyBefore(uint256 _time) {\n        require(block.timestamp < _time);\n        _;\n    }\n\n    modifier onlyAfter(uint256 _time) {\n        require(block.timestamp > _time);\n        _;\n    }\n\n    address owner;\n\n    // constructor\n    constructor() public {}\n\n    // global states\n\n    uint public storesCount = 0;\n    uint public productCount = 0;\n    uint public bidCount = 0;\n\n    // structs\n\n    struct User {\n        address userAddress;\n        string firstName;\n        string lastName;\n        string email;\n        string phoneNumber;\n    }\n\n    // store\n    struct Store{\n        uint storeId;\n        address userAddress;\n        string storeName;   \n        string storeFrontImage;\n        uint256 balance;\n        uint256 productCount;\n    }\n\n    // product\n    enum ProductCondition {\n        New,\n        Used\n    }\n    enum ProductState {\n        ForSale,\n        Sold,\n        Shipped,\n        Received,\n        Deleted\n    }\n    struct Product {\n        uint256 id;\n        string productName; //\n        string category; //\n        string imageLink; //\n        uint256 startTime; //\n        uint256 endTime; //\n        uint256 price; //\n        address buyer;\n        address sellerAddress;\n        ProductCondition productCondition; //\n        ProductState productState; //\n        bool exists;\n    }\n\n    // auction\n    struct Bid {\n        uint256 id;\n        uint256 productId;\n        uint256 bidAmount;\n        address bidderAddress;\n    }\n\n    // create user\n    function addUser(\n        address userAddress,\n        string memory firstName,\n        string memory lastName,\n        string memory email,\n        string memory phoneNumber\n    )\n        public\n        returns (\n            address _userAddress,\n            string memory _firstName,\n            string memory _lastName,\n            string memory _email,\n            string memory _phoneNumber\n        )\n    {\n        usersByAddress[userAddress] = User(\n            userAddress,\n            firstName,\n            lastName,\n            email,\n            phoneNumber\n        );\n        return (userAddress, firstName, lastName, email, phoneNumber);\n    }\n\n    // check user\n    function getUser(address userAddress)\n        public\n        view\n        returns (\n            address _userAddress,\n            string memory _firstName,\n            string memory _lastName,\n            string memory _email,\n            string memory _phoneNumber\n        )\n    {\n        User memory user = usersByAddress[userAddress];\n        return (\n            user.userAddress,\n            user.firstName,\n            user.lastName,\n            user.email,\n            user.phoneNumber\n        );\n    }\n\n    // create bid\n    function placeBid(uint256 productId, uint256 bidAmount)\n        public\n        returns (bool success)\n    {\n        bidCount = bidCount.add(1);\n        bidsByProduct[productId][bidCount] = Bid(bidCount, productId, bidAmount, msg.sender);\n        bidCountByProduct[productId] += 1;\n        User memory bidder = usersByAddress[msg.sender];\n        address x = storesByProductId[productId];\n        Product memory product = stores[x][productId];\n        emit NewBid(bidCount, product, bidAmount, bidder);\n        return true;\n    }\n\n    // get product bids\n    function getProductBids(uint256 productId, uint256 bidId)\n        public\n        returns (Bid memory bids)\n    {\n        return bidsByProduct[productId][bidId];\n    }\n\n    // create store\n    modifier notHaveStore(address sellerAddress) {\n        require(\n            !(sellerAddress ==\n                storesById[storesBySellers[sellerAddress]].userAddress),\n            \"User already has a store\"\n        );\n        _;\n    }\n\n    function addStore(\n        string memory _name,\n        string memory _email,\n        string memory _storeFrontImage\n    ) public notHaveStore(msg.sender) returns (bool) {\n        // require(true);\n        storesCount += 1;\n        storesById[storesCount] = Store(storesCount, msg.sender, _name, _storeFrontImage, 0, 0);\n        storesByAddress[msg.sender] = Store(storesCount, msg.sender, _name, _storeFrontImage, 0, 0);\n        storesBySellers[msg.sender] = storesCount;\n        emit NewStoreAdded(msg.sender, _name, _email, _storeFrontImage);\n        return true;\n    }\n\n    // add product\n    modifier onlyStoreOwner() {\n        require(\n            storesById[storesBySellers[msg.sender]].userAddress == msg.sender,\n            \"You are not the store owner!\"\n        );\n        _;\n    }\n    modifier productExists(uint256 _id) {\n        require(\n            stores[storesByProductId[_id]][_id].exists,\n            \"Product not found.\"\n        );\n        _;\n    }\n\n    function addProduct(\n        string memory _name,\n        string memory _category,\n        uint256 _startTime,\n        uint256 _endTime,\n        uint256 _price,\n        uint256 _productCondition\n    ) public {\n        productCount = productCount.add(1);\n\n        Product memory product = Product(\n            productCount,\n            _name,\n            _category,\n            \"empty\",\n            _startTime,\n            _endTime,\n            _price,\n            address(0),\n            msg.sender,\n            ProductCondition(_productCondition),\n            ProductState.ForSale,\n            true\n        );\n\n        stores[msg.sender][productCount] = product;\n        storesByProductId[productCount] = msg.sender;\n        productById[productCount] = product;\n        // update product count by store\n        productCountByStore[msg.sender] = productCountByStore[msg.sender].add(\n            1\n        );\n    }\n\n    // get product\n    function getProduct(uint256 _id)\n        public\n        view\n        productExists(_id)\n        returns (\n            uint256 id,\n            string memory productName,\n            string memory category,\n            uint256 startTime,\n            uint256 endTime,\n            uint256 price,\n            address buyer,\n            address sellerAddress,\n            ProductCondition condition,\n            ProductState productState\n        )\n    {\n        address x = storesByProductId[_id];\n\n        Product memory product = stores[x][_id]; // load product from memory\n        return (\n            product.id,\n            product.productName,\n            product.category,\n            product.startTime,\n            product.endTime,\n            product.price,\n            product.buyer,\n            product.sellerAddress,\n            product.productCondition,\n            product.productState\n        );\n    }\n}\n",
  "sourcePath": "/home/rediet/Documents/custom-auction/auction-blockchain-main/Truffle/contracts/Auction.sol",
  "compiler": {
    "name": "solc",
    "version": "0.8.10+commit.fc410830.Emscripten.clang"
  },
  "schemaVersion": "3.4.4",
  "updatedAt": "2022-01-13T12:49:24.818Z",
  "networkType": "ethereum",
  "devdoc": {
    "kind": "dev",
    "methods": {},
    "version": 1
  },
  "userdoc": {
    "kind": "user",
    "methods": {},
    "version": 1
  }
}