{
  "contractName": "Auction",
  "abi": [
    {
      "inputs": [],
      "stateMutability": "nonpayable",
      "type": "constructor"
    },
    {
      "anonymous": false,
      "inputs": [
        {
          "indexed": false,
          "internalType": "uint256",
          "name": "id",
          "type": "uint256"
        },
        {
          "indexed": false,
          "internalType": "uint256",
          "name": "product",
          "type": "uint256"
        },
        {
          "indexed": false,
          "internalType": "uint256",
          "name": "bidAmount",
          "type": "uint256"
        },
        {
          "indexed": false,
          "internalType": "address",
          "name": "bidder",
          "type": "address"
        }
      ],
      "name": "NewBid",
      "type": "event"
    },
    {
      "anonymous": false,
      "inputs": [
        {
          "indexed": false,
          "internalType": "address",
          "name": "storeAddress",
          "type": "address"
        },
        {
          "indexed": false,
          "internalType": "address",
          "name": "productAddress",
          "type": "address"
        }
      ],
      "name": "NewProductAdded",
      "type": "event"
    },
    {
      "anonymous": false,
      "inputs": [
        {
          "indexed": false,
          "internalType": "address",
          "name": "storeAddress",
          "type": "address"
        },
        {
          "indexed": false,
          "internalType": "string",
          "name": "storeName",
          "type": "string"
        },
        {
          "indexed": false,
          "internalType": "string",
          "name": "email",
          "type": "string"
        },
        {
          "indexed": false,
          "internalType": "string",
          "name": "storeFrontImage",
          "type": "string"
        }
      ],
      "name": "NewStoreAdded",
      "type": "event"
    },
    {
      "inputs": [],
      "name": "bidCount",
      "outputs": [
        {
          "internalType": "uint256",
          "name": "",
          "type": "uint256"
        }
      ],
      "stateMutability": "view",
      "type": "function",
      "constant": true
    },
    {
      "inputs": [
        {
          "internalType": "uint256",
          "name": "",
          "type": "uint256"
        }
      ],
      "name": "bidCountByProduct",
      "outputs": [
        {
          "internalType": "uint256",
          "name": "",
          "type": "uint256"
        }
      ],
      "stateMutability": "view",
      "type": "function",
      "constant": true
    },
    {
      "inputs": [
        {
          "internalType": "uint256",
          "name": "",
          "type": "uint256"
        },
        {
          "internalType": "uint256",
          "name": "",
          "type": "uint256"
        }
      ],
      "name": "bidsByProduct",
      "outputs": [
        {
          "internalType": "uint256",
          "name": "id",
          "type": "uint256"
        },
        {
          "internalType": "uint256",
          "name": "productId",
          "type": "uint256"
        },
        {
          "internalType": "uint256",
          "name": "bidAmount",
          "type": "uint256"
        },
        {
          "internalType": "address",
          "name": "bidderAddress",
          "type": "address"
        }
      ],
      "stateMutability": "view",
      "type": "function",
      "constant": true
    },
    {
      "inputs": [],
      "name": "name",
      "outputs": [
        {
          "internalType": "string",
          "name": "",
          "type": "string"
        }
      ],
      "stateMutability": "view",
      "type": "function",
      "constant": true
    },
    {
      "inputs": [
        {
          "internalType": "uint256",
          "name": "",
          "type": "uint256"
        }
      ],
      "name": "productById",
      "outputs": [
        {
          "internalType": "uint256",
          "name": "id",
          "type": "uint256"
        },
        {
          "internalType": "string",
          "name": "productName",
          "type": "string"
        },
        {
          "internalType": "string",
          "name": "category",
          "type": "string"
        },
        {
          "internalType": "string",
          "name": "imageLink",
          "type": "string"
        },
        {
          "internalType": "uint256",
          "name": "startTime",
          "type": "uint256"
        },
        {
          "internalType": "uint256",
          "name": "endTime",
          "type": "uint256"
        },
        {
          "internalType": "uint256",
          "name": "price",
          "type": "uint256"
        },
        {
          "internalType": "address",
          "name": "buyer",
          "type": "address"
        },
        {
          "internalType": "address",
          "name": "sellerAddress",
          "type": "address"
        },
        {
          "internalType": "enum Auction.ProductCondition",
          "name": "productCondition",
          "type": "uint8"
        },
        {
          "internalType": "enum Auction.ProductState",
          "name": "productState",
          "type": "uint8"
        }
      ],
      "stateMutability": "view",
      "type": "function",
      "constant": true
    },
    {
      "inputs": [],
      "name": "productCount",
      "outputs": [
        {
          "internalType": "uint256",
          "name": "",
          "type": "uint256"
        }
      ],
      "stateMutability": "view",
      "type": "function",
      "constant": true
    },
    {
      "inputs": [
        {
          "internalType": "address",
          "name": "",
          "type": "address"
        }
      ],
      "name": "productCountByStore",
      "outputs": [
        {
          "internalType": "uint256",
          "name": "",
          "type": "uint256"
        }
      ],
      "stateMutability": "view",
      "type": "function",
      "constant": true
    },
    {
      "inputs": [
        {
          "internalType": "address",
          "name": "",
          "type": "address"
        },
        {
          "internalType": "uint256",
          "name": "",
          "type": "uint256"
        }
      ],
      "name": "stores",
      "outputs": [
        {
          "internalType": "uint256",
          "name": "id",
          "type": "uint256"
        },
        {
          "internalType": "string",
          "name": "productName",
          "type": "string"
        },
        {
          "internalType": "string",
          "name": "category",
          "type": "string"
        },
        {
          "internalType": "string",
          "name": "imageLink",
          "type": "string"
        },
        {
          "internalType": "uint256",
          "name": "startTime",
          "type": "uint256"
        },
        {
          "internalType": "uint256",
          "name": "endTime",
          "type": "uint256"
        },
        {
          "internalType": "uint256",
          "name": "price",
          "type": "uint256"
        },
        {
          "internalType": "address",
          "name": "buyer",
          "type": "address"
        },
        {
          "internalType": "address",
          "name": "sellerAddress",
          "type": "address"
        },
        {
          "internalType": "enum Auction.ProductCondition",
          "name": "productCondition",
          "type": "uint8"
        },
        {
          "internalType": "enum Auction.ProductState",
          "name": "productState",
          "type": "uint8"
        }
      ],
      "stateMutability": "view",
      "type": "function",
      "constant": true
    },
    {
      "inputs": [
        {
          "internalType": "address",
          "name": "",
          "type": "address"
        }
      ],
      "name": "storesByAddress",
      "outputs": [
        {
          "internalType": "uint256",
          "name": "storeId",
          "type": "uint256"
        },
        {
          "internalType": "address",
          "name": "userAddress",
          "type": "address"
        },
        {
          "internalType": "string",
          "name": "storeName",
          "type": "string"
        },
        {
          "internalType": "string",
          "name": "storeFrontImage",
          "type": "string"
        },
        {
          "internalType": "uint256",
          "name": "balance",
          "type": "uint256"
        },
        {
          "internalType": "uint256",
          "name": "productCount",
          "type": "uint256"
        }
      ],
      "stateMutability": "view",
      "type": "function",
      "constant": true
    },
    {
      "inputs": [
        {
          "internalType": "uint256",
          "name": "",
          "type": "uint256"
        }
      ],
      "name": "storesById",
      "outputs": [
        {
          "internalType": "uint256",
          "name": "storeId",
          "type": "uint256"
        },
        {
          "internalType": "address",
          "name": "userAddress",
          "type": "address"
        },
        {
          "internalType": "string",
          "name": "storeName",
          "type": "string"
        },
        {
          "internalType": "string",
          "name": "storeFrontImage",
          "type": "string"
        },
        {
          "internalType": "uint256",
          "name": "balance",
          "type": "uint256"
        },
        {
          "internalType": "uint256",
          "name": "productCount",
          "type": "uint256"
        }
      ],
      "stateMutability": "view",
      "type": "function",
      "constant": true
    },
    {
      "inputs": [
        {
          "internalType": "uint256",
          "name": "",
          "type": "uint256"
        }
      ],
      "name": "storesByProductId",
      "outputs": [
        {
          "internalType": "address",
          "name": "",
          "type": "address"
        }
      ],
      "stateMutability": "view",
      "type": "function",
      "constant": true
    },
    {
      "inputs": [
        {
          "internalType": "address",
          "name": "",
          "type": "address"
        }
      ],
      "name": "storesBySellers",
      "outputs": [
        {
          "internalType": "uint256",
          "name": "",
          "type": "uint256"
        }
      ],
      "stateMutability": "view",
      "type": "function",
      "constant": true
    },
    {
      "inputs": [],
      "name": "storesCount",
      "outputs": [
        {
          "internalType": "uint256",
          "name": "",
          "type": "uint256"
        }
      ],
      "stateMutability": "view",
      "type": "function",
      "constant": true
    },
    {
      "inputs": [
        {
          "internalType": "address",
          "name": "",
          "type": "address"
        }
      ],
      "name": "usersByAddress",
      "outputs": [
        {
          "internalType": "address",
          "name": "userAddress",
          "type": "address"
        },
        {
          "internalType": "string",
          "name": "firstName",
          "type": "string"
        },
        {
          "internalType": "string",
          "name": "lastName",
          "type": "string"
        },
        {
          "internalType": "string",
          "name": "email",
          "type": "string"
        },
        {
          "internalType": "string",
          "name": "phoneNumber",
          "type": "string"
        }
      ],
      "stateMutability": "view",
      "type": "function",
      "constant": true
    },
    {
      "inputs": [
        {
          "internalType": "address",
          "name": "userAddress",
          "type": "address"
        },
        {
          "internalType": "string",
          "name": "firstName",
          "type": "string"
        },
        {
          "internalType": "string",
          "name": "lastName",
          "type": "string"
        },
        {
          "internalType": "string",
          "name": "email",
          "type": "string"
        },
        {
          "internalType": "string",
          "name": "phoneNumber",
          "type": "string"
        }
      ],
      "name": "addUser",
      "outputs": [
        {
          "internalType": "address",
          "name": "_userAddress",
          "type": "address"
        },
        {
          "internalType": "string",
          "name": "_firstName",
          "type": "string"
        },
        {
          "internalType": "string",
          "name": "_lastName",
          "type": "string"
        },
        {
          "internalType": "string",
          "name": "_email",
          "type": "string"
        },
        {
          "internalType": "string",
          "name": "_phoneNumber",
          "type": "string"
        }
      ],
      "stateMutability": "nonpayable",
      "type": "function"
    },
    {
      "inputs": [
        {
          "internalType": "address",
          "name": "userAddress",
          "type": "address"
        }
      ],
      "name": "getUser",
      "outputs": [
        {
          "internalType": "address",
          "name": "_userAddress",
          "type": "address"
        },
        {
          "internalType": "string",
          "name": "_firstName",
          "type": "string"
        },
        {
          "internalType": "string",
          "name": "_lastName",
          "type": "string"
        },
        {
          "internalType": "string",
          "name": "_email",
          "type": "string"
        },
        {
          "internalType": "string",
          "name": "_phoneNumber",
          "type": "string"
        }
      ],
      "stateMutability": "view",
      "type": "function",
      "constant": true
    },
    {
      "inputs": [
        {
          "internalType": "uint256",
          "name": "productId",
          "type": "uint256"
        },
        {
          "internalType": "uint256",
          "name": "bidAmount",
          "type": "uint256"
        }
      ],
      "name": "placeBid",
      "outputs": [
        {
          "internalType": "bool",
          "name": "success",
          "type": "bool"
        }
      ],
      "stateMutability": "nonpayable",
      "type": "function"
    },
    {
      "inputs": [
        {
          "internalType": "string",
          "name": "_name",
          "type": "string"
        },
        {
          "internalType": "string",
          "name": "_email",
          "type": "string"
        },
        {
          "internalType": "string",
          "name": "_storeFrontImage",
          "type": "string"
        }
      ],
      "name": "addStore",
      "outputs": [
        {
          "internalType": "bool",
          "name": "",
          "type": "bool"
        }
      ],
      "stateMutability": "nonpayable",
      "type": "function"
    },
    {
      "inputs": [
        {
          "internalType": "string",
          "name": "_name",
          "type": "string"
        },
        {
          "internalType": "string",
          "name": "_category",
          "type": "string"
        },
        {
          "internalType": "uint256",
          "name": "_startTime",
          "type": "uint256"
        },
        {
          "internalType": "uint256",
          "name": "_endTime",
          "type": "uint256"
        },
        {
          "internalType": "uint256",
          "name": "_price",
          "type": "uint256"
        },
        {
          "internalType": "uint256",
          "name": "_productCondition",
          "type": "uint256"
        }
      ],
      "name": "addProduct",
      "outputs": [],
      "stateMutability": "nonpayable",
      "type": "function"
    },
    {
      "inputs": [
        {
          "internalType": "uint256",
          "name": "_id",
          "type": "uint256"
        }
      ],
      "name": "getProduct",
      "outputs": [
        {
          "internalType": "uint256",
          "name": "id",
          "type": "uint256"
        },
        {
          "internalType": "string",
          "name": "productName",
          "type": "string"
        },
        {
          "internalType": "string",
          "name": "category",
          "type": "string"
        },
        {
          "internalType": "uint256",
          "name": "startTime",
          "type": "uint256"
        },
        {
          "internalType": "uint256",
          "name": "endTime",
          "type": "uint256"
        },
        {
          "internalType": "uint256",
          "name": "price",
          "type": "uint256"
        },
        {
          "internalType": "address",
          "name": "buyer",
          "type": "address"
        },
        {
          "internalType": "address",
          "name": "sellerAddress",
          "type": "address"
        },
        {
          "internalType": "enum Auction.ProductCondition",
          "name": "condition",
          "type": "uint8"
        },
        {
          "internalType": "enum Auction.ProductState",
          "name": "productState",
          "type": "uint8"
        },
        {
          "internalType": "uint256[]",
          "name": "bids",
          "type": "uint256[]"
        }
      ],
      "stateMutability": "view",
      "type": "function",
      "constant": true
    }
  ],
  "bytecode": "0x60806040526040518060400160405280600781526020017f41756374696f6e00000000000000000000000000000000000000000000000000815250600090805190602001906200005192919062000075565b506000600c556000600d556000600e553480156200006e57600080fd5b506200018a565b828054620000839062000154565b90600052602060002090601f016020900481019282620000a75760008555620000f3565b82601f10620000c257805160ff1916838001178555620000f3565b82800160010185558215620000f3579182015b82811115620000f2578251825591602001919060010190620000d5565b5b50905062000102919062000106565b5090565b5b808211156200012157600081600090555060010162000107565b5090565b7f4e487b7100000000000000000000000000000000000000000000000000000000600052602260045260246000fd5b600060028204905060018216806200016d57607f821691505b6020821081141562000184576200018362000125565b5b50919050565b613133806200019a6000396000f3fe608060405234801561001057600080fd5b506004361061012c5760003560e01c80636f77926b116100ad578063b9db15b411610071578063b9db15b4146103e0578063cd274a401461041a578063e0f6ef871461044e578063eea720c01461046c578063f95a279f1461049c5761012c565b80636f77926b14610301578063a30b475f14610335578063aa0cd2b81461036f578063abbfccab1461038d578063b40a5627146103c25761012c565b80631b486233116100f45780631b4862331461021757806354121c741461024757806357c90de5146102815780635c8d189d146102b15780636bf693c4146102cd5761012c565b80630281ff3a146101315780630674ca3c1461016157806306fdde03146101965780630ba582fb146101b4578063167d21fc146101e7575b600080fd5b61014b60048036038101906101469190612550565b6104cc565b6040516101589190612596565b60405180910390f35b61017b600480360381019061017691906125dd565b6104e4565b60405161018d969594939291906126b2565b60405180910390f35b61019e610650565b6040516101ab9190612721565b60405180910390f35b6101ce60048036038101906101c99190612743565b6106de565b6040516101de9493929190612783565b60405180910390f35b61020160048036038101906101fc9190612550565b61073b565b60405161020e9190612596565b60405180910390f35b610231600480360381019061022c91906128fd565b610753565b60405161023e91906129bf565b60405180910390f35b610261600480360381019061025c91906129da565b610b09565b6040516102789b9a99989796959493929190612ad9565b60405180910390f35b61029b60048036038101906102969190612743565b610d62565b6040516102a891906129bf565b60405180910390f35b6102cb60048036038101906102c69190612b99565b610eca565b005b6102e760048036038101906102e29190612550565b611458565b6040516102f8959493929190612c5e565b60405180910390f35b61031b60048036038101906103169190612550565b6116ce565b60405161032c959493929190612c5e565b60405180910390f35b61034f600480360381019061034a91906125dd565b6119ef565b6040516103669b9a99989796959493929190612ad9565b60405180910390f35b610377611c3b565b6040516103849190612596565b60405180910390f35b6103a760048036038101906103a29190612550565b611c41565b6040516103b9969594939291906126b2565b60405180910390f35b6103ca611dad565b6040516103d79190612596565b60405180910390f35b6103fa60048036038101906103f591906125dd565b611db3565b6040516104119b9a99989796959493929190612d8b565b60405180910390f35b610434600480360381019061042f9190612e4b565b612217565b604051610445959493929190612c5e565b60405180910390f35b610456612375565b6040516104639190612596565b60405180910390f35b610486600480360381019061048191906125dd565b61237b565b6040516104939190612596565b60405180910390f35b6104b660048036038101906104b191906125dd565b612393565b6040516104c39190612f36565b60405180910390f35b60066020528060005260406000206000915090505481565b60016020528060005260406000206000915090508060000154908060010160009054906101000a900473ffffffffffffffffffffffffffffffffffffffff169080600201805461053390612f80565b80601f016020809104026020016040519081016040528092919081815260200182805461055f90612f80565b80156105ac5780601f10610581576101008083540402835291602001916105ac565b820191906000526020600020905b81548152906001019060200180831161058f57829003601f168201915b5050505050908060030180546105c190612f80565b80601f01602080910402602001604051908101604052809291908181526020018280546105ed90612f80565b801561063a5780601f1061060f5761010080835404028352916020019161063a565b820191906000526020600020905b81548152906001019060200180831161061d57829003601f168201915b5050505050908060040154908060050154905086565b6000805461065d90612f80565b80601f016020809104026020016040519081016040528092919081815260200182805461068990612f80565b80156106d65780601f106106ab576101008083540402835291602001916106d6565b820191906000526020600020905b8154815290600101906020018083116106b957829003601f168201915b505050505081565b6007602052816000526040600020602052806000526040600020600091509150508060000154908060010154908060020154908060030160009054906101000a900473ffffffffffffffffffffffffffffffffffffffff16905084565b60056020528060005260406000206000915090505481565b60003360016000600560008473ffffffffffffffffffffffffffffffffffffffff1673ffffffffffffffffffffffffffffffffffffffff16815260200190815260200160002054815260200190815260200160002060010160009054906101000a900473ffffffffffffffffffffffffffffffffffffffff1673ffffffffffffffffffffffffffffffffffffffff168173ffffffffffffffffffffffffffffffffffffffff16141561083a576040517f08c379a000000000000000000000000000000000000000000000000000000000815260040161083190612ffe565b60405180910390fd5b6001600c600082825461084d919061304d565b925050819055506040518060c00160405280600c5481526020013373ffffffffffffffffffffffffffffffffffffffff16815260200186815260200184815260200160008152602001600081525060016000600c5481526020019081526020016000206000820151816000015560208201518160010160006101000a81548173ffffffffffffffffffffffffffffffffffffffff021916908373ffffffffffffffffffffffffffffffffffffffff160217905550604082015181600201908051906020019061091d9291906123ee565b50606082015181600301908051906020019061093a9291906123ee565b506080820151816004015560a082015181600501559050506040518060c00160405280600c5481526020013373ffffffffffffffffffffffffffffffffffffffff168152602001868152602001848152602001600081526020016000815250600260003373ffffffffffffffffffffffffffffffffffffffff1673ffffffffffffffffffffffffffffffffffffffff1681526020019081526020016000206000820151816000015560208201518160010160006101000a81548173ffffffffffffffffffffffffffffffffffffffff021916908373ffffffffffffffffffffffffffffffffffffffff1602179055506040820151816002019080519060200190610a459291906123ee565b506060820151816003019080519060200190610a629291906123ee565b506080820151816004015560a08201518160050155905050600c54600560003373ffffffffffffffffffffffffffffffffffffffff1673ffffffffffffffffffffffffffffffffffffffff168152602001908152602001600020819055507fe8253acf656dc8347730e5bac58063299c552725b3a12635eed3d481d55bac1f33868686604051610af594939291906130a3565b60405180910390a160019150509392505050565b600360205281600052604060002060205280600052604060002060009150915050806000015490806001018054610b3f90612f80565b80601f0160208091040260200160405190810160405280929190818152602001828054610b6b90612f80565b8015610bb85780601f10610b8d57610100808354040283529160200191610bb8565b820191906000526020600020905b815481529060010190602001808311610b9b57829003601f168201915b505050505090806002018054610bcd90612f80565b80601f0160208091040260200160405190810160405280929190818152602001828054610bf990612f80565b8015610c465780601f10610c1b57610100808354040283529160200191610c46565b820191906000526020600020905b815481529060010190602001808311610c2957829003601f168201915b505050505090806003018054610c5b90612f80565b80601f0160208091040260200160405190810160405280929190818152602001828054610c8790612f80565b8015610cd45780601f10610ca957610100808354040283529160200191610cd4565b820191906000526020600020905b815481529060010190602001808311610cb757829003601f168201915b5050505050908060040154908060050154908060060154908060070160009054906101000a900473ffffffffffffffffffffffffffffffffffffffff16908060080160009054906101000a900473ffffffffffffffffffffffffffffffffffffffff16908060080160149054906101000a900460ff16908060080160159054906101000a900460ff1690508b565b60006001600e6000828254610d77919061304d565b925050819055506001600860008581526020019081526020016000206000828254610da2919061304d565b925050819055506040518060800160405280600e5481526020018481526020018381526020013373ffffffffffffffffffffffffffffffffffffffff168152506007600085815260200190815260200160002060006008600087815260200190815260200160002054815260200190815260200160002060008201518160000155602082015181600101556040820151816002015560608201518160030160006101000a81548173ffffffffffffffffffffffffffffffffffffffff021916908373ffffffffffffffffffffffffffffffffffffffff1602179055509050507f590ba68a12d65ef409e2805559d1df1c2e572d83d3251d3c1a5fd0e19df10952600e54848433604051610eb89493929190612783565b60405180910390a16001905092915050565b610ee06001600d546123c690919063ffffffff16565b600d8190555060606000604051806101800160405280600d5481526020018981526020018881526020016040518060400160405280600581526020017f656d7074790000000000000000000000000000000000000000000000000000008152508152602001878152602001868152602001858152602001600073ffffffffffffffffffffffffffffffffffffffff1681526020013373ffffffffffffffffffffffffffffffffffffffff168152602001846001811115610fa357610fa2612a1a565b5b6001811115610fb557610fb4612a1a565b5b815260200160006004811115610fce57610fcd612a1a565b5b815260200183815250905080600360003373ffffffffffffffffffffffffffffffffffffffff1673ffffffffffffffffffffffffffffffffffffffff1681526020019081526020016000206000600d5481526020019081526020016000206000820151816000015560208201518160010190805190602001906110529291906123ee565b50604082015181600201908051906020019061106f9291906123ee565b50606082015181600301908051906020019061108c9291906123ee565b506080820151816004015560a0820151816005015560c0820151816006015560e08201518160070160006101000a81548173ffffffffffffffffffffffffffffffffffffffff021916908373ffffffffffffffffffffffffffffffffffffffff1602179055506101008201518160080160006101000a81548173ffffffffffffffffffffffffffffffffffffffff021916908373ffffffffffffffffffffffffffffffffffffffff1602179055506101208201518160080160146101000a81548160ff0219169083600181111561116657611165612a1a565b5b02179055506101408201518160080160156101000a81548160ff0219169083600481111561119757611196612a1a565b5b02179055506101608201518160090190805190602001906111b9929190612474565b509050503360046000600d54815260200190815260200160002060006101000a81548173ffffffffffffffffffffffffffffffffffffffff021916908373ffffffffffffffffffffffffffffffffffffffff16021790555080600a6000600d54815260200190815260200160002060008201518160000155602082015181600101908051906020019061124d9291906123ee565b50604082015181600201908051906020019061126a9291906123ee565b5060608201518160030190805190602001906112879291906123ee565b506080820151816004015560a0820151816005015560c0820151816006015560e08201518160070160006101000a81548173ffffffffffffffffffffffffffffffffffffffff021916908373ffffffffffffffffffffffffffffffffffffffff1602179055506101008201518160080160006101000a81548173ffffffffffffffffffffffffffffffffffffffff021916908373ffffffffffffffffffffffffffffffffffffffff1602179055506101208201518160080160146101000a81548160ff0219169083600181111561136157611360612a1a565b5b02179055506101408201518160080160156101000a81548160ff0219169083600481111561139257611391612a1a565b5b02179055506101608201518160090190805190602001906113b4929190612474565b5090505061140b6001600660003373ffffffffffffffffffffffffffffffffffffffff1673ffffffffffffffffffffffffffffffffffffffff168152602001908152602001600020546123c690919063ffffffff16565b600660003373ffffffffffffffffffffffffffffffffffffffff1673ffffffffffffffffffffffffffffffffffffffff168152602001908152602001600020819055505050505050505050565b60096020528060005260406000206000915090508060000160009054906101000a900473ffffffffffffffffffffffffffffffffffffffff16908060010180546114a190612f80565b80601f01602080910402602001604051908101604052809291908181526020018280546114cd90612f80565b801561151a5780601f106114ef5761010080835404028352916020019161151a565b820191906000526020600020905b8154815290600101906020018083116114fd57829003601f168201915b50505050509080600201805461152f90612f80565b80601f016020809104026020016040519081016040528092919081815260200182805461155b90612f80565b80156115a85780601f1061157d576101008083540402835291602001916115a8565b820191906000526020600020905b81548152906001019060200180831161158b57829003601f168201915b5050505050908060030180546115bd90612f80565b80601f01602080910402602001604051908101604052809291908181526020018280546115e990612f80565b80156116365780601f1061160b57610100808354040283529160200191611636565b820191906000526020600020905b81548152906001019060200180831161161957829003601f168201915b50505050509080600401805461164b90612f80565b80601f016020809104026020016040519081016040528092919081815260200182805461167790612f80565b80156116c45780601f10611699576101008083540402835291602001916116c4565b820191906000526020600020905b8154815290600101906020018083116116a757829003601f168201915b5050505050905085565b60006060806060806000600960008873ffffffffffffffffffffffffffffffffffffffff1673ffffffffffffffffffffffffffffffffffffffff1681526020019081526020016000206040518060a00160405290816000820160009054906101000a900473ffffffffffffffffffffffffffffffffffffffff1673ffffffffffffffffffffffffffffffffffffffff1673ffffffffffffffffffffffffffffffffffffffff16815260200160018201805461178890612f80565b80601f01602080910402602001604051908101604052809291908181526020018280546117b490612f80565b80156118015780601f106117d657610100808354040283529160200191611801565b820191906000526020600020905b8154815290600101906020018083116117e457829003601f168201915b5050505050815260200160028201805461181a90612f80565b80601f016020809104026020016040519081016040528092919081815260200182805461184690612f80565b80156118935780601f1061186857610100808354040283529160200191611893565b820191906000526020600020905b81548152906001019060200180831161187657829003601f168201915b505050505081526020016003820180546118ac90612f80565b80601f01602080910402602001604051908101604052809291908181526020018280546118d890612f80565b80156119255780601f106118fa57610100808354040283529160200191611925565b820191906000526020600020905b81548152906001019060200180831161190857829003601f168201915b5050505050815260200160048201805461193e90612f80565b80601f016020809104026020016040519081016040528092919081815260200182805461196a90612f80565b80156119b75780601f1061198c576101008083540402835291602001916119b7565b820191906000526020600020905b81548152906001019060200180831161199a57829003601f168201915b505050505081525050905080600001518160200151826040015183606001518460800151955095509550955095505091939590929450565b600a602052806000526040600020600091509050806000015490806001018054611a1890612f80565b80601f0160208091040260200160405190810160405280929190818152602001828054611a4490612f80565b8015611a915780601f10611a6657610100808354040283529160200191611a91565b820191906000526020600020905b815481529060010190602001808311611a7457829003601f168201915b505050505090806002018054611aa690612f80565b80601f0160208091040260200160405190810160405280929190818152602001828054611ad290612f80565b8015611b1f5780601f10611af457610100808354040283529160200191611b1f565b820191906000526020600020905b815481529060010190602001808311611b0257829003601f168201915b505050505090806003018054611b3490612f80565b80601f0160208091040260200160405190810160405280929190818152602001828054611b6090612f80565b8015611bad5780601f10611b8257610100808354040283529160200191611bad565b820191906000526020600020905b815481529060010190602001808311611b9057829003601f168201915b5050505050908060040154908060050154908060060154908060070160009054906101000a900473ffffffffffffffffffffffffffffffffffffffff16908060080160009054906101000a900473ffffffffffffffffffffffffffffffffffffffff16908060080160149054906101000a900460ff16908060080160159054906101000a900460ff1690508b565b600c5481565b60026020528060005260406000206000915090508060000154908060010160009054906101000a900473ffffffffffffffffffffffffffffffffffffffff1690806002018054611c9090612f80565b80601f0160208091040260200160405190810160405280929190818152602001828054611cbc90612f80565b8015611d095780601f10611cde57610100808354040283529160200191611d09565b820191906000526020600020905b815481529060010190602001808311611cec57829003601f168201915b505050505090806003018054611d1e90612f80565b80601f0160208091040260200160405190810160405280929190818152602001828054611d4a90612f80565b8015611d975780601f10611d6c57610100808354040283529160200191611d97565b820191906000526020600020905b815481529060010190602001808311611d7a57829003601f168201915b5050505050908060040154908060050154905086565b600e5481565b6000606080600080600080600080600060606000600460008e815260200190815260200160002060009054906101000a900473ffffffffffffffffffffffffffffffffffffffff1690506000600360008373ffffffffffffffffffffffffffffffffffffffff1673ffffffffffffffffffffffffffffffffffffffff16815260200190815260200160002060008f81526020019081526020016000206040518061018001604052908160008201548152602001600182018054611e7590612f80565b80601f0160208091040260200160405190810160405280929190818152602001828054611ea190612f80565b8015611eee5780601f10611ec357610100808354040283529160200191611eee565b820191906000526020600020905b815481529060010190602001808311611ed157829003601f168201915b50505050508152602001600282018054611f0790612f80565b80601f0160208091040260200160405190810160405280929190818152602001828054611f3390612f80565b8015611f805780601f10611f5557610100808354040283529160200191611f80565b820191906000526020600020905b815481529060010190602001808311611f6357829003601f168201915b50505050508152602001600382018054611f9990612f80565b80601f0160208091040260200160405190810160405280929190818152602001828054611fc590612f80565b80156120125780601f10611fe757610100808354040283529160200191612012565b820191906000526020600020905b815481529060010190602001808311611ff557829003601f168201915b505050505081526020016004820154815260200160058201548152602001600682015481526020016007820160009054906101000a900473ffffffffffffffffffffffffffffffffffffffff1673ffffffffffffffffffffffffffffffffffffffff1673ffffffffffffffffffffffffffffffffffffffff1681526020016008820160009054906101000a900473ffffffffffffffffffffffffffffffffffffffff1673ffffffffffffffffffffffffffffffffffffffff1673ffffffffffffffffffffffffffffffffffffffff1681526020016008820160149054906101000a900460ff16600181111561210a57612109612a1a565b5b600181111561211c5761211b612a1a565b5b81526020016008820160159054906101000a900460ff16600481111561214557612144612a1a565b5b600481111561215757612156612a1a565b5b8152602001600982018054806020026020016040519081016040528092919081815260200182805480156121aa57602002820191906000526020600020905b815481526020019060010190808311612196575b505050505081525050905080600001518160200151826040015183608001518460a001518560c001518660e001518761010001518861012001518961014001518a61016001519c509c509c509c509c509c509c509c509c509c509c50505091939597999b90929496989a50565b60006060806060806040518060a001604052808b73ffffffffffffffffffffffffffffffffffffffff1681526020018a815260200189815260200188815260200187815250600960008c73ffffffffffffffffffffffffffffffffffffffff1673ffffffffffffffffffffffffffffffffffffffff16815260200190815260200160002060008201518160000160006101000a81548173ffffffffffffffffffffffffffffffffffffffff021916908373ffffffffffffffffffffffffffffffffffffffff16021790555060208201518160010190805190602001906122fe9291906123ee565b50604082015181600201908051906020019061231b9291906123ee565b5060608201518160030190805190602001906123389291906123ee565b5060808201518160040190805190602001906123559291906123ee565b509050508989898989945094509450945094509550955095509550959050565b600d5481565b60086020528060005260406000206000915090505481565b60046020528060005260406000206000915054906101000a900473ffffffffffffffffffffffffffffffffffffffff1681565b60008082846123d5919061304d565b9050838110156123e457600080fd5b8091505092915050565b8280546123fa90612f80565b90600052602060002090601f01602090048101928261241c5760008555612463565b82601f1061243557805160ff1916838001178555612463565b82800160010185558215612463579182015b82811115612462578251825591602001919060010190612447565b5b50905061247091906124c1565b5090565b8280548282559060005260206000209081019282156124b0579160200282015b828111156124af578251825591602001919060010190612494565b5b5090506124bd91906124c1565b5090565b5b808211156124da5760008160009055506001016124c2565b5090565b6000604051905090565b600080fd5b600080fd5b600073ffffffffffffffffffffffffffffffffffffffff82169050919050565b600061251d826124f2565b9050919050565b61252d81612512565b811461253857600080fd5b50565b60008135905061254a81612524565b92915050565b600060208284031215612566576125656124e8565b5b60006125748482850161253b565b91505092915050565b6000819050919050565b6125908161257d565b82525050565b60006020820190506125ab6000830184612587565b92915050565b6125ba8161257d565b81146125c557600080fd5b50565b6000813590506125d7816125b1565b92915050565b6000602082840312156125f3576125f26124e8565b5b6000612601848285016125c8565b91505092915050565b61261381612512565b82525050565b600081519050919050565b600082825260208201905092915050565b60005b83811015612653578082015181840152602081019050612638565b83811115612662576000848401525b50505050565b6000601f19601f8301169050919050565b600061268482612619565b61268e8185612624565b935061269e818560208601612635565b6126a781612668565b840191505092915050565b600060c0820190506126c76000830189612587565b6126d4602083018861260a565b81810360408301526126e68187612679565b905081810360608301526126fa8186612679565b90506127096080830185612587565b61271660a0830184612587565b979650505050505050565b6000602082019050818103600083015261273b8184612679565b905092915050565b6000806040838503121561275a576127596124e8565b5b6000612768858286016125c8565b9250506020612779858286016125c8565b9150509250929050565b60006080820190506127986000830187612587565b6127a56020830186612587565b6127b26040830185612587565b6127bf606083018461260a565b95945050505050565b600080fd5b600080fd5b7f4e487b7100000000000000000000000000000000000000000000000000000000600052604160045260246000fd5b61280a82612668565b810181811067ffffffffffffffff82111715612829576128286127d2565b5b80604052505050565b600061283c6124de565b90506128488282612801565b919050565b600067ffffffffffffffff821115612868576128676127d2565b5b61287182612668565b9050602081019050919050565b82818337600083830152505050565b60006128a061289b8461284d565b612832565b9050828152602081018484840111156128bc576128bb6127cd565b5b6128c784828561287e565b509392505050565b600082601f8301126128e4576128e36127c8565b5b81356128f484826020860161288d565b91505092915050565b600080600060608486031215612916576129156124e8565b5b600084013567ffffffffffffffff811115612934576129336124ed565b5b612940868287016128cf565b935050602084013567ffffffffffffffff811115612961576129606124ed565b5b61296d868287016128cf565b925050604084013567ffffffffffffffff81111561298e5761298d6124ed565b5b61299a868287016128cf565b9150509250925092565b60008115159050919050565b6129b9816129a4565b82525050565b60006020820190506129d460008301846129b0565b92915050565b600080604083850312156129f1576129f06124e8565b5b60006129ff8582860161253b565b9250506020612a10858286016125c8565b9150509250929050565b7f4e487b7100000000000000000000000000000000000000000000000000000000600052602160045260246000fd5b60028110612a5a57612a59612a1a565b5b50565b6000819050612a6b82612a49565b919050565b6000612a7b82612a5d565b9050919050565b612a8b81612a70565b82525050565b60058110612aa257612aa1612a1a565b5b50565b6000819050612ab382612a91565b919050565b6000612ac382612aa5565b9050919050565b612ad381612ab8565b82525050565b600061016082019050612aef600083018e612587565b8181036020830152612b01818d612679565b90508181036040830152612b15818c612679565b90508181036060830152612b29818b612679565b9050612b38608083018a612587565b612b4560a0830189612587565b612b5260c0830188612587565b612b5f60e083018761260a565b612b6d61010083018661260a565b612b7b610120830185612a82565b612b89610140830184612aca565b9c9b505050505050505050505050565b60008060008060008060c08789031215612bb657612bb56124e8565b5b600087013567ffffffffffffffff811115612bd457612bd36124ed565b5b612be089828a016128cf565b965050602087013567ffffffffffffffff811115612c0157612c006124ed565b5b612c0d89828a016128cf565b9550506040612c1e89828a016125c8565b9450506060612c2f89828a016125c8565b9350506080612c4089828a016125c8565b92505060a0612c5189828a016125c8565b9150509295509295509295565b600060a082019050612c73600083018861260a565b8181036020830152612c858187612679565b90508181036040830152612c998186612679565b90508181036060830152612cad8185612679565b90508181036080830152612cc18184612679565b90509695505050505050565b600081519050919050565b600082825260208201905092915050565b6000819050602082019050919050565b612d028161257d565b82525050565b6000612d148383612cf9565b60208301905092915050565b6000602082019050919050565b6000612d3882612ccd565b612d428185612cd8565b9350612d4d83612ce9565b8060005b83811015612d7e578151612d658882612d08565b9750612d7083612d20565b925050600181019050612d51565b5085935050505092915050565b600061016082019050612da1600083018e612587565b8181036020830152612db3818d612679565b90508181036040830152612dc7818c612679565b9050612dd6606083018b612587565b612de3608083018a612587565b612df060a0830189612587565b612dfd60c083018861260a565b612e0a60e083018761260a565b612e18610100830186612a82565b612e26610120830185612aca565b818103610140830152612e398184612d2d565b90509c9b505050505050505050505050565b600080600080600060a08688031215612e6757612e666124e8565b5b6000612e758882890161253b565b955050602086013567ffffffffffffffff811115612e9657612e956124ed565b5b612ea2888289016128cf565b945050604086013567ffffffffffffffff811115612ec357612ec26124ed565b5b612ecf888289016128cf565b935050606086013567ffffffffffffffff811115612ef057612eef6124ed565b5b612efc888289016128cf565b925050608086013567ffffffffffffffff811115612f1d57612f1c6124ed565b5b612f29888289016128cf565b9150509295509295909350565b6000602082019050612f4b600083018461260a565b92915050565b7f4e487b7100000000000000000000000000000000000000000000000000000000600052602260045260246000fd5b60006002820490506001821680612f9857607f821691505b60208210811415612fac57612fab612f51565b5b50919050565b7f5573657220616c72656164792068617320612073746f72650000000000000000600082015250565b6000612fe8601883612624565b9150612ff382612fb2565b602082019050919050565b6000602082019050818103600083015261301781612fdb565b9050919050565b7f4e487b7100000000000000000000000000000000000000000000000000000000600052601160045260246000fd5b60006130588261257d565b91506130638361257d565b9250827fffffffffffffffffffffffffffffffffffffffffffffffffffffffffffffffff038211156130985761309761301e565b5b828201905092915050565b60006080820190506130b8600083018761260a565b81810360208301526130ca8186612679565b905081810360408301526130de8185612679565b905081810360608301526130f28184612679565b90509594505050505056fea26469706673582212202a3d0cf0a88c329c33f4562603b82a33545c95931924c71e04fad56c7d1dde7664736f6c634300080a0033",
  "immutableReferences": {},
  "source": "pragma solidity >=0.4.22 <0.9.0;\npragma experimental ABIEncoderV2;\n\nimport \"./SafeMath.sol\";\n\ncontract Auction {\n    using SafeMath for uint;\n\n    string public name = \"Auction\";\n\n    mapping (uint => Store) public storesById;                   // Stores by id\n    mapping (address => Store) public storesByAddress;                   // Stores by id\n    mapping (address => mapping(uint => Product)) public stores; // products by stores\n    mapping (uint => address) public storesByProductId;          // seller address by product id\n    mapping (address => uint) public storesBySellers;            // store by seller address, used to prevent more than one store per user\n    mapping (address => uint) public productCountByStore;        // product count by store\n    mapping (uint => mapping(uint => Bid)) public bidsByProduct;\n    mapping (uint => uint) public bidCountByProduct;\n    mapping (address => User) public usersByAddress;\n    mapping (uint => Product) public productById;\n\n    // events\n    event NewProductAdded(address storeAddress, address productAddress);\n    event NewStoreAdded(\n        address storeAddress,\n        string storeName,\n        string email,\n        string storeFrontImage\n    );\n    event NewBid(uint id, uint product, uint bidAmount, address bidder);\n\n    modifier OnlyOwner() {\n        require(msg.sender == owner, \"ONLY ADMIN IS ALLOWED\");\n        _;\n    }\n\n    modifier onlyBefore(uint _time) {\n        require(block.timestamp < _time);\n        _;\n    }\n\n    modifier onlyAfter(uint _time) {\n        require(block.timestamp > _time);\n        _;\n    }\n\n    address owner;\n\n    // constructor\n    constructor() public {}\n\n    // global states\n\n    uint public storesCount = 0;\n    uint public productCount = 0;\n    uint public bidCount = 0;\n\n    // structs\n\n    struct User {\n        address userAddress;\n        string firstName;\n        string lastName;\n        string email;\n        string phoneNumber;\n    }\n\n    // store\n    struct Store{\n        uint storeId;\n        address userAddress;\n        string storeName;   \n        string storeFrontImage;\n        uint balance;\n        uint productCount;\n    }\n\n    // product\n    enum ProductCondition {\n        New,\n        Used\n    }\n    enum ProductState {\n        ForSale,\n        Sold,\n        Shipped,\n        Received,\n        Deleted\n    }\n    struct Product {\n        uint id;\n        string productName; //\n        string category; //\n        string imageLink; //\n        uint startTime; //\n        uint endTime; //\n        uint price; //\n        address buyer;\n        address sellerAddress;\n        ProductCondition productCondition; //\n        ProductState productState; //\n        uint[] bidsId;\n    }\n\n    // auction\n    struct Bid {\n        uint id;\n        uint productId;\n        uint bidAmount;\n        address bidderAddress;\n    }\n\n    // create user\n    function addUser(\n        address userAddress,\n        string memory firstName,\n        string memory lastName,\n        string memory email,\n        string memory phoneNumber\n    )\n        public\n        returns (\n            address _userAddress,\n            string memory _firstName,\n            string memory _lastName,\n            string memory _email,\n            string memory _phoneNumber\n        )\n    {\n        usersByAddress[userAddress] = User(\n            userAddress,\n            firstName,\n            lastName,\n            email,\n            phoneNumber\n        );\n        return (userAddress, firstName, lastName, email, phoneNumber);\n    }\n\n    // check user\n    function getUser(address userAddress)\n        public\n        view\n        returns (\n            address _userAddress,\n            string memory _firstName,\n            string memory _lastName,\n            string memory _email,\n            string memory _phoneNumber\n        )\n    {\n        User memory user = usersByAddress[userAddress];\n        return (\n            user.userAddress,\n            user.firstName,\n            user.lastName,\n            user.email,\n            user.phoneNumber\n        );\n    }\n\n    // create bid\n    function placeBid(uint productId, uint bidAmount)\n        public\n        returns (bool success)\n    {\n        bidCount += 1;\n        bidCountByProduct[productId] += 1;\n        bidsByProduct[productId][bidCountByProduct[productId]] = Bid(bidCount, productId, bidAmount, msg.sender);\n        emit NewBid(bidCount, productId, bidAmount, msg.sender);\n        return true;\n    }\n\n    // get product bids\n    // function getProductBids(uint productId, uint bidId)\n    //     public\n    //     view\n    //     returns (Bid memory bids)\n    // {\n    //     return bidsByProduct[productId][bidId];\n    // }\n\n    // create store\n    modifier notHaveStore(address sellerAddress) {\n        require(\n            !(sellerAddress ==\n                storesById[storesBySellers[sellerAddress]].userAddress),\n            \"User already has a store\"\n        );\n        _;\n    }\n\n    function addStore(\n        string memory _name,\n        string memory _email,\n        string memory _storeFrontImage\n    ) public notHaveStore(msg.sender) returns (bool) {\n        // require(true);\n        storesCount += 1;\n        storesById[storesCount] = Store(storesCount, msg.sender, _name, _storeFrontImage, 0, 0);\n        storesByAddress[msg.sender] = Store(storesCount, msg.sender, _name, _storeFrontImage, 0, 0);\n        storesBySellers[msg.sender] = storesCount;\n        emit NewStoreAdded(msg.sender, _name, _email, _storeFrontImage);\n        return true;\n    }\n\n    // add product\n    modifier onlyStoreOwner() {\n        require(\n            storesById[storesBySellers[msg.sender]].userAddress == msg.sender,\n            \"You are not the store owner!\"\n        );\n        _;\n    }\n    // modifier productExists(uint _id) {\n    //     require(\n    //         stores[storesByProductId[_id]][_id].exists,\n    //         \"Product not found.\"\n    //     );\n    //     _;\n    // }\n\n    function addProduct(\n        string memory _name,\n        string memory _category,\n        uint _startTime,\n        uint _endTime,\n        uint _price,\n        uint _productCondition\n    ) public {\n        productCount = productCount.add(1);\n        uint[] memory emptyId;\n\n        Product memory product = Product(\n            productCount,\n            _name,\n            _category,\n            \"empty\",\n            _startTime,\n            _endTime,\n            _price,\n            address(0),\n            msg.sender,\n            ProductCondition(_productCondition),\n            ProductState.ForSale,\n            emptyId\n        );\n\n        stores[msg.sender][productCount] = product;\n        storesByProductId[productCount] = msg.sender;\n        productById[productCount] = product;\n        // update product count by store\n        productCountByStore[msg.sender] = productCountByStore[msg.sender].add(\n            1\n        );\n    }\n\n    // get product\n    function getProduct(uint _id)\n        public\n        view\n        // productExists(_id)\n        returns (\n            uint id,\n            string memory productName,\n            string memory category,\n            uint startTime,\n            uint endTime,\n            uint price,\n            address buyer,\n            address sellerAddress,\n            ProductCondition condition,\n            ProductState productState,\n            uint[] memory bids\n        )\n    {\n        address x = storesByProductId[_id];\n\n        Product memory product = stores[x][_id]; // load product from memory\n        return (\n            product.id,\n            product.productName,\n            product.category,\n            product.startTime,\n            product.endTime,\n            product.price,\n            product.buyer,\n            product.sellerAddress,\n            product.productCondition,\n            product.productState,\n            product.bidsId\n        );\n    }\n}\n",
  "sourcePath": "/home/rediet/Documents/custom-auction/auction-blockchain-main/Truffle/contracts/Auction.sol",
  "compiler": {
    "name": "solc",
    "version": "0.8.10+commit.fc410830.Emscripten.clang"
  },
  "schemaVersion": "3.4.4",
  "updatedAt": "2022-01-18T04:31:16.926Z",
  "networkType": "ethereum",
  "devdoc": {
    "kind": "dev",
    "methods": {},
    "version": 1
  },
  "userdoc": {
    "kind": "user",
    "methods": {},
    "version": 1
  }
}