{
  "contractName": "Auction",
  "abi": [
    {
      "inputs": [],
      "stateMutability": "nonpayable",
      "type": "constructor"
    },
    {
      "anonymous": false,
      "inputs": [
        {
          "indexed": false,
          "internalType": "address",
          "name": "storeAddress",
          "type": "address"
        },
        {
          "indexed": false,
          "internalType": "address",
          "name": "productAddress",
          "type": "address"
        }
      ],
      "name": "NewProductAdded",
      "type": "event"
    },
    {
      "anonymous": false,
      "inputs": [
        {
          "indexed": false,
          "internalType": "address",
          "name": "storeAddress",
          "type": "address"
        },
        {
          "indexed": false,
          "internalType": "string",
          "name": "storeName",
          "type": "string"
        },
        {
          "indexed": false,
          "internalType": "string",
          "name": "email",
          "type": "string"
        },
        {
          "indexed": false,
          "internalType": "string",
          "name": "storeFrontImage",
          "type": "string"
        }
      ],
      "name": "NewStoreAdded",
      "type": "event"
    },
    {
      "inputs": [],
      "name": "name",
      "outputs": [
        {
          "internalType": "string",
          "name": "",
          "type": "string"
        }
      ],
      "stateMutability": "view",
      "type": "function",
      "constant": true
    },
    {
      "inputs": [],
      "name": "productCount",
      "outputs": [
        {
          "internalType": "uint256",
          "name": "",
          "type": "uint256"
        }
      ],
      "stateMutability": "view",
      "type": "function",
      "constant": true
    },
    {
      "inputs": [
        {
          "internalType": "address",
          "name": "",
          "type": "address"
        }
      ],
      "name": "productCountByStore",
      "outputs": [
        {
          "internalType": "uint256",
          "name": "",
          "type": "uint256"
        }
      ],
      "stateMutability": "view",
      "type": "function",
      "constant": true
    },
    {
      "inputs": [
        {
          "internalType": "address",
          "name": "",
          "type": "address"
        },
        {
          "internalType": "uint256",
          "name": "",
          "type": "uint256"
        }
      ],
      "name": "stores",
      "outputs": [
        {
          "internalType": "uint256",
          "name": "id",
          "type": "uint256"
        },
        {
          "internalType": "string",
          "name": "productName",
          "type": "string"
        },
        {
          "internalType": "string",
          "name": "category",
          "type": "string"
        },
        {
          "internalType": "string",
          "name": "imageLink",
          "type": "string"
        },
        {
          "internalType": "uint256",
          "name": "startTime",
          "type": "uint256"
        },
        {
          "internalType": "uint256",
          "name": "endTime",
          "type": "uint256"
        },
        {
          "internalType": "uint256",
          "name": "price",
          "type": "uint256"
        },
        {
          "internalType": "address",
          "name": "buyer",
          "type": "address"
        },
        {
          "internalType": "address",
          "name": "sellerAddress",
          "type": "address"
        },
        {
          "internalType": "enum Auction.ProductCondition",
          "name": "productCondition",
          "type": "uint8"
        },
        {
          "internalType": "enum Auction.ProductState",
          "name": "productState",
          "type": "uint8"
        },
        {
          "internalType": "bool",
          "name": "exists",
          "type": "bool"
        }
      ],
      "stateMutability": "view",
      "type": "function",
      "constant": true
    },
    {
      "inputs": [
        {
          "internalType": "address",
          "name": "",
          "type": "address"
        }
      ],
      "name": "storesByAddress",
      "outputs": [
        {
          "internalType": "address",
          "name": "storeAddress",
          "type": "address"
        },
        {
          "internalType": "string",
          "name": "storeName",
          "type": "string"
        },
        {
          "internalType": "string",
          "name": "email",
          "type": "string"
        },
        {
          "internalType": "string",
          "name": "storeFrontImage",
          "type": "string"
        },
        {
          "internalType": "uint256",
          "name": "balance",
          "type": "uint256"
        },
        {
          "internalType": "uint256",
          "name": "productCount",
          "type": "uint256"
        }
      ],
      "stateMutability": "view",
      "type": "function",
      "constant": true
    },
    {
      "inputs": [
        {
          "internalType": "uint256",
          "name": "",
          "type": "uint256"
        }
      ],
      "name": "storesById",
      "outputs": [
        {
          "internalType": "address",
          "name": "storeAddress",
          "type": "address"
        },
        {
          "internalType": "string",
          "name": "storeName",
          "type": "string"
        },
        {
          "internalType": "string",
          "name": "email",
          "type": "string"
        },
        {
          "internalType": "string",
          "name": "storeFrontImage",
          "type": "string"
        },
        {
          "internalType": "uint256",
          "name": "balance",
          "type": "uint256"
        },
        {
          "internalType": "uint256",
          "name": "productCount",
          "type": "uint256"
        }
      ],
      "stateMutability": "view",
      "type": "function",
      "constant": true
    },
    {
      "inputs": [
        {
          "internalType": "uint256",
          "name": "",
          "type": "uint256"
        }
      ],
      "name": "storesByProductId",
      "outputs": [
        {
          "internalType": "address",
          "name": "",
          "type": "address"
        }
      ],
      "stateMutability": "view",
      "type": "function",
      "constant": true
    },
    {
      "inputs": [
        {
          "internalType": "address",
          "name": "",
          "type": "address"
        }
      ],
      "name": "storesBySellers",
      "outputs": [
        {
          "internalType": "uint256",
          "name": "",
          "type": "uint256"
        }
      ],
      "stateMutability": "view",
      "type": "function",
      "constant": true
    },
    {
      "inputs": [],
      "name": "storesCount",
      "outputs": [
        {
          "internalType": "uint256",
          "name": "",
          "type": "uint256"
        }
      ],
      "stateMutability": "view",
      "type": "function",
      "constant": true
    },
    {
      "inputs": [
        {
          "internalType": "string",
          "name": "_name",
          "type": "string"
        },
        {
          "internalType": "string",
          "name": "_email",
          "type": "string"
        },
        {
          "internalType": "string",
          "name": "_storeFrontImage",
          "type": "string"
        }
      ],
      "name": "addStore",
      "outputs": [
        {
          "internalType": "bool",
          "name": "",
          "type": "bool"
        }
      ],
      "stateMutability": "nonpayable",
      "type": "function"
    },
    {
      "inputs": [
        {
          "internalType": "string",
          "name": "_name",
          "type": "string"
        },
        {
          "internalType": "string",
          "name": "_category",
          "type": "string"
        },
        {
          "internalType": "uint256",
          "name": "_startTime",
          "type": "uint256"
        },
        {
          "internalType": "uint256",
          "name": "_endTime",
          "type": "uint256"
        },
        {
          "internalType": "uint256",
          "name": "_price",
          "type": "uint256"
        },
        {
          "internalType": "uint256",
          "name": "_productCondition",
          "type": "uint256"
        }
      ],
      "name": "addProduct",
      "outputs": [],
      "stateMutability": "nonpayable",
      "type": "function"
    },
    {
      "inputs": [
        {
          "internalType": "uint256",
          "name": "_id",
          "type": "uint256"
        }
      ],
      "name": "getProduct",
      "outputs": [
        {
          "internalType": "uint256",
          "name": "id",
          "type": "uint256"
        },
        {
          "internalType": "string",
          "name": "productName",
          "type": "string"
        },
        {
          "internalType": "string",
          "name": "category",
          "type": "string"
        },
        {
          "internalType": "uint256",
          "name": "startTime",
          "type": "uint256"
        },
        {
          "internalType": "uint256",
          "name": "endTime",
          "type": "uint256"
        },
        {
          "internalType": "uint256",
          "name": "price",
          "type": "uint256"
        },
        {
          "internalType": "address",
          "name": "buyer",
          "type": "address"
        },
        {
          "internalType": "address",
          "name": "sellerAddress",
          "type": "address"
        },
        {
          "internalType": "enum Auction.ProductCondition",
          "name": "condition",
          "type": "uint8"
        },
        {
          "internalType": "enum Auction.ProductState",
          "name": "productState",
          "type": "uint8"
        }
      ],
      "stateMutability": "view",
      "type": "function",
      "constant": true
    }
  ],
  "bytecode": "0x60806040526040518060400160405280600781526020017f41756374696f6e00000000000000000000000000000000000000000000000000815250600090805190602001906200005192919062000066565b503480156200005f57600080fd5b506200017b565b828054620000749062000145565b90600052602060002090601f016020900481019282620000985760008555620000e4565b82601f10620000b357805160ff1916838001178555620000e4565b82800160010185558215620000e4579182015b82811115620000e3578251825591602001919060010190620000c6565b5b509050620000f39190620000f7565b5090565b5b8082111562000112576000816000905550600101620000f8565b5090565b7f4e487b7100000000000000000000000000000000000000000000000000000000600052602260045260246000fd5b600060028204905060018216806200015e57607f821691505b6020821081141562000175576200017462000116565b5b50919050565b612310806200018b6000396000f3fe608060405234801561001057600080fd5b50600436106100b45760003560e01c80635c8d189d116100715780635c8d189d146101d7578063aa0cd2b8146101f3578063abbfccab14610211578063b9db15b414610246578063e0f6ef871461027f578063f95a279f1461029d576100b4565b80630281ff3a146100b95780630674ca3c146100e957806306fdde031461011e578063167d21fc1461013c5780631b4862331461016c57806354121c741461019c575b600080fd5b6100d360048036038101906100ce91906118f2565b6102cd565b6040516100e09190611938565b60405180910390f35b61010360048036038101906100fe919061197f565b6102e5565b60405161011596959493929190611a54565b60405180910390f35b6101266104d9565b6040516101339190611aca565b60405180910390f35b610156600480360381019061015191906118f2565b610567565b6040516101639190611938565b60405180910390f35b61018660048036038101906101819190611c21565b61057f565b6040516101939190611ce3565b60405180910390f35b6101b660048036038101906101b19190611cfe565b610959565b6040516101ce9c9b9a99989796959493929190611dfd565b60405180910390f35b6101f160048036038101906101ec9190611ecc565b610bc5565b005b6101fb611092565b6040516102089190611938565b60405180910390f35b61022b600480360381019061022691906118f2565b611098565b60405161023d96959493929190611a54565b60405180910390f35b610260600480360381019061025b919061197f565b61128c565b6040516102769a99989796959493929190611f91565b60405180910390f35b61028761177c565b6040516102949190611938565b60405180910390f35b6102b760048036038101906102b2919061197f565b611782565b6040516102c4919061203b565b60405180910390f35b60066020528060005260406000206000915090505481565b60016020528060005260406000206000915090508060000160009054906101000a900473ffffffffffffffffffffffffffffffffffffffff169080600101805461032e90612085565b80601f016020809104026020016040519081016040528092919081815260200182805461035a90612085565b80156103a75780601f1061037c576101008083540402835291602001916103a7565b820191906000526020600020905b81548152906001019060200180831161038a57829003601f168201915b5050505050908060020180546103bc90612085565b80601f01602080910402602001604051908101604052809291908181526020018280546103e890612085565b80156104355780601f1061040a57610100808354040283529160200191610435565b820191906000526020600020905b81548152906001019060200180831161041857829003601f168201915b50505050509080600301805461044a90612085565b80601f016020809104026020016040519081016040528092919081815260200182805461047690612085565b80156104c35780601f10610498576101008083540402835291602001916104c3565b820191906000526020600020905b8154815290600101906020018083116104a657829003601f168201915b5050505050908060040154908060050154905086565b600080546104e690612085565b80601f016020809104026020016040519081016040528092919081815260200182805461051290612085565b801561055f5780601f106105345761010080835404028352916020019161055f565b820191906000526020600020905b81548152906001019060200180831161054257829003601f168201915b505050505081565b60056020528060005260406000206000915090505481565b60003360016000600560008473ffffffffffffffffffffffffffffffffffffffff1673ffffffffffffffffffffffffffffffffffffffff16815260200190815260200160002054815260200190815260200160002060000160009054906101000a900473ffffffffffffffffffffffffffffffffffffffff1673ffffffffffffffffffffffffffffffffffffffff168173ffffffffffffffffffffffffffffffffffffffff161415610666576040517f08c379a000000000000000000000000000000000000000000000000000000000815260040161065d90612103565b60405180910390fd5b61067c60016008546117b590919063ffffffff16565b6008819055506040518060c001604052803373ffffffffffffffffffffffffffffffffffffffff16815260200186815260200185815260200184815260200160008152602001600081525060016000600854815260200190815260200160002060008201518160000160006101000a81548173ffffffffffffffffffffffffffffffffffffffff021916908373ffffffffffffffffffffffffffffffffffffffff160217905550602082015181600101908051906020019061073f9291906117dd565b50604082015181600201908051906020019061075c9291906117dd565b5060608201518160030190805190602001906107799291906117dd565b506080820151816004015560a082015181600501559050506040518060c001604052803373ffffffffffffffffffffffffffffffffffffffff168152602001868152602001858152602001848152602001600081526020016000815250600260003373ffffffffffffffffffffffffffffffffffffffff1673ffffffffffffffffffffffffffffffffffffffff16815260200190815260200160002060008201518160000160006101000a81548173ffffffffffffffffffffffffffffffffffffffff021916908373ffffffffffffffffffffffffffffffffffffffff16021790555060208201518160010190805190602001906108789291906117dd565b5060408201518160020190805190602001906108959291906117dd565b5060608201518160030190805190602001906108b29291906117dd565b506080820151816004015560a08201518160050155905050600854600560003373ffffffffffffffffffffffffffffffffffffffff1673ffffffffffffffffffffffffffffffffffffffff168152602001908152602001600020819055507fe8253acf656dc8347730e5bac58063299c552725b3a12635eed3d481d55bac1f338686866040516109459493929190612123565b60405180910390a160019150509392505050565b60036020528160005260406000206020528060005260406000206000915091505080600001549080600101805461098f90612085565b80601f01602080910402602001604051908101604052809291908181526020018280546109bb90612085565b8015610a085780601f106109dd57610100808354040283529160200191610a08565b820191906000526020600020905b8154815290600101906020018083116109eb57829003601f168201915b505050505090806002018054610a1d90612085565b80601f0160208091040260200160405190810160405280929190818152602001828054610a4990612085565b8015610a965780601f10610a6b57610100808354040283529160200191610a96565b820191906000526020600020905b815481529060010190602001808311610a7957829003601f168201915b505050505090806003018054610aab90612085565b80601f0160208091040260200160405190810160405280929190818152602001828054610ad790612085565b8015610b245780601f10610af957610100808354040283529160200191610b24565b820191906000526020600020905b815481529060010190602001808311610b0757829003601f168201915b5050505050908060040154908060050154908060060154908060070160009054906101000a900473ffffffffffffffffffffffffffffffffffffffff16908060080160009054906101000a900473ffffffffffffffffffffffffffffffffffffffff16908060080160149054906101000a900460ff16908060080160159054906101000a900460ff16908060080160169054906101000a900460ff1690508c565b3373ffffffffffffffffffffffffffffffffffffffff1660016000600560003373ffffffffffffffffffffffffffffffffffffffff1673ffffffffffffffffffffffffffffffffffffffff16815260200190815260200160002054815260200190815260200160002060000160009054906101000a900473ffffffffffffffffffffffffffffffffffffffff1673ffffffffffffffffffffffffffffffffffffffff1614610ca8576040517f08c379a0000000000000000000000000000000000000000000000000000000008152600401610c9f906121c9565b60405180910390fd5b610cbe60016009546117b590919063ffffffff16565b600981905550600060405180610180016040528060095481526020018881526020018781526020016040518060400160405280600581526020017f656d7074790000000000000000000000000000000000000000000000000000008152508152602001868152602001858152602001848152602001600073ffffffffffffffffffffffffffffffffffffffff1681526020013373ffffffffffffffffffffffffffffffffffffffff168152602001836001811115610d7f57610d7e611d3e565b5b6001811115610d9157610d90611d3e565b5b815260200160006004811115610daa57610da9611d3e565b5b815260200160011515815250905080600360003373ffffffffffffffffffffffffffffffffffffffff1673ffffffffffffffffffffffffffffffffffffffff16815260200190815260200160002060006009548152602001908152602001600020600082015181600001556020820151816001019080519060200190610e319291906117dd565b506040820151816002019080519060200190610e4e9291906117dd565b506060820151816003019080519060200190610e6b9291906117dd565b506080820151816004015560a0820151816005015560c0820151816006015560e08201518160070160006101000a81548173ffffffffffffffffffffffffffffffffffffffff021916908373ffffffffffffffffffffffffffffffffffffffff1602179055506101008201518160080160006101000a81548173ffffffffffffffffffffffffffffffffffffffff021916908373ffffffffffffffffffffffffffffffffffffffff1602179055506101208201518160080160146101000a81548160ff02191690836001811115610f4557610f44611d3e565b5b02179055506101408201518160080160156101000a81548160ff02191690836004811115610f7657610f75611d3e565b5b02179055506101608201518160080160166101000a81548160ff0219169083151502179055509050503360046000600954815260200190815260200160002060006101000a81548173ffffffffffffffffffffffffffffffffffffffff021916908373ffffffffffffffffffffffffffffffffffffffff1602179055506110466001600660003373ffffffffffffffffffffffffffffffffffffffff1673ffffffffffffffffffffffffffffffffffffffff168152602001908152602001600020546117b590919063ffffffff16565b600660003373ffffffffffffffffffffffffffffffffffffffff1673ffffffffffffffffffffffffffffffffffffffff1681526020019081526020016000208190555050505050505050565b60085481565b60026020528060005260406000206000915090508060000160009054906101000a900473ffffffffffffffffffffffffffffffffffffffff16908060010180546110e190612085565b80601f016020809104026020016040519081016040528092919081815260200182805461110d90612085565b801561115a5780601f1061112f5761010080835404028352916020019161115a565b820191906000526020600020905b81548152906001019060200180831161113d57829003601f168201915b50505050509080600201805461116f90612085565b80601f016020809104026020016040519081016040528092919081815260200182805461119b90612085565b80156111e85780601f106111bd576101008083540402835291602001916111e8565b820191906000526020600020905b8154815290600101906020018083116111cb57829003601f168201915b5050505050908060030180546111fd90612085565b80601f016020809104026020016040519081016040528092919081815260200182805461122990612085565b80156112765780601f1061124b57610100808354040283529160200191611276565b820191906000526020600020905b81548152906001019060200180831161125957829003601f168201915b5050505050908060040154908060050154905086565b600060608060008060008060008060008a600360006004600084815260200190815260200160002060009054906101000a900473ffffffffffffffffffffffffffffffffffffffff1673ffffffffffffffffffffffffffffffffffffffff1673ffffffffffffffffffffffffffffffffffffffff168152602001908152602001600020600082815260200190815260200160002060080160169054906101000a900460ff16611370576040517f08c379a000000000000000000000000000000000000000000000000000000000815260040161136790612235565b60405180910390fd5b6000600460008e815260200190815260200160002060009054906101000a900473ffffffffffffffffffffffffffffffffffffffff1690506000600360008373ffffffffffffffffffffffffffffffffffffffff1673ffffffffffffffffffffffffffffffffffffffff16815260200190815260200160002060008f8152602001908152602001600020604051806101800160405290816000820154815260200160018201805461142090612085565b80601f016020809104026020016040519081016040528092919081815260200182805461144c90612085565b80156114995780601f1061146e57610100808354040283529160200191611499565b820191906000526020600020905b81548152906001019060200180831161147c57829003601f168201915b505050505081526020016002820180546114b290612085565b80601f01602080910402602001604051908101604052809291908181526020018280546114de90612085565b801561152b5780601f106115005761010080835404028352916020019161152b565b820191906000526020600020905b81548152906001019060200180831161150e57829003601f168201915b5050505050815260200160038201805461154490612085565b80601f016020809104026020016040519081016040528092919081815260200182805461157090612085565b80156115bd5780601f10611592576101008083540402835291602001916115bd565b820191906000526020600020905b8154815290600101906020018083116115a057829003601f168201915b505050505081526020016004820154815260200160058201548152602001600682015481526020016007820160009054906101000a900473ffffffffffffffffffffffffffffffffffffffff1673ffffffffffffffffffffffffffffffffffffffff1673ffffffffffffffffffffffffffffffffffffffff1681526020016008820160009054906101000a900473ffffffffffffffffffffffffffffffffffffffff1673ffffffffffffffffffffffffffffffffffffffff1673ffffffffffffffffffffffffffffffffffffffff1681526020016008820160149054906101000a900460ff1660018111156116b5576116b4611d3e565b5b60018111156116c7576116c6611d3e565b5b81526020016008820160159054906101000a900460ff1660048111156116f0576116ef611d3e565b5b600481111561170257611701611d3e565b5b81526020016008820160169054906101000a900460ff161515151581525050905080600001518160200151826040015183608001518460a001518560c001518660e001518761010001518861012001518961014001519c509c509c509c509c509c509c509c509c509c505050509193959799509193959799565b60095481565b60046020528060005260406000206000915054906101000a900473ffffffffffffffffffffffffffffffffffffffff1681565b60008082846117c49190612284565b9050838110156117d357600080fd5b8091505092915050565b8280546117e990612085565b90600052602060002090601f01602090048101928261180b5760008555611852565b82601f1061182457805160ff1916838001178555611852565b82800160010185558215611852579182015b82811115611851578251825591602001919060010190611836565b5b50905061185f9190611863565b5090565b5b8082111561187c576000816000905550600101611864565b5090565b6000604051905090565b600080fd5b600080fd5b600073ffffffffffffffffffffffffffffffffffffffff82169050919050565b60006118bf82611894565b9050919050565b6118cf816118b4565b81146118da57600080fd5b50565b6000813590506118ec816118c6565b92915050565b6000602082840312156119085761190761188a565b5b6000611916848285016118dd565b91505092915050565b6000819050919050565b6119328161191f565b82525050565b600060208201905061194d6000830184611929565b92915050565b61195c8161191f565b811461196757600080fd5b50565b60008135905061197981611953565b92915050565b6000602082840312156119955761199461188a565b5b60006119a38482850161196a565b91505092915050565b6119b5816118b4565b82525050565b600081519050919050565b600082825260208201905092915050565b60005b838110156119f55780820151818401526020810190506119da565b83811115611a04576000848401525b50505050565b6000601f19601f8301169050919050565b6000611a26826119bb565b611a3081856119c6565b9350611a408185602086016119d7565b611a4981611a0a565b840191505092915050565b600060c082019050611a6960008301896119ac565b8181036020830152611a7b8188611a1b565b90508181036040830152611a8f8187611a1b565b90508181036060830152611aa38186611a1b565b9050611ab26080830185611929565b611abf60a0830184611929565b979650505050505050565b60006020820190508181036000830152611ae48184611a1b565b905092915050565b600080fd5b600080fd5b7f4e487b7100000000000000000000000000000000000000000000000000000000600052604160045260246000fd5b611b2e82611a0a565b810181811067ffffffffffffffff82111715611b4d57611b4c611af6565b5b80604052505050565b6000611b60611880565b9050611b6c8282611b25565b919050565b600067ffffffffffffffff821115611b8c57611b8b611af6565b5b611b9582611a0a565b9050602081019050919050565b82818337600083830152505050565b6000611bc4611bbf84611b71565b611b56565b905082815260208101848484011115611be057611bdf611af1565b5b611beb848285611ba2565b509392505050565b600082601f830112611c0857611c07611aec565b5b8135611c18848260208601611bb1565b91505092915050565b600080600060608486031215611c3a57611c3961188a565b5b600084013567ffffffffffffffff811115611c5857611c5761188f565b5b611c6486828701611bf3565b935050602084013567ffffffffffffffff811115611c8557611c8461188f565b5b611c9186828701611bf3565b925050604084013567ffffffffffffffff811115611cb257611cb161188f565b5b611cbe86828701611bf3565b9150509250925092565b60008115159050919050565b611cdd81611cc8565b82525050565b6000602082019050611cf86000830184611cd4565b92915050565b60008060408385031215611d1557611d1461188a565b5b6000611d23858286016118dd565b9250506020611d348582860161196a565b9150509250929050565b7f4e487b7100000000000000000000000000000000000000000000000000000000600052602160045260246000fd5b60028110611d7e57611d7d611d3e565b5b50565b6000819050611d8f82611d6d565b919050565b6000611d9f82611d81565b9050919050565b611daf81611d94565b82525050565b60058110611dc657611dc5611d3e565b5b50565b6000819050611dd782611db5565b919050565b6000611de782611dc9565b9050919050565b611df781611ddc565b82525050565b600061018082019050611e13600083018f611929565b8181036020830152611e25818e611a1b565b90508181036040830152611e39818d611a1b565b90508181036060830152611e4d818c611a1b565b9050611e5c608083018b611929565b611e6960a083018a611929565b611e7660c0830189611929565b611e8360e08301886119ac565b611e916101008301876119ac565b611e9f610120830186611da6565b611ead610140830185611dee565b611ebb610160830184611cd4565b9d9c50505050505050505050505050565b60008060008060008060c08789031215611ee957611ee861188a565b5b600087013567ffffffffffffffff811115611f0757611f0661188f565b5b611f1389828a01611bf3565b965050602087013567ffffffffffffffff811115611f3457611f3361188f565b5b611f4089828a01611bf3565b9550506040611f5189828a0161196a565b9450506060611f6289828a0161196a565b9350506080611f7389828a0161196a565b92505060a0611f8489828a0161196a565b9150509295509295509295565b600061014082019050611fa7600083018d611929565b8181036020830152611fb9818c611a1b565b90508181036040830152611fcd818b611a1b565b9050611fdc606083018a611929565b611fe96080830189611929565b611ff660a0830188611929565b61200360c08301876119ac565b61201060e08301866119ac565b61201e610100830185611da6565b61202c610120830184611dee565b9b9a5050505050505050505050565b600060208201905061205060008301846119ac565b92915050565b7f4e487b7100000000000000000000000000000000000000000000000000000000600052602260045260246000fd5b6000600282049050600182168061209d57607f821691505b602082108114156120b1576120b0612056565b5b50919050565b7f5573657220616c72656164792068617320612073746f72650000000000000000600082015250565b60006120ed6018836119c6565b91506120f8826120b7565b602082019050919050565b6000602082019050818103600083015261211c816120e0565b9050919050565b600060808201905061213860008301876119ac565b818103602083015261214a8186611a1b565b9050818103604083015261215e8185611a1b565b905081810360608301526121728184611a1b565b905095945050505050565b7f596f7520617265206e6f74207468652073746f7265206f776e65722100000000600082015250565b60006121b3601c836119c6565b91506121be8261217d565b602082019050919050565b600060208201905081810360008301526121e2816121a6565b9050919050565b7f50726f64756374206e6f7420666f756e642e0000000000000000000000000000600082015250565b600061221f6012836119c6565b915061222a826121e9565b602082019050919050565b6000602082019050818103600083015261224e81612212565b9050919050565b7f4e487b7100000000000000000000000000000000000000000000000000000000600052601160045260246000fd5b600061228f8261191f565b915061229a8361191f565b9250827fffffffffffffffffffffffffffffffffffffffffffffffffffffffffffffffff038211156122cf576122ce612255565b5b82820190509291505056fea264697066735822122090b89d47d566f79821eb2cdfc1471787b4ac098a96447c6d955dfe4d3932b8bd64736f6c634300080a0033",
  "immutableReferences": {},
  "source": "pragma solidity >=0.4.22 <0.9.0;\npragma experimental ABIEncoderV2;\n\nimport \"./SafeMath.sol\";\n\n\ncontract Auction {\n    using SafeMath for uint256;\n\n    string public name = \"Auction\";\n\n    mapping (uint => Store) public storesById;                   // Stores by id\n    mapping (address => Store) public storesByAddress;                   // Stores by id\n    mapping (address => mapping(uint => Product)) public stores; // products by stores\n    mapping (uint => address) public storesByProductId;          // seller address by product id\n    mapping (address => uint) public storesBySellers;            // store by seller address, used to prevent more than one store per user\n    mapping (address => uint) public productCountByStore;        // product count by store\n\n    // events\n    event NewProductAdded(address storeAddress, address productAddress);\n    event NewStoreAdded(address storeAddress, string storeName, string email, string storeFrontImage);\n\n    modifier OnlyOwner(){\n        require(msg.sender == owner,\"ONLY ADMIN IS ALLOWED\");\n        _;\n    }\n    \n    // modifier Only_Doctors{\n    //     require(DoctorInfo[msg.sender].state == true,\"REGISTERED DOCTORS ONLY\");\n    //     _;\n    // }\n    \n    // modifier Only_Patients{\n    //     require(PatientInfo[msg.sender].state == true,\"REGISTERED PATIENTS ONLY\");\n    //     _;\n    // }\n\n    address owner;\n    \n    // constructor\n    constructor() public {}\n    \n    // global states\n\n    uint public storesCount;\n    uint public productCount;\n\n    // structs\n\n    // store\n    struct Store{\n        address storeAddress;\n        string storeName;   \n        string email;\n        string storeFrontImage;\n        uint balance;\n        uint productCount;\n    }\n\n    // product \n    enum ProductCondition {New, Used}\n    enum ProductState {ForSale, Sold, Shipped, Received, Deleted}\n    struct Product {\n        uint id;\n        string productName;//\n        string category;//\n        string imageLink;//\n        uint startTime;//\n        uint endTime;//\n        uint price;//\n        address buyer;\n        address sellerAddress;\n        ProductCondition productCondition;//\n        ProductState productState;//\n        bool exists;\n    }\n\n    // create store\n    modifier notHaveStore(address sellerAddress) { \n        require(!(sellerAddress == storesById[storesBySellers[sellerAddress]].storeAddress), \"User already has a store\" ); \n        _;\n    }\n\n    function  addStore(\n        string memory _name, \n        string memory _email,\n        string memory _storeFrontImage\n    )\n        public\n        notHaveStore(msg.sender)\n        returns (bool)\n    { \n        // require(true);\n        storesCount = storesCount.add(1);\n        storesById[storesCount] = Store(msg.sender, _name, _email, _storeFrontImage, 0, 0);\n        storesByAddress[msg.sender] = Store(msg.sender, _name, _email, _storeFrontImage, 0, 0);\n        storesBySellers[msg.sender] = storesCount;\n        emit NewStoreAdded(msg.sender,_name, _email, _storeFrontImage);\n        return true;\n    }\n\n    // add product\n    modifier onlyStoreOwner() { \n        require(storesById[storesBySellers[msg.sender]].storeAddress == msg.sender, \"You are not the store owner!\" ); \n        _;\n    }\n    modifier productExists(uint _id) { require( stores[storesByProductId[_id]][_id].exists, \"Product not found.\"); _; }\n\n     function addProduct(\n        string memory _name, \n        string memory _category, \n        uint _startTime, \n        uint _endTime, \n        uint _price, \n        uint _productCondition\n    ) \n        public\n        onlyStoreOwner\n    {        \n        productCount = productCount.add(1);\n\n        Product memory product = Product(\n            productCount,\n            _name, \n            _category, \n            \"empty\", \n            _startTime, \n            _endTime,\n            _price,\n            address(0), \n            msg.sender, \n            ProductCondition(_productCondition),  \n            ProductState.ForSale,\n            true\n        );\n\n        stores[msg.sender][productCount] = product; \n        storesByProductId[productCount] = msg.sender;\n\n        // update product count by store\n        productCountByStore[msg.sender] = productCountByStore[msg.sender].add(1);        \n    }\n\n    // get product\n    function getProduct(uint _id) \n        public \n        productExists(_id)\n        view \n        returns(\n            uint id, \n            string memory productName, \n            string memory category, \n            uint startTime, \n            uint endTime, \n            uint price, \n            address buyer, \n            address sellerAddress, \n            ProductCondition condition,\n            ProductState productState\n        ) \n    {\n        address x = storesByProductId[_id];\n\n\n        Product memory product = stores[x][_id]; // load product from memory\n        return (\n            product.id, \n            product.productName, \n            product.category, \n            product.startTime,\n            product.endTime,\n            product.price, \n            product.buyer, \n            product.sellerAddress, \n            product.productCondition,\n            product.productState\n        );\n    }\n\n}",
  "sourcePath": "/home/semere/Documents/AuctionChain/auction-blockchain/Truffle/contracts/Auction.sol",
  "compiler": {
    "name": "solc",
    "version": "0.8.10+commit.fc410830.Emscripten.clang"
  },
  "schemaVersion": "3.4.4",
  "updatedAt": "2022-01-12T07:41:25.694Z",
  "networkType": "ethereum",
  "devdoc": {
    "kind": "dev",
    "methods": {},
    "version": 1
  },
  "userdoc": {
    "kind": "user",
    "methods": {},
    "version": 1
  }
}