{
  "contractName": "Auction",
  "abi": [
    {
      "inputs": [],
      "stateMutability": "nonpayable",
      "type": "constructor"
    },
    {
      "anonymous": false,
      "inputs": [
        {
          "indexed": false,
          "internalType": "uint256",
          "name": "id",
          "type": "uint256"
        },
        {
          "components": [
            {
              "internalType": "uint256",
              "name": "id",
              "type": "uint256"
            },
            {
              "internalType": "string",
              "name": "productName",
              "type": "string"
            },
            {
              "internalType": "string",
              "name": "category",
              "type": "string"
            },
            {
              "internalType": "string",
              "name": "imageLink",
              "type": "string"
            },
            {
              "internalType": "uint256",
              "name": "startTime",
              "type": "uint256"
            },
            {
              "internalType": "uint256",
              "name": "endTime",
              "type": "uint256"
            },
            {
              "internalType": "uint256",
              "name": "price",
              "type": "uint256"
            },
            {
              "internalType": "address",
              "name": "buyer",
              "type": "address"
            },
            {
              "internalType": "address",
              "name": "sellerAddress",
              "type": "address"
            },
            {
              "internalType": "enum Auction.ProductCondition",
              "name": "productCondition",
              "type": "uint8"
            },
            {
              "internalType": "enum Auction.ProductState",
              "name": "productState",
              "type": "uint8"
            },
            {
              "internalType": "bool",
              "name": "exists",
              "type": "bool"
            }
          ],
          "indexed": false,
          "internalType": "struct Auction.Product",
          "name": "product",
          "type": "tuple"
        },
        {
          "indexed": false,
          "internalType": "uint256",
          "name": "bidAmount",
          "type": "uint256"
        },
        {
          "components": [
            {
              "internalType": "address",
              "name": "userAddress",
              "type": "address"
            },
            {
              "internalType": "string",
              "name": "firstName",
              "type": "string"
            },
            {
              "internalType": "string",
              "name": "lastName",
              "type": "string"
            },
            {
              "internalType": "string",
              "name": "email",
              "type": "string"
            },
            {
              "internalType": "string",
              "name": "phoneNumber",
              "type": "string"
            }
          ],
          "indexed": false,
          "internalType": "struct Auction.User",
          "name": "bidder",
          "type": "tuple"
        }
      ],
      "name": "NewBid",
      "type": "event"
    },
    {
      "anonymous": false,
      "inputs": [
        {
          "indexed": false,
          "internalType": "address",
          "name": "storeAddress",
          "type": "address"
        },
        {
          "indexed": false,
          "internalType": "address",
          "name": "productAddress",
          "type": "address"
        }
      ],
      "name": "NewProductAdded",
      "type": "event"
    },
    {
      "anonymous": false,
      "inputs": [
        {
          "indexed": false,
          "internalType": "address",
          "name": "storeAddress",
          "type": "address"
        },
        {
          "indexed": false,
          "internalType": "string",
          "name": "storeName",
          "type": "string"
        },
        {
          "indexed": false,
          "internalType": "string",
          "name": "email",
          "type": "string"
        },
        {
          "indexed": false,
          "internalType": "string",
          "name": "storeFrontImage",
          "type": "string"
        }
      ],
      "name": "NewStoreAdded",
      "type": "event"
    },
    {
      "inputs": [],
      "name": "bidCount",
      "outputs": [
        {
          "internalType": "uint256",
          "name": "",
          "type": "uint256"
        }
      ],
      "stateMutability": "view",
      "type": "function",
      "constant": true
    },
    {
      "inputs": [
        {
          "internalType": "uint256",
          "name": "",
          "type": "uint256"
        },
        {
          "internalType": "uint256",
          "name": "",
          "type": "uint256"
        }
      ],
      "name": "bidsByProduct",
      "outputs": [
        {
          "internalType": "uint256",
          "name": "id",
          "type": "uint256"
        },
        {
          "internalType": "uint256",
          "name": "productId",
          "type": "uint256"
        },
        {
          "internalType": "uint256",
          "name": "bidAmount",
          "type": "uint256"
        },
        {
          "internalType": "address",
          "name": "bidderAddress",
          "type": "address"
        }
      ],
      "stateMutability": "view",
      "type": "function",
      "constant": true
    },
    {
      "inputs": [],
      "name": "name",
      "outputs": [
        {
          "internalType": "string",
          "name": "",
          "type": "string"
        }
      ],
      "stateMutability": "view",
      "type": "function",
      "constant": true
    },
    {
      "inputs": [],
      "name": "productCount",
      "outputs": [
        {
          "internalType": "uint256",
          "name": "",
          "type": "uint256"
        }
      ],
      "stateMutability": "view",
      "type": "function",
      "constant": true
    },
    {
      "inputs": [
        {
          "internalType": "address",
          "name": "",
          "type": "address"
        }
      ],
      "name": "productCountByStore",
      "outputs": [
        {
          "internalType": "uint256",
          "name": "",
          "type": "uint256"
        }
      ],
      "stateMutability": "view",
      "type": "function",
      "constant": true
    },
    {
      "inputs": [
        {
          "internalType": "address",
          "name": "",
          "type": "address"
        },
        {
          "internalType": "uint256",
          "name": "",
          "type": "uint256"
        }
      ],
      "name": "stores",
      "outputs": [
        {
          "internalType": "uint256",
          "name": "id",
          "type": "uint256"
        },
        {
          "internalType": "string",
          "name": "productName",
          "type": "string"
        },
        {
          "internalType": "string",
          "name": "category",
          "type": "string"
        },
        {
          "internalType": "string",
          "name": "imageLink",
          "type": "string"
        },
        {
          "internalType": "uint256",
          "name": "startTime",
          "type": "uint256"
        },
        {
          "internalType": "uint256",
          "name": "endTime",
          "type": "uint256"
        },
        {
          "internalType": "uint256",
          "name": "price",
          "type": "uint256"
        },
        {
          "internalType": "address",
          "name": "buyer",
          "type": "address"
        },
        {
          "internalType": "address",
          "name": "sellerAddress",
          "type": "address"
        },
        {
          "internalType": "enum Auction.ProductCondition",
          "name": "productCondition",
          "type": "uint8"
        },
        {
          "internalType": "enum Auction.ProductState",
          "name": "productState",
          "type": "uint8"
        },
        {
          "internalType": "bool",
          "name": "exists",
          "type": "bool"
        }
      ],
      "stateMutability": "view",
      "type": "function",
      "constant": true
    },
    {
      "inputs": [
        {
          "internalType": "address",
          "name": "",
          "type": "address"
        }
      ],
      "name": "storesByAddress",
      "outputs": [
        {
          "internalType": "uint256",
          "name": "storeId",
          "type": "uint256"
        },
        {
          "internalType": "address",
          "name": "userAddress",
          "type": "address"
        },
        {
          "internalType": "string",
          "name": "storeName",
          "type": "string"
        },
        {
          "internalType": "string",
          "name": "storeFrontImage",
          "type": "string"
        },
        {
          "internalType": "uint256",
          "name": "balance",
          "type": "uint256"
        },
        {
          "internalType": "uint256",
          "name": "productCount",
          "type": "uint256"
        }
      ],
      "stateMutability": "view",
      "type": "function",
      "constant": true
    },
    {
      "inputs": [
        {
          "internalType": "uint256",
          "name": "",
          "type": "uint256"
        }
      ],
      "name": "storesById",
      "outputs": [
        {
          "internalType": "uint256",
          "name": "storeId",
          "type": "uint256"
        },
        {
          "internalType": "address",
          "name": "userAddress",
          "type": "address"
        },
        {
          "internalType": "string",
          "name": "storeName",
          "type": "string"
        },
        {
          "internalType": "string",
          "name": "storeFrontImage",
          "type": "string"
        },
        {
          "internalType": "uint256",
          "name": "balance",
          "type": "uint256"
        },
        {
          "internalType": "uint256",
          "name": "productCount",
          "type": "uint256"
        }
      ],
      "stateMutability": "view",
      "type": "function",
      "constant": true
    },
    {
      "inputs": [
        {
          "internalType": "uint256",
          "name": "",
          "type": "uint256"
        }
      ],
      "name": "storesByProductId",
      "outputs": [
        {
          "internalType": "address",
          "name": "",
          "type": "address"
        }
      ],
      "stateMutability": "view",
      "type": "function",
      "constant": true
    },
    {
      "inputs": [
        {
          "internalType": "address",
          "name": "",
          "type": "address"
        }
      ],
      "name": "storesBySellers",
      "outputs": [
        {
          "internalType": "uint256",
          "name": "",
          "type": "uint256"
        }
      ],
      "stateMutability": "view",
      "type": "function",
      "constant": true
    },
    {
      "inputs": [],
      "name": "storesCount",
      "outputs": [
        {
          "internalType": "uint256",
          "name": "",
          "type": "uint256"
        }
      ],
      "stateMutability": "view",
      "type": "function",
      "constant": true
    },
    {
      "inputs": [
        {
          "internalType": "address",
          "name": "",
          "type": "address"
        }
      ],
      "name": "usersByAddress",
      "outputs": [
        {
          "internalType": "address",
          "name": "userAddress",
          "type": "address"
        },
        {
          "internalType": "string",
          "name": "firstName",
          "type": "string"
        },
        {
          "internalType": "string",
          "name": "lastName",
          "type": "string"
        },
        {
          "internalType": "string",
          "name": "email",
          "type": "string"
        },
        {
          "internalType": "string",
          "name": "phoneNumber",
          "type": "string"
        }
      ],
      "stateMutability": "view",
      "type": "function",
      "constant": true
    },
    {
      "inputs": [
        {
          "internalType": "address",
          "name": "userAddress",
          "type": "address"
        },
        {
          "internalType": "string",
          "name": "firstName",
          "type": "string"
        },
        {
          "internalType": "string",
          "name": "lastName",
          "type": "string"
        },
        {
          "internalType": "string",
          "name": "email",
          "type": "string"
        },
        {
          "internalType": "string",
          "name": "phoneNumber",
          "type": "string"
        }
      ],
      "name": "addUser",
      "outputs": [
        {
          "internalType": "address",
          "name": "_userAddress",
          "type": "address"
        },
        {
          "internalType": "string",
          "name": "_firstName",
          "type": "string"
        },
        {
          "internalType": "string",
          "name": "_lastName",
          "type": "string"
        },
        {
          "internalType": "string",
          "name": "_email",
          "type": "string"
        },
        {
          "internalType": "string",
          "name": "_phoneNumber",
          "type": "string"
        }
      ],
      "stateMutability": "nonpayable",
      "type": "function"
    },
    {
      "inputs": [
        {
          "internalType": "uint256",
          "name": "productId",
          "type": "uint256"
        },
        {
          "internalType": "uint256",
          "name": "bidAmount",
          "type": "uint256"
        }
      ],
      "name": "placeBid",
      "outputs": [
        {
          "internalType": "bool",
          "name": "success",
          "type": "bool"
        }
      ],
      "stateMutability": "nonpayable",
      "type": "function"
    },
    {
      "inputs": [
        {
          "internalType": "uint256",
          "name": "productId",
          "type": "uint256"
        },
        {
          "internalType": "uint256",
          "name": "bidId",
          "type": "uint256"
        }
      ],
      "name": "getProductBids",
      "outputs": [
        {
          "components": [
            {
              "internalType": "uint256",
              "name": "id",
              "type": "uint256"
            },
            {
              "internalType": "uint256",
              "name": "productId",
              "type": "uint256"
            },
            {
              "internalType": "uint256",
              "name": "bidAmount",
              "type": "uint256"
            },
            {
              "internalType": "address",
              "name": "bidderAddress",
              "type": "address"
            }
          ],
          "internalType": "struct Auction.Bid",
          "name": "bids",
          "type": "tuple"
        }
      ],
      "stateMutability": "nonpayable",
      "type": "function"
    },
    {
      "inputs": [
        {
          "internalType": "string",
          "name": "_name",
          "type": "string"
        },
        {
          "internalType": "string",
          "name": "_email",
          "type": "string"
        },
        {
          "internalType": "string",
          "name": "_storeFrontImage",
          "type": "string"
        }
      ],
      "name": "addStore",
      "outputs": [
        {
          "internalType": "bool",
          "name": "",
          "type": "bool"
        }
      ],
      "stateMutability": "nonpayable",
      "type": "function"
    },
    {
      "inputs": [
        {
          "internalType": "string",
          "name": "_name",
          "type": "string"
        },
        {
          "internalType": "string",
          "name": "_category",
          "type": "string"
        },
        {
          "internalType": "uint256",
          "name": "_startTime",
          "type": "uint256"
        },
        {
          "internalType": "uint256",
          "name": "_endTime",
          "type": "uint256"
        },
        {
          "internalType": "uint256",
          "name": "_price",
          "type": "uint256"
        },
        {
          "internalType": "uint256",
          "name": "_productCondition",
          "type": "uint256"
        }
      ],
      "name": "addProduct",
      "outputs": [],
      "stateMutability": "nonpayable",
      "type": "function"
    },
    {
      "inputs": [
        {
          "internalType": "uint256",
          "name": "_id",
          "type": "uint256"
        }
      ],
      "name": "getProduct",
      "outputs": [
        {
          "internalType": "uint256",
          "name": "id",
          "type": "uint256"
        },
        {
          "internalType": "string",
          "name": "productName",
          "type": "string"
        },
        {
          "internalType": "string",
          "name": "category",
          "type": "string"
        },
        {
          "internalType": "uint256",
          "name": "startTime",
          "type": "uint256"
        },
        {
          "internalType": "uint256",
          "name": "endTime",
          "type": "uint256"
        },
        {
          "internalType": "uint256",
          "name": "price",
          "type": "uint256"
        },
        {
          "internalType": "address",
          "name": "buyer",
          "type": "address"
        },
        {
          "internalType": "address",
          "name": "sellerAddress",
          "type": "address"
        },
        {
          "internalType": "enum Auction.ProductCondition",
          "name": "condition",
          "type": "uint8"
        },
        {
          "internalType": "enum Auction.ProductState",
          "name": "productState",
          "type": "uint8"
        }
      ],
      "stateMutability": "view",
      "type": "function",
      "constant": true
    }
  ],
  "bytecode": "0x60806040526040518060400160405280600781526020017f41756374696f6e00000000000000000000000000000000000000000000000000815250600090805190602001906200005192919062000066565b503480156200005f57600080fd5b506200017b565b828054620000749062000145565b90600052602060002090601f016020900481019282620000985760008555620000e4565b82601f10620000b357805160ff1916838001178555620000e4565b82800160010185558215620000e4579182015b82811115620000e3578251825591602001919060010190620000c6565b5b509050620000f39190620000f7565b5090565b5b8082111562000112576000816000905550600101620000f8565b5090565b7f4e487b7100000000000000000000000000000000000000000000000000000000600052602260045260246000fd5b600060028204905060018216806200015e57607f821691505b6020821081141562000175576200017462000116565b5b50919050565b6133cf806200018b6000396000f3fe608060405234801561001057600080fd5b50600436106101165760003560e01c80635c8d189d116100a2578063b40a562711610071578063b40a56271461036f578063b9db15b41461038d578063cd274a40146103c6578063e0f6ef87146103fa578063f95a279f1461041857610116565b80635c8d189d146102cc5780636bf693c4146102e8578063aa0cd2b81461031c578063abbfccab1461033a57610116565b8063167d21fc116100e9578063167d21fc146101d15780631b486233146102015780632d2bb2471461023157806354121c741461026157806357c90de51461029c57610116565b80630281ff3a1461011b5780630674ca3c1461014b57806306fdde03146101805780630ba582fb1461019e575b600080fd5b61013560048036038101906101309190612550565b610448565b6040516101429190612596565b60405180910390f35b610165600480360381019061016091906125dd565b610460565b604051610177969594939291906126b2565b60405180910390f35b6101886105cc565b6040516101959190612721565b60405180910390f35b6101b860048036038101906101b39190612743565b61065a565b6040516101c89493929190612783565b60405180910390f35b6101eb60048036038101906101e69190612550565b6106b7565b6040516101f89190612596565b60405180910390f35b61021b600480360381019061021691906128fd565b6106cf565b60405161022891906129bf565b60405180910390f35b61024b60048036038101906102469190612743565b610a87565b6040516102589190612a4d565b60405180910390f35b61027b60048036038101906102769190612a68565b610b3a565b6040516102939c9b9a99989796959493929190612b67565b60405180910390f35b6102b660048036038101906102b19190612743565b610da6565b6040516102c391906129bf565b60405180910390f35b6102e660048036038101906102e19190612c36565b611576565b005b61030260048036038101906102fd9190612550565b611960565b604051610313959493929190612cfb565b60405180910390f35b610324611bd6565b6040516103319190612596565b60405180910390f35b610354600480360381019061034f9190612550565b611bdc565b604051610366969594939291906126b2565b60405180910390f35b610377611d48565b6040516103849190612596565b60405180910390f35b6103a760048036038101906103a291906125dd565b611d4e565b6040516103bd9a99989796959493929190612d6a565b60405180910390f35b6103e060048036038101906103db9190612e14565b61223e565b6040516103f1959493929190612cfb565b60405180910390f35b61040261239c565b60405161040f9190612596565b60405180910390f35b610432600480360381019061042d91906125dd565b6123a2565b60405161043f9190612eff565b60405180910390f35b60066020528060005260406000206000915090505481565b60016020528060005260406000206000915090508060000154908060010160009054906101000a900473ffffffffffffffffffffffffffffffffffffffff16908060020180546104af90612f49565b80601f01602080910402602001604051908101604052809291908181526020018280546104db90612f49565b80156105285780601f106104fd57610100808354040283529160200191610528565b820191906000526020600020905b81548152906001019060200180831161050b57829003601f168201915b50505050509080600301805461053d90612f49565b80601f016020809104026020016040519081016040528092919081815260200182805461056990612f49565b80156105b65780601f1061058b576101008083540402835291602001916105b6565b820191906000526020600020905b81548152906001019060200180831161059957829003601f168201915b5050505050908060040154908060050154905086565b600080546105d990612f49565b80601f016020809104026020016040519081016040528092919081815260200182805461060590612f49565b80156106525780601f1061062757610100808354040283529160200191610652565b820191906000526020600020905b81548152906001019060200180831161063557829003601f168201915b505050505081565b6007602052816000526040600020602052806000526040600020600091509150508060000154908060010154908060020154908060030160009054906101000a900473ffffffffffffffffffffffffffffffffffffffff16905084565b60056020528060005260406000206000915090505481565b60003360016000600560008473ffffffffffffffffffffffffffffffffffffffff1673ffffffffffffffffffffffffffffffffffffffff16815260200190815260200160002054815260200190815260200160002060010160009054906101000a900473ffffffffffffffffffffffffffffffffffffffff1673ffffffffffffffffffffffffffffffffffffffff168173ffffffffffffffffffffffffffffffffffffffff1614156107b6576040517f08c379a00000000000000000000000000000000000000000000000000000000081526004016107ad90612fc7565b60405180910390fd5b6107cc6001600a546123d590919063ffffffff16565b600a819055506040518060c00160405280600a5481526020013373ffffffffffffffffffffffffffffffffffffffff16815260200186815260200184815260200160008152602001600081525060016000600a5481526020019081526020016000206000820151816000015560208201518160010160006101000a81548173ffffffffffffffffffffffffffffffffffffffff021916908373ffffffffffffffffffffffffffffffffffffffff160217905550604082015181600201908051906020019061089b9291906123fd565b5060608201518160030190805190602001906108b89291906123fd565b506080820151816004015560a082015181600501559050506040518060c00160405280600a5481526020013373ffffffffffffffffffffffffffffffffffffffff168152602001868152602001848152602001600081526020016000815250600260003373ffffffffffffffffffffffffffffffffffffffff1673ffffffffffffffffffffffffffffffffffffffff1681526020019081526020016000206000820151816000015560208201518160010160006101000a81548173ffffffffffffffffffffffffffffffffffffffff021916908373ffffffffffffffffffffffffffffffffffffffff16021790555060408201518160020190805190602001906109c39291906123fd565b5060608201518160030190805190602001906109e09291906123fd565b506080820151816004015560a08201518160050155905050600a54600560003373ffffffffffffffffffffffffffffffffffffffff1673ffffffffffffffffffffffffffffffffffffffff168152602001908152602001600020819055507fe8253acf656dc8347730e5bac58063299c552725b3a12635eed3d481d55bac1f33868686604051610a739493929190612fe7565b60405180910390a160019150509392505050565b610a8f612483565b6007600084815260200190815260200160002060008381526020019081526020016000206040518060800160405290816000820154815260200160018201548152602001600282015481526020016003820160009054906101000a900473ffffffffffffffffffffffffffffffffffffffff1673ffffffffffffffffffffffffffffffffffffffff1673ffffffffffffffffffffffffffffffffffffffff1681525050905092915050565b600360205281600052604060002060205280600052604060002060009150915050806000015490806001018054610b7090612f49565b80601f0160208091040260200160405190810160405280929190818152602001828054610b9c90612f49565b8015610be95780601f10610bbe57610100808354040283529160200191610be9565b820191906000526020600020905b815481529060010190602001808311610bcc57829003601f168201915b505050505090806002018054610bfe90612f49565b80601f0160208091040260200160405190810160405280929190818152602001828054610c2a90612f49565b8015610c775780601f10610c4c57610100808354040283529160200191610c77565b820191906000526020600020905b815481529060010190602001808311610c5a57829003601f168201915b505050505090806003018054610c8c90612f49565b80601f0160208091040260200160405190810160405280929190818152602001828054610cb890612f49565b8015610d055780601f10610cda57610100808354040283529160200191610d05565b820191906000526020600020905b815481529060010190602001808311610ce857829003601f168201915b5050505050908060040154908060050154908060060154908060070160009054906101000a900473ffffffffffffffffffffffffffffffffffffffff16908060080160009054906101000a900473ffffffffffffffffffffffffffffffffffffffff16908060080160149054906101000a900460ff16908060080160159054906101000a900460ff16908060080160169054906101000a900460ff1690508c565b6000610dbe6001600c546123d590919063ffffffff16565b600c819055506040518060800160405280600c5481526020018481526020018381526020013373ffffffffffffffffffffffffffffffffffffffff16815250600760008581526020019081526020016000206000600c54815260200190815260200160002060008201518160000155602082015181600101556040820151816002015560608201518160030160006101000a81548173ffffffffffffffffffffffffffffffffffffffff021916908373ffffffffffffffffffffffffffffffffffffffff1602179055509050506000600860003373ffffffffffffffffffffffffffffffffffffffff1673ffffffffffffffffffffffffffffffffffffffff1681526020019081526020016000206040518060a00160405290816000820160009054906101000a900473ffffffffffffffffffffffffffffffffffffffff1673ffffffffffffffffffffffffffffffffffffffff1673ffffffffffffffffffffffffffffffffffffffff168152602001600182018054610f3d90612f49565b80601f0160208091040260200160405190810160405280929190818152602001828054610f6990612f49565b8015610fb65780601f10610f8b57610100808354040283529160200191610fb6565b820191906000526020600020905b815481529060010190602001808311610f9957829003601f168201915b50505050508152602001600282018054610fcf90612f49565b80601f0160208091040260200160405190810160405280929190818152602001828054610ffb90612f49565b80156110485780601f1061101d57610100808354040283529160200191611048565b820191906000526020600020905b81548152906001019060200180831161102b57829003601f168201915b5050505050815260200160038201805461106190612f49565b80601f016020809104026020016040519081016040528092919081815260200182805461108d90612f49565b80156110da5780601f106110af576101008083540402835291602001916110da565b820191906000526020600020905b8154815290600101906020018083116110bd57829003601f168201915b505050505081526020016004820180546110f390612f49565b80601f016020809104026020016040519081016040528092919081815260200182805461111f90612f49565b801561116c5780601f106111415761010080835404028352916020019161116c565b820191906000526020600020905b81548152906001019060200180831161114f57829003601f168201915b505050505081525050905060006004600086815260200190815260200160002060009054906101000a900473ffffffffffffffffffffffffffffffffffffffff1690506000600360008373ffffffffffffffffffffffffffffffffffffffff1673ffffffffffffffffffffffffffffffffffffffff1681526020019081526020016000206000878152602001908152602001600020604051806101800160405290816000820154815260200160018201805461122790612f49565b80601f016020809104026020016040519081016040528092919081815260200182805461125390612f49565b80156112a05780601f10611275576101008083540402835291602001916112a0565b820191906000526020600020905b81548152906001019060200180831161128357829003601f168201915b505050505081526020016002820180546112b990612f49565b80601f01602080910402602001604051908101604052809291908181526020018280546112e590612f49565b80156113325780601f1061130757610100808354040283529160200191611332565b820191906000526020600020905b81548152906001019060200180831161131557829003601f168201915b5050505050815260200160038201805461134b90612f49565b80601f016020809104026020016040519081016040528092919081815260200182805461137790612f49565b80156113c45780601f10611399576101008083540402835291602001916113c4565b820191906000526020600020905b8154815290600101906020018083116113a757829003601f168201915b505050505081526020016004820154815260200160058201548152602001600682015481526020016007820160009054906101000a900473ffffffffffffffffffffffffffffffffffffffff1673ffffffffffffffffffffffffffffffffffffffff1673ffffffffffffffffffffffffffffffffffffffff1681526020016008820160009054906101000a900473ffffffffffffffffffffffffffffffffffffffff1673ffffffffffffffffffffffffffffffffffffffff1673ffffffffffffffffffffffffffffffffffffffff1681526020016008820160149054906101000a900460ff1660018111156114bc576114bb612aa8565b5b60018111156114ce576114cd612aa8565b5b81526020016008820160159054906101000a900460ff1660048111156114f7576114f6612aa8565b5b600481111561150957611508612aa8565b5b81526020016008820160169054906101000a900460ff16151515158152505090507f2cda2879f47b1beb6143213ed4f8f5dff974f8f4a072f0264e23a5e3afce8a76600c548287866040516115619493929190613255565b60405180910390a16001935050505092915050565b61158c6001600b546123d590919063ffffffff16565b600b819055506000604051806101800160405280600b5481526020018881526020018781526020016040518060400160405280600581526020017f656d7074790000000000000000000000000000000000000000000000000000008152508152602001868152602001858152602001848152602001600073ffffffffffffffffffffffffffffffffffffffff1681526020013373ffffffffffffffffffffffffffffffffffffffff16815260200183600181111561164d5761164c612aa8565b5b600181111561165f5761165e612aa8565b5b81526020016000600481111561167857611677612aa8565b5b815260200160011515815250905080600360003373ffffffffffffffffffffffffffffffffffffffff1673ffffffffffffffffffffffffffffffffffffffff1681526020019081526020016000206000600b5481526020019081526020016000206000820151816000015560208201518160010190805190602001906116ff9291906123fd565b50604082015181600201908051906020019061171c9291906123fd565b5060608201518160030190805190602001906117399291906123fd565b506080820151816004015560a0820151816005015560c0820151816006015560e08201518160070160006101000a81548173ffffffffffffffffffffffffffffffffffffffff021916908373ffffffffffffffffffffffffffffffffffffffff1602179055506101008201518160080160006101000a81548173ffffffffffffffffffffffffffffffffffffffff021916908373ffffffffffffffffffffffffffffffffffffffff1602179055506101208201518160080160146101000a81548160ff0219169083600181111561181357611812612aa8565b5b02179055506101408201518160080160156101000a81548160ff0219169083600481111561184457611843612aa8565b5b02179055506101608201518160080160166101000a81548160ff0219169083151502179055509050503360046000600b54815260200190815260200160002060006101000a81548173ffffffffffffffffffffffffffffffffffffffff021916908373ffffffffffffffffffffffffffffffffffffffff1602179055506119146001600660003373ffffffffffffffffffffffffffffffffffffffff1673ffffffffffffffffffffffffffffffffffffffff168152602001908152602001600020546123d590919063ffffffff16565b600660003373ffffffffffffffffffffffffffffffffffffffff1673ffffffffffffffffffffffffffffffffffffffff1681526020019081526020016000208190555050505050505050565b60086020528060005260406000206000915090508060000160009054906101000a900473ffffffffffffffffffffffffffffffffffffffff16908060010180546119a990612f49565b80601f01602080910402602001604051908101604052809291908181526020018280546119d590612f49565b8015611a225780601f106119f757610100808354040283529160200191611a22565b820191906000526020600020905b815481529060010190602001808311611a0557829003601f168201915b505050505090806002018054611a3790612f49565b80601f0160208091040260200160405190810160405280929190818152602001828054611a6390612f49565b8015611ab05780601f10611a8557610100808354040283529160200191611ab0565b820191906000526020600020905b815481529060010190602001808311611a9357829003601f168201915b505050505090806003018054611ac590612f49565b80601f0160208091040260200160405190810160405280929190818152602001828054611af190612f49565b8015611b3e5780601f10611b1357610100808354040283529160200191611b3e565b820191906000526020600020905b815481529060010190602001808311611b2157829003601f168201915b505050505090806004018054611b5390612f49565b80601f0160208091040260200160405190810160405280929190818152602001828054611b7f90612f49565b8015611bcc5780601f10611ba157610100808354040283529160200191611bcc565b820191906000526020600020905b815481529060010190602001808311611baf57829003601f168201915b5050505050905085565b600a5481565b60026020528060005260406000206000915090508060000154908060010160009054906101000a900473ffffffffffffffffffffffffffffffffffffffff1690806002018054611c2b90612f49565b80601f0160208091040260200160405190810160405280929190818152602001828054611c5790612f49565b8015611ca45780601f10611c7957610100808354040283529160200191611ca4565b820191906000526020600020905b815481529060010190602001808311611c8757829003601f168201915b505050505090806003018054611cb990612f49565b80601f0160208091040260200160405190810160405280929190818152602001828054611ce590612f49565b8015611d325780601f10611d0757610100808354040283529160200191611d32565b820191906000526020600020905b815481529060010190602001808311611d1557829003601f168201915b5050505050908060040154908060050154905086565b600c5481565b600060608060008060008060008060008a600360006004600084815260200190815260200160002060009054906101000a900473ffffffffffffffffffffffffffffffffffffffff1673ffffffffffffffffffffffffffffffffffffffff1673ffffffffffffffffffffffffffffffffffffffff168152602001908152602001600020600082815260200190815260200160002060080160169054906101000a900460ff16611e32576040517f08c379a0000000000000000000000000000000000000000000000000000000008152600401611e29906132f4565b60405180910390fd5b6000600460008e815260200190815260200160002060009054906101000a900473ffffffffffffffffffffffffffffffffffffffff1690506000600360008373ffffffffffffffffffffffffffffffffffffffff1673ffffffffffffffffffffffffffffffffffffffff16815260200190815260200160002060008f81526020019081526020016000206040518061018001604052908160008201548152602001600182018054611ee290612f49565b80601f0160208091040260200160405190810160405280929190818152602001828054611f0e90612f49565b8015611f5b5780601f10611f3057610100808354040283529160200191611f5b565b820191906000526020600020905b815481529060010190602001808311611f3e57829003601f168201915b50505050508152602001600282018054611f7490612f49565b80601f0160208091040260200160405190810160405280929190818152602001828054611fa090612f49565b8015611fed5780601f10611fc257610100808354040283529160200191611fed565b820191906000526020600020905b815481529060010190602001808311611fd057829003601f168201915b5050505050815260200160038201805461200690612f49565b80601f016020809104026020016040519081016040528092919081815260200182805461203290612f49565b801561207f5780601f106120545761010080835404028352916020019161207f565b820191906000526020600020905b81548152906001019060200180831161206257829003601f168201915b505050505081526020016004820154815260200160058201548152602001600682015481526020016007820160009054906101000a900473ffffffffffffffffffffffffffffffffffffffff1673ffffffffffffffffffffffffffffffffffffffff1673ffffffffffffffffffffffffffffffffffffffff1681526020016008820160009054906101000a900473ffffffffffffffffffffffffffffffffffffffff1673ffffffffffffffffffffffffffffffffffffffff1673ffffffffffffffffffffffffffffffffffffffff1681526020016008820160149054906101000a900460ff16600181111561217757612176612aa8565b5b600181111561218957612188612aa8565b5b81526020016008820160159054906101000a900460ff1660048111156121b2576121b1612aa8565b5b60048111156121c4576121c3612aa8565b5b81526020016008820160169054906101000a900460ff161515151581525050905080600001518160200151826040015183608001518460a001518560c001518660e001518761010001518861012001518961014001519c509c509c509c509c509c509c509c509c509c505050509193959799509193959799565b60006060806060806040518060a001604052808b73ffffffffffffffffffffffffffffffffffffffff1681526020018a815260200189815260200188815260200187815250600860008c73ffffffffffffffffffffffffffffffffffffffff1673ffffffffffffffffffffffffffffffffffffffff16815260200190815260200160002060008201518160000160006101000a81548173ffffffffffffffffffffffffffffffffffffffff021916908373ffffffffffffffffffffffffffffffffffffffff16021790555060208201518160010190805190602001906123259291906123fd565b5060408201518160020190805190602001906123429291906123fd565b50606082015181600301908051906020019061235f9291906123fd565b50608082015181600401908051906020019061237c9291906123fd565b509050508989898989945094509450945094509550955095509550959050565b600b5481565b60046020528060005260406000206000915054906101000a900473ffffffffffffffffffffffffffffffffffffffff1681565b60008082846123e49190613343565b9050838110156123f357600080fd5b8091505092915050565b82805461240990612f49565b90600052602060002090601f01602090048101928261242b5760008555612472565b82601f1061244457805160ff1916838001178555612472565b82800160010185558215612472579182015b82811115612471578251825591602001919060010190612456565b5b50905061247f91906124c1565b5090565b6040518060800160405280600081526020016000815260200160008152602001600073ffffffffffffffffffffffffffffffffffffffff1681525090565b5b808211156124da5760008160009055506001016124c2565b5090565b6000604051905090565b600080fd5b600080fd5b600073ffffffffffffffffffffffffffffffffffffffff82169050919050565b600061251d826124f2565b9050919050565b61252d81612512565b811461253857600080fd5b50565b60008135905061254a81612524565b92915050565b600060208284031215612566576125656124e8565b5b60006125748482850161253b565b91505092915050565b6000819050919050565b6125908161257d565b82525050565b60006020820190506125ab6000830184612587565b92915050565b6125ba8161257d565b81146125c557600080fd5b50565b6000813590506125d7816125b1565b92915050565b6000602082840312156125f3576125f26124e8565b5b6000612601848285016125c8565b91505092915050565b61261381612512565b82525050565b600081519050919050565b600082825260208201905092915050565b60005b83811015612653578082015181840152602081019050612638565b83811115612662576000848401525b50505050565b6000601f19601f8301169050919050565b600061268482612619565b61268e8185612624565b935061269e818560208601612635565b6126a781612668565b840191505092915050565b600060c0820190506126c76000830189612587565b6126d4602083018861260a565b81810360408301526126e68187612679565b905081810360608301526126fa8186612679565b90506127096080830185612587565b61271660a0830184612587565b979650505050505050565b6000602082019050818103600083015261273b8184612679565b905092915050565b6000806040838503121561275a576127596124e8565b5b6000612768858286016125c8565b9250506020612779858286016125c8565b9150509250929050565b60006080820190506127986000830187612587565b6127a56020830186612587565b6127b26040830185612587565b6127bf606083018461260a565b95945050505050565b600080fd5b600080fd5b7f4e487b7100000000000000000000000000000000000000000000000000000000600052604160045260246000fd5b61280a82612668565b810181811067ffffffffffffffff82111715612829576128286127d2565b5b80604052505050565b600061283c6124de565b90506128488282612801565b919050565b600067ffffffffffffffff821115612868576128676127d2565b5b61287182612668565b9050602081019050919050565b82818337600083830152505050565b60006128a061289b8461284d565b612832565b9050828152602081018484840111156128bc576128bb6127cd565b5b6128c784828561287e565b509392505050565b600082601f8301126128e4576128e36127c8565b5b81356128f484826020860161288d565b91505092915050565b600080600060608486031215612916576129156124e8565b5b600084013567ffffffffffffffff811115612934576129336124ed565b5b612940868287016128cf565b935050602084013567ffffffffffffffff811115612961576129606124ed565b5b61296d868287016128cf565b925050604084013567ffffffffffffffff81111561298e5761298d6124ed565b5b61299a868287016128cf565b9150509250925092565b60008115159050919050565b6129b9816129a4565b82525050565b60006020820190506129d460008301846129b0565b92915050565b6129e38161257d565b82525050565b6129f281612512565b82525050565b608082016000820151612a0e60008501826129da565b506020820151612a2160208501826129da565b506040820151612a3460408501826129da565b506060820151612a4760608501826129e9565b50505050565b6000608082019050612a6260008301846129f8565b92915050565b60008060408385031215612a7f57612a7e6124e8565b5b6000612a8d8582860161253b565b9250506020612a9e858286016125c8565b9150509250929050565b7f4e487b7100000000000000000000000000000000000000000000000000000000600052602160045260246000fd5b60028110612ae857612ae7612aa8565b5b50565b6000819050612af982612ad7565b919050565b6000612b0982612aeb565b9050919050565b612b1981612afe565b82525050565b60058110612b3057612b2f612aa8565b5b50565b6000819050612b4182612b1f565b919050565b6000612b5182612b33565b9050919050565b612b6181612b46565b82525050565b600061018082019050612b7d600083018f612587565b8181036020830152612b8f818e612679565b90508181036040830152612ba3818d612679565b90508181036060830152612bb7818c612679565b9050612bc6608083018b612587565b612bd360a083018a612587565b612be060c0830189612587565b612bed60e083018861260a565b612bfb61010083018761260a565b612c09610120830186612b10565b612c17610140830185612b58565b612c256101608301846129b0565b9d9c50505050505050505050505050565b60008060008060008060c08789031215612c5357612c526124e8565b5b600087013567ffffffffffffffff811115612c7157612c706124ed565b5b612c7d89828a016128cf565b965050602087013567ffffffffffffffff811115612c9e57612c9d6124ed565b5b612caa89828a016128cf565b9550506040612cbb89828a016125c8565b9450506060612ccc89828a016125c8565b9350506080612cdd89828a016125c8565b92505060a0612cee89828a016125c8565b9150509295509295509295565b600060a082019050612d10600083018861260a565b8181036020830152612d228187612679565b90508181036040830152612d368186612679565b90508181036060830152612d4a8185612679565b90508181036080830152612d5e8184612679565b90509695505050505050565b600061014082019050612d80600083018d612587565b8181036020830152612d92818c612679565b90508181036040830152612da6818b612679565b9050612db5606083018a612587565b612dc26080830189612587565b612dcf60a0830188612587565b612ddc60c083018761260a565b612de960e083018661260a565b612df7610100830185612b10565b612e05610120830184612b58565b9b9a5050505050505050505050565b600080600080600060a08688031215612e3057612e2f6124e8565b5b6000612e3e8882890161253b565b955050602086013567ffffffffffffffff811115612e5f57612e5e6124ed565b5b612e6b888289016128cf565b945050604086013567ffffffffffffffff811115612e8c57612e8b6124ed565b5b612e98888289016128cf565b935050606086013567ffffffffffffffff811115612eb957612eb86124ed565b5b612ec5888289016128cf565b925050608086013567ffffffffffffffff811115612ee657612ee56124ed565b5b612ef2888289016128cf565b9150509295509295909350565b6000602082019050612f14600083018461260a565b92915050565b7f4e487b7100000000000000000000000000000000000000000000000000000000600052602260045260246000fd5b60006002820490506001821680612f6157607f821691505b60208210811415612f7557612f74612f1a565b5b50919050565b7f5573657220616c72656164792068617320612073746f72650000000000000000600082015250565b6000612fb1601883612624565b9150612fbc82612f7b565b602082019050919050565b60006020820190508181036000830152612fe081612fa4565b9050919050565b6000608082019050612ffc600083018761260a565b818103602083015261300e8186612679565b905081810360408301526130228185612679565b905081810360608301526130368184612679565b905095945050505050565b600082825260208201905092915050565b600061305d82612619565b6130678185613041565b9350613077818560208601612635565b61308081612668565b840191505092915050565b61309481612afe565b82525050565b6130a381612b46565b82525050565b6130b2816129a4565b82525050565b6000610180830160008301516130d160008601826129da565b50602083015184820360208601526130e98282613052565b915050604083015184820360408601526131038282613052565b9150506060830151848203606086015261311d8282613052565b915050608083015161313260808601826129da565b5060a083015161314560a08601826129da565b5060c083015161315860c08601826129da565b5060e083015161316b60e08601826129e9565b506101008301516131806101008601826129e9565b5061012083015161319561012086018261308b565b506101408301516131aa61014086018261309a565b506101608301516131bf6101608601826130a9565b508091505092915050565b600060a0830160008301516131e260008601826129e9565b50602083015184820360208601526131fa8282613052565b915050604083015184820360408601526132148282613052565b9150506060830151848203606086015261322e8282613052565b915050608083015184820360808601526132488282613052565b9150508091505092915050565b600060808201905061326a6000830187612587565b818103602083015261327c81866130b8565b905061328b6040830185612587565b818103606083015261329d81846131ca565b905095945050505050565b7f50726f64756374206e6f7420666f756e642e0000000000000000000000000000600082015250565b60006132de601283612624565b91506132e9826132a8565b602082019050919050565b6000602082019050818103600083015261330d816132d1565b9050919050565b7f4e487b7100000000000000000000000000000000000000000000000000000000600052601160045260246000fd5b600061334e8261257d565b91506133598361257d565b9250827fffffffffffffffffffffffffffffffffffffffffffffffffffffffffffffffff0382111561338e5761338d613314565b5b82820190509291505056fea26469706673582212205fad1bd9aaa38c5303871e24cff96eb4b70490cee02128aeb31f7f25e6c0fc9d64736f6c634300080a0033",
  "immutableReferences": {},
  "source": "pragma solidity >=0.4.22 <0.9.0;\npragma experimental ABIEncoderV2;\n\nimport \"./SafeMath.sol\";\n\n\ncontract Auction {\n    using SafeMath for uint256;\n\n    string public name = \"Auction\";\n\n    mapping (uint => Store) public storesById;                   // Stores by id\n    mapping (address => Store) public storesByAddress;                   // Stores by id\n    mapping (address => mapping(uint => Product)) public stores; // products by stores\n    mapping (uint => address) public storesByProductId;          // seller address by product id\n    mapping (address => uint) public storesBySellers;            // store by seller address, used to prevent more than one store per user\n    mapping (address => uint) public productCountByStore;        // product count by store\n    mapping (uint => mapping(uint => Bid)) public bidsByProduct;\n    mapping (address => User) public usersByAddress;\n\n    // events\n    event NewProductAdded(address storeAddress, address productAddress);\n    event NewStoreAdded(address storeAddress, string storeName, string email, string storeFrontImage);\n    event NewBid (uint id, Product product, uint bidAmount, User bidder);\n\n    modifier OnlyOwner(){\n        require(msg.sender == owner,\"ONLY ADMIN IS ALLOWED\");\n        _;\n    }\n\n    modifier onlyBefore(uint _time) {\n        require(block.timestamp < _time);\n        _;\n    }\n\n    modifier onlyAfter(uint _time) {\n        require(block.timestamp > _time);\n        _;\n    }\n    \n    // modifier Only_Doctors{\n    //     require(DoctorInfo[msg.sender].state == true,\"REGISTERED DOCTORS ONLY\");\n    //     _;\n    // }\n    \n    // modifier Only_Patients{\n    //     require(PatientInfo[msg.sender].state == true,\"REGISTERED PATIENTS ONLY\");\n    //     _;\n    // }\n\n    address owner;\n    \n    // constructor\n    constructor() public {}\n    \n    // global states\n\n    uint public storesCount;\n    uint public productCount;\n    uint public bidCount;\n\n    // structs\n\n    struct User {\n        address userAddress;\n        string firstName;\n        string lastName;\n        string email;\n        string phoneNumber;\n    }\n\n    // store\n    struct Store{\n        uint storeId;\n        address userAddress;\n        string storeName;   \n        string storeFrontImage;\n        uint balance;\n        uint productCount;\n    }\n\n    // product \n    enum ProductCondition {New, Used}\n    enum ProductState {ForSale, Sold, Shipped, Received, Deleted}\n    struct Product {\n        uint id;\n        string productName;//\n        string category;//\n        string imageLink;//\n        uint startTime;//\n        uint endTime;//\n        uint price;//\n        address buyer;\n        address sellerAddress;\n        ProductCondition productCondition;//\n        ProductState productState;//\n        bool exists;\n    }\n\n    // auction\n    struct Bid {\n        uint id;\n        uint productId;\n        uint bidAmount;\n        address bidderAddress;\n    }\n\n    // create user\n    function addUser (address userAddress, string memory firstName, string memory lastName, string memory email, string memory phoneNumber) public returns(address _userAddress, string memory _firstName, string memory _lastName, string memory _email, string memory _phoneNumber) {\n        usersByAddress[userAddress] = User(userAddress, firstName, lastName, email, phoneNumber);\n        return (\n            userAddress,\n            firstName,\n            lastName,\n            email, \n            phoneNumber\n        );\n    }\n\n    // create bid\n    function placeBid (uint productId, uint bidAmount) public returns (bool success){\n        bidCount = bidCount.add(1);\n        bidsByProduct[productId][bidCount] = Bid(bidCount, productId, bidAmount, msg.sender);\n        User memory bidder = usersByAddress[msg.sender];\n        address x = storesByProductId[productId];\n        Product memory product = stores[x][productId];\n        emit NewBid(bidCount, product, bidAmount, bidder);\n        return true;\n    }\n\n    // get product bids\n    function getProductBids (uint productId, uint bidId) public returns (Bid memory bids) {\n        return bidsByProduct[productId][bidId];\n    }\n\n    // create store\n    modifier notHaveStore(address sellerAddress) { \n        require(!(sellerAddress == storesById[storesBySellers[sellerAddress]].userAddress), \"User already has a store\" ); \n        _;\n    }\n\n    function  addStore(\n        string memory _name, \n        string memory _email,\n        string memory _storeFrontImage\n    )\n        public\n        notHaveStore(msg.sender)\n        returns (bool)\n    { \n        // require(true);\n        storesCount = storesCount.add(1);\n        storesById[storesCount] = Store(storesCount, msg.sender, _name, _storeFrontImage, 0, 0);\n        storesByAddress[msg.sender] = Store(storesCount, msg.sender, _name, _storeFrontImage, 0, 0);\n        storesBySellers[msg.sender] = storesCount;\n        emit NewStoreAdded(msg.sender,_name, _email, _storeFrontImage);\n        return true;\n    }\n\n    // add product\n    modifier onlyStoreOwner() { \n        require(storesById[storesBySellers[msg.sender]].userAddress == msg.sender, \"You are not the store owner!\" ); \n        _;\n    }\n    modifier productExists(uint _id) { require( stores[storesByProductId[_id]][_id].exists, \"Product not found.\"); _; }\n\n     function addProduct(\n        string memory _name, \n        string memory _category, \n        uint _startTime, \n        uint _endTime, \n        uint _price, \n        uint _productCondition\n    ) \n        public\n    {        \n        productCount = productCount.add(1);\n\n        Product memory product = Product(\n            productCount,\n            _name, \n            _category, \n            \"empty\", \n            _startTime, \n            _endTime,\n            _price,\n            address(0), \n            msg.sender, \n            ProductCondition(_productCondition),  \n            ProductState.ForSale,\n            true\n        );\n\n        stores[msg.sender][productCount] = product; \n        storesByProductId[productCount] = msg.sender;\n\n        // update product count by store\n        productCountByStore[msg.sender] = productCountByStore[msg.sender].add(1);        \n    }\n\n    // get product\n    function getProduct(uint _id) \n        public \n        productExists(_id)\n        view \n        returns(\n            uint id, \n            string memory productName, \n            string memory category, \n            uint startTime, \n            uint endTime, \n            uint price, \n            address buyer, \n            address sellerAddress, \n            ProductCondition condition,\n            ProductState productState\n        ) \n    {\n        address x = storesByProductId[_id];\n\n        Product memory product = stores[x][_id]; // load product from memory\n        return (\n            product.id, \n            product.productName, \n            product.category, \n            product.startTime,\n            product.endTime,\n            product.price, \n            product.buyer, \n            product.sellerAddress, \n            product.productCondition,\n            product.productState\n        );\n    }\n\n}",
  "sourcePath": "/home/rediet/Documents/custom-auction/auction-blockchain-main/Truffle/contracts/Auction.sol",
  "compiler": {
    "name": "solc",
    "version": "0.8.10+commit.fc410830.Emscripten.clang"
  },
  "schemaVersion": "3.4.4",
  "updatedAt": "2022-01-12T19:33:37.467Z",
  "networkType": "ethereum",
  "devdoc": {
    "kind": "dev",
    "methods": {},
    "version": 1
  },
  "userdoc": {
    "kind": "user",
    "methods": {},
    "version": 1
  }
}