{
  "contractName": "Auction",
  "abi": [
    {
      "inputs": [],
      "stateMutability": "nonpayable",
      "type": "constructor"
    },
    {
      "anonymous": false,
      "inputs": [
        {
          "indexed": false,
          "internalType": "uint256",
          "name": "id",
          "type": "uint256"
        },
        {
          "components": [
            {
              "internalType": "uint256",
              "name": "id",
              "type": "uint256"
            },
            {
              "internalType": "string",
              "name": "productName",
              "type": "string"
            },
            {
              "internalType": "string",
              "name": "category",
              "type": "string"
            },
            {
              "internalType": "string",
              "name": "imageLink",
              "type": "string"
            },
            {
              "internalType": "uint256",
              "name": "startTime",
              "type": "uint256"
            },
            {
              "internalType": "uint256",
              "name": "endTime",
              "type": "uint256"
            },
            {
              "internalType": "uint256",
              "name": "price",
              "type": "uint256"
            },
            {
              "internalType": "address",
              "name": "buyer",
              "type": "address"
            },
            {
              "internalType": "address",
              "name": "sellerAddress",
              "type": "address"
            },
            {
              "internalType": "enum Auction.ProductCondition",
              "name": "productCondition",
              "type": "uint8"
            },
            {
              "internalType": "enum Auction.ProductState",
              "name": "productState",
              "type": "uint8"
            },
            {
              "internalType": "bool",
              "name": "exists",
              "type": "bool"
            }
          ],
          "indexed": false,
          "internalType": "struct Auction.Product",
          "name": "product",
          "type": "tuple"
        },
        {
          "indexed": false,
          "internalType": "uint256",
          "name": "bidAmount",
          "type": "uint256"
        },
        {
          "components": [
            {
              "internalType": "address",
              "name": "userAddress",
              "type": "address"
            },
            {
              "internalType": "string",
              "name": "firstName",
              "type": "string"
            },
            {
              "internalType": "string",
              "name": "lastName",
              "type": "string"
            },
            {
              "internalType": "string",
              "name": "email",
              "type": "string"
            },
            {
              "internalType": "string",
              "name": "phoneNumber",
              "type": "string"
            }
          ],
          "indexed": false,
          "internalType": "struct Auction.User",
          "name": "bidder",
          "type": "tuple"
        }
      ],
      "name": "NewBid",
      "type": "event"
    },
    {
      "anonymous": false,
      "inputs": [
        {
          "indexed": false,
          "internalType": "address",
          "name": "storeAddress",
          "type": "address"
        },
        {
          "indexed": false,
          "internalType": "address",
          "name": "productAddress",
          "type": "address"
        }
      ],
      "name": "NewProductAdded",
      "type": "event"
    },
    {
      "anonymous": false,
      "inputs": [
        {
          "indexed": false,
          "internalType": "address",
          "name": "storeAddress",
          "type": "address"
        },
        {
          "indexed": false,
          "internalType": "string",
          "name": "storeName",
          "type": "string"
        },
        {
          "indexed": false,
          "internalType": "string",
          "name": "email",
          "type": "string"
        },
        {
          "indexed": false,
          "internalType": "string",
          "name": "storeFrontImage",
          "type": "string"
        }
      ],
      "name": "NewStoreAdded",
      "type": "event"
    },
    {
      "inputs": [],
      "name": "bidCount",
      "outputs": [
        {
          "internalType": "uint256",
          "name": "",
          "type": "uint256"
        }
      ],
      "stateMutability": "view",
      "type": "function",
      "constant": true
    },
    {
      "inputs": [
        {
          "internalType": "uint256",
          "name": "",
          "type": "uint256"
        }
      ],
      "name": "bidCountByProduct",
      "outputs": [
        {
          "internalType": "uint256",
          "name": "",
          "type": "uint256"
        }
      ],
      "stateMutability": "view",
      "type": "function",
      "constant": true
    },
    {
      "inputs": [
        {
          "internalType": "uint256",
          "name": "",
          "type": "uint256"
        },
        {
          "internalType": "uint256",
          "name": "",
          "type": "uint256"
        }
      ],
      "name": "bidsByProduct",
      "outputs": [
        {
          "internalType": "uint256",
          "name": "id",
          "type": "uint256"
        },
        {
          "internalType": "uint256",
          "name": "productId",
          "type": "uint256"
        },
        {
          "internalType": "uint256",
          "name": "bidAmount",
          "type": "uint256"
        },
        {
          "internalType": "address",
          "name": "bidderAddress",
          "type": "address"
        }
      ],
      "stateMutability": "view",
      "type": "function",
      "constant": true
    },
    {
      "inputs": [],
      "name": "name",
      "outputs": [
        {
          "internalType": "string",
          "name": "",
          "type": "string"
        }
      ],
      "stateMutability": "view",
      "type": "function",
      "constant": true
    },
    {
      "inputs": [],
      "name": "productCount",
      "outputs": [
        {
          "internalType": "uint256",
          "name": "",
          "type": "uint256"
        }
      ],
      "stateMutability": "view",
      "type": "function",
      "constant": true
    },
    {
      "inputs": [
        {
          "internalType": "address",
          "name": "",
          "type": "address"
        }
      ],
      "name": "productCountByStore",
      "outputs": [
        {
          "internalType": "uint256",
          "name": "",
          "type": "uint256"
        }
      ],
      "stateMutability": "view",
      "type": "function",
      "constant": true
    },
    {
      "inputs": [
        {
          "internalType": "address",
          "name": "",
          "type": "address"
        },
        {
          "internalType": "uint256",
          "name": "",
          "type": "uint256"
        }
      ],
      "name": "stores",
      "outputs": [
        {
          "internalType": "uint256",
          "name": "id",
          "type": "uint256"
        },
        {
          "internalType": "string",
          "name": "productName",
          "type": "string"
        },
        {
          "internalType": "string",
          "name": "category",
          "type": "string"
        },
        {
          "internalType": "string",
          "name": "imageLink",
          "type": "string"
        },
        {
          "internalType": "uint256",
          "name": "startTime",
          "type": "uint256"
        },
        {
          "internalType": "uint256",
          "name": "endTime",
          "type": "uint256"
        },
        {
          "internalType": "uint256",
          "name": "price",
          "type": "uint256"
        },
        {
          "internalType": "address",
          "name": "buyer",
          "type": "address"
        },
        {
          "internalType": "address",
          "name": "sellerAddress",
          "type": "address"
        },
        {
          "internalType": "enum Auction.ProductCondition",
          "name": "productCondition",
          "type": "uint8"
        },
        {
          "internalType": "enum Auction.ProductState",
          "name": "productState",
          "type": "uint8"
        },
        {
          "internalType": "bool",
          "name": "exists",
          "type": "bool"
        }
      ],
      "stateMutability": "view",
      "type": "function",
      "constant": true
    },
    {
      "inputs": [
        {
          "internalType": "address",
          "name": "",
          "type": "address"
        }
      ],
      "name": "storesByAddress",
      "outputs": [
        {
          "internalType": "uint256",
          "name": "storeId",
          "type": "uint256"
        },
        {
          "internalType": "address",
          "name": "userAddress",
          "type": "address"
        },
        {
          "internalType": "string",
          "name": "storeName",
          "type": "string"
        },
        {
          "internalType": "string",
          "name": "storeFrontImage",
          "type": "string"
        },
        {
          "internalType": "uint256",
          "name": "balance",
          "type": "uint256"
        },
        {
          "internalType": "uint256",
          "name": "productCount",
          "type": "uint256"
        }
      ],
      "stateMutability": "view",
      "type": "function",
      "constant": true
    },
    {
      "inputs": [
        {
          "internalType": "uint256",
          "name": "",
          "type": "uint256"
        }
      ],
      "name": "storesById",
      "outputs": [
        {
          "internalType": "uint256",
          "name": "storeId",
          "type": "uint256"
        },
        {
          "internalType": "address",
          "name": "userAddress",
          "type": "address"
        },
        {
          "internalType": "string",
          "name": "storeName",
          "type": "string"
        },
        {
          "internalType": "string",
          "name": "storeFrontImage",
          "type": "string"
        },
        {
          "internalType": "uint256",
          "name": "balance",
          "type": "uint256"
        },
        {
          "internalType": "uint256",
          "name": "productCount",
          "type": "uint256"
        }
      ],
      "stateMutability": "view",
      "type": "function",
      "constant": true
    },
    {
      "inputs": [
        {
          "internalType": "uint256",
          "name": "",
          "type": "uint256"
        }
      ],
      "name": "storesByProductId",
      "outputs": [
        {
          "internalType": "address",
          "name": "",
          "type": "address"
        }
      ],
      "stateMutability": "view",
      "type": "function",
      "constant": true
    },
    {
      "inputs": [
        {
          "internalType": "address",
          "name": "",
          "type": "address"
        }
      ],
      "name": "storesBySellers",
      "outputs": [
        {
          "internalType": "uint256",
          "name": "",
          "type": "uint256"
        }
      ],
      "stateMutability": "view",
      "type": "function",
      "constant": true
    },
    {
      "inputs": [],
      "name": "storesCount",
      "outputs": [
        {
          "internalType": "uint256",
          "name": "",
          "type": "uint256"
        }
      ],
      "stateMutability": "view",
      "type": "function",
      "constant": true
    },
    {
      "inputs": [
        {
          "internalType": "address",
          "name": "",
          "type": "address"
        }
      ],
      "name": "usersByAddress",
      "outputs": [
        {
          "internalType": "address",
          "name": "userAddress",
          "type": "address"
        },
        {
          "internalType": "string",
          "name": "firstName",
          "type": "string"
        },
        {
          "internalType": "string",
          "name": "lastName",
          "type": "string"
        },
        {
          "internalType": "string",
          "name": "email",
          "type": "string"
        },
        {
          "internalType": "string",
          "name": "phoneNumber",
          "type": "string"
        }
      ],
      "stateMutability": "view",
      "type": "function",
      "constant": true
    },
    {
      "inputs": [
        {
          "internalType": "address",
          "name": "userAddress",
          "type": "address"
        },
        {
          "internalType": "string",
          "name": "firstName",
          "type": "string"
        },
        {
          "internalType": "string",
          "name": "lastName",
          "type": "string"
        },
        {
          "internalType": "string",
          "name": "email",
          "type": "string"
        },
        {
          "internalType": "string",
          "name": "phoneNumber",
          "type": "string"
        }
      ],
      "name": "addUser",
      "outputs": [
        {
          "internalType": "address",
          "name": "_userAddress",
          "type": "address"
        },
        {
          "internalType": "string",
          "name": "_firstName",
          "type": "string"
        },
        {
          "internalType": "string",
          "name": "_lastName",
          "type": "string"
        },
        {
          "internalType": "string",
          "name": "_email",
          "type": "string"
        },
        {
          "internalType": "string",
          "name": "_phoneNumber",
          "type": "string"
        }
      ],
      "stateMutability": "nonpayable",
      "type": "function"
    },
    {
      "inputs": [
        {
          "internalType": "address",
          "name": "userAddress",
          "type": "address"
        }
      ],
      "name": "getUser",
      "outputs": [
        {
          "internalType": "address",
          "name": "_userAddress",
          "type": "address"
        },
        {
          "internalType": "string",
          "name": "_firstName",
          "type": "string"
        },
        {
          "internalType": "string",
          "name": "_lastName",
          "type": "string"
        },
        {
          "internalType": "string",
          "name": "_email",
          "type": "string"
        },
        {
          "internalType": "string",
          "name": "_phoneNumber",
          "type": "string"
        }
      ],
      "stateMutability": "view",
      "type": "function",
      "constant": true
    },
    {
      "inputs": [
        {
          "internalType": "uint256",
          "name": "productId",
          "type": "uint256"
        },
        {
          "internalType": "uint256",
          "name": "bidAmount",
          "type": "uint256"
        }
      ],
      "name": "placeBid",
      "outputs": [
        {
          "internalType": "bool",
          "name": "success",
          "type": "bool"
        }
      ],
      "stateMutability": "nonpayable",
      "type": "function"
    },
    {
      "inputs": [
        {
          "internalType": "uint256",
          "name": "productId",
          "type": "uint256"
        },
        {
          "internalType": "uint256",
          "name": "bidId",
          "type": "uint256"
        }
      ],
      "name": "getProductBids",
      "outputs": [
        {
          "components": [
            {
              "internalType": "uint256",
              "name": "id",
              "type": "uint256"
            },
            {
              "internalType": "uint256",
              "name": "productId",
              "type": "uint256"
            },
            {
              "internalType": "uint256",
              "name": "bidAmount",
              "type": "uint256"
            },
            {
              "internalType": "address",
              "name": "bidderAddress",
              "type": "address"
            }
          ],
          "internalType": "struct Auction.Bid",
          "name": "bids",
          "type": "tuple"
        }
      ],
      "stateMutability": "nonpayable",
      "type": "function"
    },
    {
      "inputs": [
        {
          "internalType": "string",
          "name": "_name",
          "type": "string"
        },
        {
          "internalType": "string",
          "name": "_email",
          "type": "string"
        },
        {
          "internalType": "string",
          "name": "_storeFrontImage",
          "type": "string"
        }
      ],
      "name": "addStore",
      "outputs": [
        {
          "internalType": "bool",
          "name": "",
          "type": "bool"
        }
      ],
      "stateMutability": "nonpayable",
      "type": "function"
    },
    {
      "inputs": [
        {
          "internalType": "string",
          "name": "_name",
          "type": "string"
        },
        {
          "internalType": "string",
          "name": "_category",
          "type": "string"
        },
        {
          "internalType": "uint256",
          "name": "_startTime",
          "type": "uint256"
        },
        {
          "internalType": "uint256",
          "name": "_endTime",
          "type": "uint256"
        },
        {
          "internalType": "uint256",
          "name": "_price",
          "type": "uint256"
        },
        {
          "internalType": "uint256",
          "name": "_productCondition",
          "type": "uint256"
        }
      ],
      "name": "addProduct",
      "outputs": [],
      "stateMutability": "nonpayable",
      "type": "function"
    },
    {
      "inputs": [
        {
          "internalType": "uint256",
          "name": "_id",
          "type": "uint256"
        }
      ],
      "name": "getProduct",
      "outputs": [
        {
          "internalType": "uint256",
          "name": "id",
          "type": "uint256"
        },
        {
          "internalType": "string",
          "name": "productName",
          "type": "string"
        },
        {
          "internalType": "string",
          "name": "category",
          "type": "string"
        },
        {
          "internalType": "uint256",
          "name": "startTime",
          "type": "uint256"
        },
        {
          "internalType": "uint256",
          "name": "endTime",
          "type": "uint256"
        },
        {
          "internalType": "uint256",
          "name": "price",
          "type": "uint256"
        },
        {
          "internalType": "address",
          "name": "buyer",
          "type": "address"
        },
        {
          "internalType": "address",
          "name": "sellerAddress",
          "type": "address"
        },
        {
          "internalType": "enum Auction.ProductCondition",
          "name": "condition",
          "type": "uint8"
        },
        {
          "internalType": "enum Auction.ProductState",
          "name": "productState",
          "type": "uint8"
        }
      ],
      "stateMutability": "view",
      "type": "function",
      "constant": true
    }
  ],
  "bytecode": "0x60806040526040518060400160405280600781526020017f41756374696f6e00000000000000000000000000000000000000000000000000815250600090805190602001906200005192919062000075565b506000600b556000600c556000600d553480156200006e57600080fd5b506200018a565b828054620000839062000154565b90600052602060002090601f016020900481019282620000a75760008555620000f3565b82601f10620000c257805160ff1916838001178555620000f3565b82800160010185558215620000f3579182015b82811115620000f2578251825591602001919060010190620000d5565b5b50905062000102919062000106565b5090565b5b808211156200012157600081600090555060010162000107565b5090565b7f4e487b7100000000000000000000000000000000000000000000000000000000600052602260045260246000fd5b600060028204905060018216806200016d57607f821691505b6020821081141562000184576200018362000125565b5b50919050565b6137ab806200019a6000396000f3fe608060405234801561001057600080fd5b506004361061012c5760003560e01c80636bf693c4116100ad578063b9db15b411610071578063b9db15b4146103d7578063cd274a4014610410578063e0f6ef8714610444578063eea720c014610462578063f95a279f146104925761012c565b80636bf693c4146102fe5780636f77926b14610332578063aa0cd2b814610366578063abbfccab14610384578063b40a5627146103b95761012c565b80631b486233116100f45780631b486233146102175780632d2bb2471461024757806354121c741461027757806357c90de5146102b25780635c8d189d146102e25761012c565b80630281ff3a146101315780630674ca3c1461016157806306fdde03146101965780630ba582fb146101b4578063167d21fc146101e7575b600080fd5b61014b6004803603810190610146919061292c565b6104c2565b6040516101589190612972565b60405180910390f35b61017b600480360381019061017691906129b9565b6104da565b60405161018d96959493929190612a8e565b60405180910390f35b61019e610646565b6040516101ab9190612afd565b60405180910390f35b6101ce60048036038101906101c99190612b1f565b6106d4565b6040516101de9493929190612b5f565b60405180910390f35b61020160048036038101906101fc919061292c565b610731565b60405161020e9190612972565b60405180910390f35b610231600480360381019061022c9190612cd9565b610749565b60405161023e9190612d9b565b60405180910390f35b610261600480360381019061025c9190612b1f565b610aff565b60405161026e9190612e29565b60405180910390f35b610291600480360381019061028c9190612e44565b610bb2565b6040516102a99c9b9a99989796959493929190612f43565b60405180910390f35b6102cc60048036038101906102c79190612b1f565b610e1e565b6040516102d99190612d9b565b60405180910390f35b6102fc60048036038101906102f79190613012565b611619565b005b6103186004803603810190610313919061292c565b611a03565b6040516103299594939291906130d7565b60405180910390f35b61034c6004803603810190610347919061292c565b611c79565b60405161035d9594939291906130d7565b60405180910390f35b61036e611f9a565b60405161037b9190612972565b60405180910390f35b61039e6004803603810190610399919061292c565b611fa0565b6040516103b096959493929190612a8e565b60405180910390f35b6103c161210c565b6040516103ce9190612972565b60405180910390f35b6103f160048036038101906103ec91906129b9565b612112565b6040516104079a99989796959493929190613146565b60405180910390f35b61042a600480360381019061042591906131f0565b612602565b60405161043b9594939291906130d7565b60405180910390f35b61044c612760565b6040516104599190612972565b60405180910390f35b61047c600480360381019061047791906129b9565b612766565b6040516104899190612972565b60405180910390f35b6104ac60048036038101906104a791906129b9565b61277e565b6040516104b991906132db565b60405180910390f35b60066020528060005260406000206000915090505481565b60016020528060005260406000206000915090508060000154908060010160009054906101000a900473ffffffffffffffffffffffffffffffffffffffff169080600201805461052990613325565b80601f016020809104026020016040519081016040528092919081815260200182805461055590613325565b80156105a25780601f10610577576101008083540402835291602001916105a2565b820191906000526020600020905b81548152906001019060200180831161058557829003601f168201915b5050505050908060030180546105b790613325565b80601f01602080910402602001604051908101604052809291908181526020018280546105e390613325565b80156106305780601f1061060557610100808354040283529160200191610630565b820191906000526020600020905b81548152906001019060200180831161061357829003601f168201915b5050505050908060040154908060050154905086565b6000805461065390613325565b80601f016020809104026020016040519081016040528092919081815260200182805461067f90613325565b80156106cc5780601f106106a1576101008083540402835291602001916106cc565b820191906000526020600020905b8154815290600101906020018083116106af57829003601f168201915b505050505081565b6007602052816000526040600020602052806000526040600020600091509150508060000154908060010154908060020154908060030160009054906101000a900473ffffffffffffffffffffffffffffffffffffffff16905084565b60056020528060005260406000206000915090505481565b60003360016000600560008473ffffffffffffffffffffffffffffffffffffffff1673ffffffffffffffffffffffffffffffffffffffff16815260200190815260200160002054815260200190815260200160002060010160009054906101000a900473ffffffffffffffffffffffffffffffffffffffff1673ffffffffffffffffffffffffffffffffffffffff168173ffffffffffffffffffffffffffffffffffffffff161415610830576040517f08c379a0000000000000000000000000000000000000000000000000000000008152600401610827906133a3565b60405180910390fd5b6001600b600082825461084391906133f2565b925050819055506040518060c00160405280600b5481526020013373ffffffffffffffffffffffffffffffffffffffff16815260200186815260200184815260200160008152602001600081525060016000600b5481526020019081526020016000206000820151816000015560208201518160010160006101000a81548173ffffffffffffffffffffffffffffffffffffffff021916908373ffffffffffffffffffffffffffffffffffffffff16021790555060408201518160020190805190602001906109139291906127d9565b5060608201518160030190805190602001906109309291906127d9565b506080820151816004015560a082015181600501559050506040518060c00160405280600b5481526020013373ffffffffffffffffffffffffffffffffffffffff168152602001868152602001848152602001600081526020016000815250600260003373ffffffffffffffffffffffffffffffffffffffff1673ffffffffffffffffffffffffffffffffffffffff1681526020019081526020016000206000820151816000015560208201518160010160006101000a81548173ffffffffffffffffffffffffffffffffffffffff021916908373ffffffffffffffffffffffffffffffffffffffff1602179055506040820151816002019080519060200190610a3b9291906127d9565b506060820151816003019080519060200190610a589291906127d9565b506080820151816004015560a08201518160050155905050600b54600560003373ffffffffffffffffffffffffffffffffffffffff1673ffffffffffffffffffffffffffffffffffffffff168152602001908152602001600020819055507fe8253acf656dc8347730e5bac58063299c552725b3a12635eed3d481d55bac1f33868686604051610aeb9493929190613448565b60405180910390a160019150509392505050565b610b0761285f565b6007600084815260200190815260200160002060008381526020019081526020016000206040518060800160405290816000820154815260200160018201548152602001600282015481526020016003820160009054906101000a900473ffffffffffffffffffffffffffffffffffffffff1673ffffffffffffffffffffffffffffffffffffffff1673ffffffffffffffffffffffffffffffffffffffff1681525050905092915050565b600360205281600052604060002060205280600052604060002060009150915050806000015490806001018054610be890613325565b80601f0160208091040260200160405190810160405280929190818152602001828054610c1490613325565b8015610c615780601f10610c3657610100808354040283529160200191610c61565b820191906000526020600020905b815481529060010190602001808311610c4457829003601f168201915b505050505090806002018054610c7690613325565b80601f0160208091040260200160405190810160405280929190818152602001828054610ca290613325565b8015610cef5780601f10610cc457610100808354040283529160200191610cef565b820191906000526020600020905b815481529060010190602001808311610cd257829003601f168201915b505050505090806003018054610d0490613325565b80601f0160208091040260200160405190810160405280929190818152602001828054610d3090613325565b8015610d7d5780601f10610d5257610100808354040283529160200191610d7d565b820191906000526020600020905b815481529060010190602001808311610d6057829003601f168201915b5050505050908060040154908060050154908060060154908060070160009054906101000a900473ffffffffffffffffffffffffffffffffffffffff16908060080160009054906101000a900473ffffffffffffffffffffffffffffffffffffffff16908060080160149054906101000a900460ff16908060080160159054906101000a900460ff16908060080160169054906101000a900460ff1690508c565b6000610e366001600d546127b190919063ffffffff16565b600d819055506040518060800160405280600d5481526020018481526020018381526020013373ffffffffffffffffffffffffffffffffffffffff16815250600760008581526020019081526020016000206000600d54815260200190815260200160002060008201518160000155602082015181600101556040820151816002015560608201518160030160006101000a81548173ffffffffffffffffffffffffffffffffffffffff021916908373ffffffffffffffffffffffffffffffffffffffff1602179055509050506001600860008581526020019081526020016000206000828254610f2791906133f2565b925050819055506000600960003373ffffffffffffffffffffffffffffffffffffffff1673ffffffffffffffffffffffffffffffffffffffff1681526020019081526020016000206040518060a00160405290816000820160009054906101000a900473ffffffffffffffffffffffffffffffffffffffff1673ffffffffffffffffffffffffffffffffffffffff1673ffffffffffffffffffffffffffffffffffffffff168152602001600182018054610fe090613325565b80601f016020809104026020016040519081016040528092919081815260200182805461100c90613325565b80156110595780601f1061102e57610100808354040283529160200191611059565b820191906000526020600020905b81548152906001019060200180831161103c57829003601f168201915b5050505050815260200160028201805461107290613325565b80601f016020809104026020016040519081016040528092919081815260200182805461109e90613325565b80156110eb5780601f106110c0576101008083540402835291602001916110eb565b820191906000526020600020905b8154815290600101906020018083116110ce57829003601f168201915b5050505050815260200160038201805461110490613325565b80601f016020809104026020016040519081016040528092919081815260200182805461113090613325565b801561117d5780601f106111525761010080835404028352916020019161117d565b820191906000526020600020905b81548152906001019060200180831161116057829003601f168201915b5050505050815260200160048201805461119690613325565b80601f01602080910402602001604051908101604052809291908181526020018280546111c290613325565b801561120f5780601f106111e45761010080835404028352916020019161120f565b820191906000526020600020905b8154815290600101906020018083116111f257829003601f168201915b505050505081525050905060006004600086815260200190815260200160002060009054906101000a900473ffffffffffffffffffffffffffffffffffffffff1690506000600360008373ffffffffffffffffffffffffffffffffffffffff1673ffffffffffffffffffffffffffffffffffffffff168152602001908152602001600020600087815260200190815260200160002060405180610180016040529081600082015481526020016001820180546112ca90613325565b80601f01602080910402602001604051908101604052809291908181526020018280546112f690613325565b80156113435780601f1061131857610100808354040283529160200191611343565b820191906000526020600020905b81548152906001019060200180831161132657829003601f168201915b5050505050815260200160028201805461135c90613325565b80601f016020809104026020016040519081016040528092919081815260200182805461138890613325565b80156113d55780601f106113aa576101008083540402835291602001916113d5565b820191906000526020600020905b8154815290600101906020018083116113b857829003601f168201915b505050505081526020016003820180546113ee90613325565b80601f016020809104026020016040519081016040528092919081815260200182805461141a90613325565b80156114675780601f1061143c57610100808354040283529160200191611467565b820191906000526020600020905b81548152906001019060200180831161144a57829003601f168201915b505050505081526020016004820154815260200160058201548152602001600682015481526020016007820160009054906101000a900473ffffffffffffffffffffffffffffffffffffffff1673ffffffffffffffffffffffffffffffffffffffff1673ffffffffffffffffffffffffffffffffffffffff1681526020016008820160009054906101000a900473ffffffffffffffffffffffffffffffffffffffff1673ffffffffffffffffffffffffffffffffffffffff1673ffffffffffffffffffffffffffffffffffffffff1681526020016008820160149054906101000a900460ff16600181111561155f5761155e612e84565b5b600181111561157157611570612e84565b5b81526020016008820160159054906101000a900460ff16600481111561159a57611599612e84565b5b60048111156115ac576115ab612e84565b5b81526020016008820160169054906101000a900460ff16151515158152505090507f2cda2879f47b1beb6143213ed4f8f5dff974f8f4a072f0264e23a5e3afce8a76600d5482878660405161160494939291906136b6565b60405180910390a16001935050505092915050565b61162f6001600c546127b190919063ffffffff16565b600c819055506000604051806101800160405280600c5481526020018881526020018781526020016040518060400160405280600581526020017f656d7074790000000000000000000000000000000000000000000000000000008152508152602001868152602001858152602001848152602001600073ffffffffffffffffffffffffffffffffffffffff1681526020013373ffffffffffffffffffffffffffffffffffffffff1681526020018360018111156116f0576116ef612e84565b5b600181111561170257611701612e84565b5b81526020016000600481111561171b5761171a612e84565b5b815260200160011515815250905080600360003373ffffffffffffffffffffffffffffffffffffffff1673ffffffffffffffffffffffffffffffffffffffff1681526020019081526020016000206000600c5481526020019081526020016000206000820151816000015560208201518160010190805190602001906117a29291906127d9565b5060408201518160020190805190602001906117bf9291906127d9565b5060608201518160030190805190602001906117dc9291906127d9565b506080820151816004015560a0820151816005015560c0820151816006015560e08201518160070160006101000a81548173ffffffffffffffffffffffffffffffffffffffff021916908373ffffffffffffffffffffffffffffffffffffffff1602179055506101008201518160080160006101000a81548173ffffffffffffffffffffffffffffffffffffffff021916908373ffffffffffffffffffffffffffffffffffffffff1602179055506101208201518160080160146101000a81548160ff021916908360018111156118b6576118b5612e84565b5b02179055506101408201518160080160156101000a81548160ff021916908360048111156118e7576118e6612e84565b5b02179055506101608201518160080160166101000a81548160ff0219169083151502179055509050503360046000600c54815260200190815260200160002060006101000a81548173ffffffffffffffffffffffffffffffffffffffff021916908373ffffffffffffffffffffffffffffffffffffffff1602179055506119b76001600660003373ffffffffffffffffffffffffffffffffffffffff1673ffffffffffffffffffffffffffffffffffffffff168152602001908152602001600020546127b190919063ffffffff16565b600660003373ffffffffffffffffffffffffffffffffffffffff1673ffffffffffffffffffffffffffffffffffffffff1681526020019081526020016000208190555050505050505050565b60096020528060005260406000206000915090508060000160009054906101000a900473ffffffffffffffffffffffffffffffffffffffff1690806001018054611a4c90613325565b80601f0160208091040260200160405190810160405280929190818152602001828054611a7890613325565b8015611ac55780601f10611a9a57610100808354040283529160200191611ac5565b820191906000526020600020905b815481529060010190602001808311611aa857829003601f168201915b505050505090806002018054611ada90613325565b80601f0160208091040260200160405190810160405280929190818152602001828054611b0690613325565b8015611b535780601f10611b2857610100808354040283529160200191611b53565b820191906000526020600020905b815481529060010190602001808311611b3657829003601f168201915b505050505090806003018054611b6890613325565b80601f0160208091040260200160405190810160405280929190818152602001828054611b9490613325565b8015611be15780601f10611bb657610100808354040283529160200191611be1565b820191906000526020600020905b815481529060010190602001808311611bc457829003601f168201915b505050505090806004018054611bf690613325565b80601f0160208091040260200160405190810160405280929190818152602001828054611c2290613325565b8015611c6f5780601f10611c4457610100808354040283529160200191611c6f565b820191906000526020600020905b815481529060010190602001808311611c5257829003601f168201915b5050505050905085565b60006060806060806000600960008873ffffffffffffffffffffffffffffffffffffffff1673ffffffffffffffffffffffffffffffffffffffff1681526020019081526020016000206040518060a00160405290816000820160009054906101000a900473ffffffffffffffffffffffffffffffffffffffff1673ffffffffffffffffffffffffffffffffffffffff1673ffffffffffffffffffffffffffffffffffffffff168152602001600182018054611d3390613325565b80601f0160208091040260200160405190810160405280929190818152602001828054611d5f90613325565b8015611dac5780601f10611d8157610100808354040283529160200191611dac565b820191906000526020600020905b815481529060010190602001808311611d8f57829003601f168201915b50505050508152602001600282018054611dc590613325565b80601f0160208091040260200160405190810160405280929190818152602001828054611df190613325565b8015611e3e5780601f10611e1357610100808354040283529160200191611e3e565b820191906000526020600020905b815481529060010190602001808311611e2157829003601f168201915b50505050508152602001600382018054611e5790613325565b80601f0160208091040260200160405190810160405280929190818152602001828054611e8390613325565b8015611ed05780601f10611ea557610100808354040283529160200191611ed0565b820191906000526020600020905b815481529060010190602001808311611eb357829003601f168201915b50505050508152602001600482018054611ee990613325565b80601f0160208091040260200160405190810160405280929190818152602001828054611f1590613325565b8015611f625780601f10611f3757610100808354040283529160200191611f62565b820191906000526020600020905b815481529060010190602001808311611f4557829003601f168201915b505050505081525050905080600001518160200151826040015183606001518460800151955095509550955095505091939590929450565b600b5481565b60026020528060005260406000206000915090508060000154908060010160009054906101000a900473ffffffffffffffffffffffffffffffffffffffff1690806002018054611fef90613325565b80601f016020809104026020016040519081016040528092919081815260200182805461201b90613325565b80156120685780601f1061203d57610100808354040283529160200191612068565b820191906000526020600020905b81548152906001019060200180831161204b57829003601f168201915b50505050509080600301805461207d90613325565b80601f01602080910402602001604051908101604052809291908181526020018280546120a990613325565b80156120f65780601f106120cb576101008083540402835291602001916120f6565b820191906000526020600020905b8154815290600101906020018083116120d957829003601f168201915b5050505050908060040154908060050154905086565b600d5481565b600060608060008060008060008060008a600360006004600084815260200190815260200160002060009054906101000a900473ffffffffffffffffffffffffffffffffffffffff1673ffffffffffffffffffffffffffffffffffffffff1673ffffffffffffffffffffffffffffffffffffffff168152602001908152602001600020600082815260200190815260200160002060080160169054906101000a900460ff166121f6576040517f08c379a00000000000000000000000000000000000000000000000000000000081526004016121ed90613755565b60405180910390fd5b6000600460008e815260200190815260200160002060009054906101000a900473ffffffffffffffffffffffffffffffffffffffff1690506000600360008373ffffffffffffffffffffffffffffffffffffffff1673ffffffffffffffffffffffffffffffffffffffff16815260200190815260200160002060008f815260200190815260200160002060405180610180016040529081600082015481526020016001820180546122a690613325565b80601f01602080910402602001604051908101604052809291908181526020018280546122d290613325565b801561231f5780601f106122f45761010080835404028352916020019161231f565b820191906000526020600020905b81548152906001019060200180831161230257829003601f168201915b5050505050815260200160028201805461233890613325565b80601f016020809104026020016040519081016040528092919081815260200182805461236490613325565b80156123b15780601f10612386576101008083540402835291602001916123b1565b820191906000526020600020905b81548152906001019060200180831161239457829003601f168201915b505050505081526020016003820180546123ca90613325565b80601f01602080910402602001604051908101604052809291908181526020018280546123f690613325565b80156124435780601f1061241857610100808354040283529160200191612443565b820191906000526020600020905b81548152906001019060200180831161242657829003601f168201915b505050505081526020016004820154815260200160058201548152602001600682015481526020016007820160009054906101000a900473ffffffffffffffffffffffffffffffffffffffff1673ffffffffffffffffffffffffffffffffffffffff1673ffffffffffffffffffffffffffffffffffffffff1681526020016008820160009054906101000a900473ffffffffffffffffffffffffffffffffffffffff1673ffffffffffffffffffffffffffffffffffffffff1673ffffffffffffffffffffffffffffffffffffffff1681526020016008820160149054906101000a900460ff16600181111561253b5761253a612e84565b5b600181111561254d5761254c612e84565b5b81526020016008820160159054906101000a900460ff16600481111561257657612575612e84565b5b600481111561258857612587612e84565b5b81526020016008820160169054906101000a900460ff161515151581525050905080600001518160200151826040015183608001518460a001518560c001518660e001518761010001518861012001518961014001519c509c509c509c509c509c509c509c509c509c505050509193959799509193959799565b60006060806060806040518060a001604052808b73ffffffffffffffffffffffffffffffffffffffff1681526020018a815260200189815260200188815260200187815250600960008c73ffffffffffffffffffffffffffffffffffffffff1673ffffffffffffffffffffffffffffffffffffffff16815260200190815260200160002060008201518160000160006101000a81548173ffffffffffffffffffffffffffffffffffffffff021916908373ffffffffffffffffffffffffffffffffffffffff16021790555060208201518160010190805190602001906126e99291906127d9565b5060408201518160020190805190602001906127069291906127d9565b5060608201518160030190805190602001906127239291906127d9565b5060808201518160040190805190602001906127409291906127d9565b509050508989898989945094509450945094509550955095509550959050565b600c5481565b60086020528060005260406000206000915090505481565b60046020528060005260406000206000915054906101000a900473ffffffffffffffffffffffffffffffffffffffff1681565b60008082846127c091906133f2565b9050838110156127cf57600080fd5b8091505092915050565b8280546127e590613325565b90600052602060002090601f016020900481019282612807576000855561284e565b82601f1061282057805160ff191683800117855561284e565b8280016001018555821561284e579182015b8281111561284d578251825591602001919060010190612832565b5b50905061285b919061289d565b5090565b6040518060800160405280600081526020016000815260200160008152602001600073ffffffffffffffffffffffffffffffffffffffff1681525090565b5b808211156128b657600081600090555060010161289e565b5090565b6000604051905090565b600080fd5b600080fd5b600073ffffffffffffffffffffffffffffffffffffffff82169050919050565b60006128f9826128ce565b9050919050565b612909816128ee565b811461291457600080fd5b50565b60008135905061292681612900565b92915050565b600060208284031215612942576129416128c4565b5b600061295084828501612917565b91505092915050565b6000819050919050565b61296c81612959565b82525050565b60006020820190506129876000830184612963565b92915050565b61299681612959565b81146129a157600080fd5b50565b6000813590506129b38161298d565b92915050565b6000602082840312156129cf576129ce6128c4565b5b60006129dd848285016129a4565b91505092915050565b6129ef816128ee565b82525050565b600081519050919050565b600082825260208201905092915050565b60005b83811015612a2f578082015181840152602081019050612a14565b83811115612a3e576000848401525b50505050565b6000601f19601f8301169050919050565b6000612a60826129f5565b612a6a8185612a00565b9350612a7a818560208601612a11565b612a8381612a44565b840191505092915050565b600060c082019050612aa36000830189612963565b612ab060208301886129e6565b8181036040830152612ac28187612a55565b90508181036060830152612ad68186612a55565b9050612ae56080830185612963565b612af260a0830184612963565b979650505050505050565b60006020820190508181036000830152612b178184612a55565b905092915050565b60008060408385031215612b3657612b356128c4565b5b6000612b44858286016129a4565b9250506020612b55858286016129a4565b9150509250929050565b6000608082019050612b746000830187612963565b612b816020830186612963565b612b8e6040830185612963565b612b9b60608301846129e6565b95945050505050565b600080fd5b600080fd5b7f4e487b7100000000000000000000000000000000000000000000000000000000600052604160045260246000fd5b612be682612a44565b810181811067ffffffffffffffff82111715612c0557612c04612bae565b5b80604052505050565b6000612c186128ba565b9050612c248282612bdd565b919050565b600067ffffffffffffffff821115612c4457612c43612bae565b5b612c4d82612a44565b9050602081019050919050565b82818337600083830152505050565b6000612c7c612c7784612c29565b612c0e565b905082815260208101848484011115612c9857612c97612ba9565b5b612ca3848285612c5a565b509392505050565b600082601f830112612cc057612cbf612ba4565b5b8135612cd0848260208601612c69565b91505092915050565b600080600060608486031215612cf257612cf16128c4565b5b600084013567ffffffffffffffff811115612d1057612d0f6128c9565b5b612d1c86828701612cab565b935050602084013567ffffffffffffffff811115612d3d57612d3c6128c9565b5b612d4986828701612cab565b925050604084013567ffffffffffffffff811115612d6a57612d696128c9565b5b612d7686828701612cab565b9150509250925092565b60008115159050919050565b612d9581612d80565b82525050565b6000602082019050612db06000830184612d8c565b92915050565b612dbf81612959565b82525050565b612dce816128ee565b82525050565b608082016000820151612dea6000850182612db6565b506020820151612dfd6020850182612db6565b506040820151612e106040850182612db6565b506060820151612e236060850182612dc5565b50505050565b6000608082019050612e3e6000830184612dd4565b92915050565b60008060408385031215612e5b57612e5a6128c4565b5b6000612e6985828601612917565b9250506020612e7a858286016129a4565b9150509250929050565b7f4e487b7100000000000000000000000000000000000000000000000000000000600052602160045260246000fd5b60028110612ec457612ec3612e84565b5b50565b6000819050612ed582612eb3565b919050565b6000612ee582612ec7565b9050919050565b612ef581612eda565b82525050565b60058110612f0c57612f0b612e84565b5b50565b6000819050612f1d82612efb565b919050565b6000612f2d82612f0f565b9050919050565b612f3d81612f22565b82525050565b600061018082019050612f59600083018f612963565b8181036020830152612f6b818e612a55565b90508181036040830152612f7f818d612a55565b90508181036060830152612f93818c612a55565b9050612fa2608083018b612963565b612faf60a083018a612963565b612fbc60c0830189612963565b612fc960e08301886129e6565b612fd76101008301876129e6565b612fe5610120830186612eec565b612ff3610140830185612f34565b613001610160830184612d8c565b9d9c50505050505050505050505050565b60008060008060008060c0878903121561302f5761302e6128c4565b5b600087013567ffffffffffffffff81111561304d5761304c6128c9565b5b61305989828a01612cab565b965050602087013567ffffffffffffffff81111561307a576130796128c9565b5b61308689828a01612cab565b955050604061309789828a016129a4565b94505060606130a889828a016129a4565b93505060806130b989828a016129a4565b92505060a06130ca89828a016129a4565b9150509295509295509295565b600060a0820190506130ec60008301886129e6565b81810360208301526130fe8187612a55565b905081810360408301526131128186612a55565b905081810360608301526131268185612a55565b9050818103608083015261313a8184612a55565b90509695505050505050565b60006101408201905061315c600083018d612963565b818103602083015261316e818c612a55565b90508181036040830152613182818b612a55565b9050613191606083018a612963565b61319e6080830189612963565b6131ab60a0830188612963565b6131b860c08301876129e6565b6131c560e08301866129e6565b6131d3610100830185612eec565b6131e1610120830184612f34565b9b9a5050505050505050505050565b600080600080600060a0868803121561320c5761320b6128c4565b5b600061321a88828901612917565b955050602086013567ffffffffffffffff81111561323b5761323a6128c9565b5b61324788828901612cab565b945050604086013567ffffffffffffffff811115613268576132676128c9565b5b61327488828901612cab565b935050606086013567ffffffffffffffff811115613295576132946128c9565b5b6132a188828901612cab565b925050608086013567ffffffffffffffff8111156132c2576132c16128c9565b5b6132ce88828901612cab565b9150509295509295909350565b60006020820190506132f060008301846129e6565b92915050565b7f4e487b7100000000000000000000000000000000000000000000000000000000600052602260045260246000fd5b6000600282049050600182168061333d57607f821691505b60208210811415613351576133506132f6565b5b50919050565b7f5573657220616c72656164792068617320612073746f72650000000000000000600082015250565b600061338d601883612a00565b915061339882613357565b602082019050919050565b600060208201905081810360008301526133bc81613380565b9050919050565b7f4e487b7100000000000000000000000000000000000000000000000000000000600052601160045260246000fd5b60006133fd82612959565b915061340883612959565b9250827fffffffffffffffffffffffffffffffffffffffffffffffffffffffffffffffff0382111561343d5761343c6133c3565b5b828201905092915050565b600060808201905061345d60008301876129e6565b818103602083015261346f8186612a55565b905081810360408301526134838185612a55565b905081810360608301526134978184612a55565b905095945050505050565b600082825260208201905092915050565b60006134be826129f5565b6134c881856134a2565b93506134d8818560208601612a11565b6134e181612a44565b840191505092915050565b6134f581612eda565b82525050565b61350481612f22565b82525050565b61351381612d80565b82525050565b6000610180830160008301516135326000860182612db6565b506020830151848203602086015261354a82826134b3565b9150506040830151848203604086015261356482826134b3565b9150506060830151848203606086015261357e82826134b3565b91505060808301516135936080860182612db6565b5060a08301516135a660a0860182612db6565b5060c08301516135b960c0860182612db6565b5060e08301516135cc60e0860182612dc5565b506101008301516135e1610100860182612dc5565b506101208301516135f66101208601826134ec565b5061014083015161360b6101408601826134fb565b5061016083015161362061016086018261350a565b508091505092915050565b600060a0830160008301516136436000860182612dc5565b506020830151848203602086015261365b82826134b3565b9150506040830151848203604086015261367582826134b3565b9150506060830151848203606086015261368f82826134b3565b915050608083015184820360808601526136a982826134b3565b9150508091505092915050565b60006080820190506136cb6000830187612963565b81810360208301526136dd8186613519565b90506136ec6040830185612963565b81810360608301526136fe818461362b565b905095945050505050565b7f50726f64756374206e6f7420666f756e642e0000000000000000000000000000600082015250565b600061373f601283612a00565b915061374a82613709565b602082019050919050565b6000602082019050818103600083015261376e81613732565b905091905056fea264697066735822122052ab61ad776dd28e2d443fdf0c50f25099c33e98d3c923543454f26d629e447964736f6c634300080a0033",
  "immutableReferences": {},
  "source": "pragma solidity >=0.4.22 <0.9.0;\npragma experimental ABIEncoderV2;\n\nimport \"./SafeMath.sol\";\n\n\ncontract Auction {\n    using SafeMath for uint256;\n\n    string public name = \"Auction\";\n\n    mapping (uint => Store) public storesById;                   // Stores by id\n    mapping (address => Store) public storesByAddress;                   // Stores by id\n    mapping (address => mapping(uint => Product)) public stores; // products by stores\n    mapping (uint => address) public storesByProductId;          // seller address by product id\n    mapping (address => uint) public storesBySellers;            // store by seller address, used to prevent more than one store per user\n    mapping (address => uint) public productCountByStore;        // product count by store\n    mapping (uint => mapping(uint => Bid)) public bidsByProduct;\n    mapping (uint => uint) public bidCountByProduct;\n    mapping (address => User) public usersByAddress;\n\n    // events\n    event NewProductAdded(address storeAddress, address productAddress);\n    event NewStoreAdded(address storeAddress, string storeName, string email, string storeFrontImage);\n    event NewBid (uint id, Product product, uint bidAmount, User bidder);\n\n    modifier OnlyOwner(){\n        require(msg.sender == owner,\"ONLY ADMIN IS ALLOWED\");\n        _;\n    }\n\n    modifier onlyBefore(uint _time) {\n        require(block.timestamp < _time);\n        _;\n    }\n\n    modifier onlyAfter(uint _time) {\n        require(block.timestamp > _time);\n        _;\n    }\n    \n    // modifier Only_Doctors{\n    //     require(DoctorInfo[msg.sender].state == true,\"REGISTERED DOCTORS ONLY\");\n    //     _;\n    // }\n    \n    // modifier Only_Patients{\n    //     require(PatientInfo[msg.sender].state == true,\"REGISTERED PATIENTS ONLY\");\n    //     _;\n    // }\n\n    address owner;\n    \n    // constructor\n    constructor() public {}\n    \n    // global states\n\n    uint public storesCount = 0;\n    uint public productCount = 0;\n    uint public bidCount = 0;\n\n    // structs\n\n    struct User {\n        address userAddress;\n        string firstName;\n        string lastName;\n        string email;\n        string phoneNumber;\n    }\n\n    // store\n    struct Store{\n        uint storeId;\n        address userAddress;\n        string storeName;   \n        string storeFrontImage;\n        uint balance;\n        uint productCount;\n    }\n\n    // product \n    enum ProductCondition {New, Used}\n    enum ProductState {ForSale, Sold, Shipped, Received, Deleted}\n    struct Product {\n        uint id;\n        string productName;//\n        string category;//\n        string imageLink;//\n        uint startTime;//\n        uint endTime;//\n        uint price;//\n        address buyer;\n        address sellerAddress;\n        ProductCondition productCondition;//\n        ProductState productState;//\n        bool exists;\n    }\n\n    // auction\n    struct Bid {\n        uint id;\n        uint productId;\n        uint bidAmount;\n        address bidderAddress;\n    }\n\n    // create user\n    function addUser (address userAddress, string memory firstName, string memory lastName, string memory email, string memory phoneNumber) public returns(address _userAddress, string memory _firstName, string memory _lastName, string memory _email, string memory _phoneNumber) {\n        usersByAddress[userAddress] = User(userAddress, firstName, lastName, email, phoneNumber);\n        return (\n            userAddress,\n            firstName,\n            lastName,\n            email, \n            phoneNumber\n        );\n    }\n\n    // check user\n    function getUser (address userAddress) public view returns (address _userAddress, string memory _firstName, string memory _lastName, string memory _email, string memory _phoneNumber){\n        User memory user = usersByAddress[userAddress];\n        return (\n            user.userAddress,\n            user.firstName,\n            user.lastName,\n            user.email, \n            user.phoneNumber\n        );\n    }\n\n    // create bid\n    function placeBid (uint productId, uint bidAmount) public returns (bool success){\n        bidCount = bidCount.add(1);\n        bidsByProduct[productId][bidCount] = Bid(bidCount, productId, bidAmount, msg.sender);\n        bidCountByProduct[productId] += 1;\n        User memory bidder = usersByAddress[msg.sender];\n        address x = storesByProductId[productId];\n        Product memory product = stores[x][productId];\n        emit NewBid(bidCount, product, bidAmount, bidder);\n        return true;\n    }\n\n    // get product bids\n    function getProductBids (uint productId, uint bidId) public returns (Bid memory bids) {\n        return bidsByProduct[productId][bidId];\n    }\n\n    // create store\n    modifier notHaveStore(address sellerAddress) { \n        require(!(sellerAddress == storesById[storesBySellers[sellerAddress]].userAddress), \"User already has a store\" ); \n        _;\n    }\n\n    function  addStore(\n        string memory _name, \n        string memory _email,\n        string memory _storeFrontImage\n    )\n        public\n        notHaveStore(msg.sender)\n        returns (bool)\n    { \n        // require(true);\n        storesCount += 1;\n        storesById[storesCount] = Store(storesCount, msg.sender, _name, _storeFrontImage, 0, 0);\n        storesByAddress[msg.sender] = Store(storesCount, msg.sender, _name, _storeFrontImage, 0, 0);\n        storesBySellers[msg.sender] = storesCount;\n        emit NewStoreAdded(msg.sender,_name, _email, _storeFrontImage);\n        return true;\n    }\n\n    // add product\n    modifier onlyStoreOwner() { \n        require(storesById[storesBySellers[msg.sender]].userAddress == msg.sender, \"You are not the store owner!\" ); \n        _;\n    }\n    modifier productExists(uint _id) { require( stores[storesByProductId[_id]][_id].exists, \"Product not found.\"); _; }\n\n     function addProduct(\n        string memory _name, \n        string memory _category, \n        uint _startTime, \n        uint _endTime, \n        uint _price, \n        uint _productCondition\n    ) \n        public\n    {        \n        productCount = productCount.add(1);\n\n        Product memory product = Product(\n            productCount,\n            _name, \n            _category, \n            \"empty\", \n            _startTime, \n            _endTime,\n            _price,\n            address(0), \n            msg.sender, \n            ProductCondition(_productCondition),  \n            ProductState.ForSale,\n            true\n        );\n\n        stores[msg.sender][productCount] = product; \n        storesByProductId[productCount] = msg.sender;\n\n        // update product count by store\n        productCountByStore[msg.sender] = productCountByStore[msg.sender].add(1);        \n    }\n\n    // get product\n    function getProduct(uint _id) \n        public \n        productExists(_id)\n        view \n        returns(\n            uint id, \n            string memory productName, \n            string memory category, \n            uint startTime, \n            uint endTime, \n            uint price, \n            address buyer, \n            address sellerAddress, \n            ProductCondition condition,\n            ProductState productState\n        ) \n    {\n        address x = storesByProductId[_id];\n\n        Product memory product = stores[x][_id]; // load product from memory\n        return (\n            product.id, \n            product.productName, \n            product.category, \n            product.startTime,\n            product.endTime,\n            product.price, \n            product.buyer, \n            product.sellerAddress, \n            product.productCondition,\n            product.productState\n        );\n    }\n\n}",
  "sourcePath": "/home/rediet/Documents/custom-auction/auction-blockchain-main/Truffle/contracts/Auction.sol",
  "compiler": {
    "name": "solc",
    "version": "0.8.10+commit.fc410830.Emscripten.clang"
  },
  "schemaVersion": "3.4.4",
  "updatedAt": "2022-01-13T07:47:43.597Z",
  "networkType": "ethereum",
  "devdoc": {
    "kind": "dev",
    "methods": {},
    "version": 1
  },
  "userdoc": {
    "kind": "user",
    "methods": {},
    "version": 1
  }
}